{
  "abi": [
    {
      "inputs": [
        {
          "internalType": "address",
          "name": "aToken0",
          "type": "address"
        },
        {
          "internalType": "address",
          "name": "aToken1",
          "type": "address"
        }
      ],
      "stateMutability": "nonpayable",
      "type": "constructor"
    },
    {
      "anonymous": false,
      "inputs": [
        {
          "indexed": true,
          "internalType": "address",
          "name": "owner",
          "type": "address"
        },
        {
          "indexed": true,
          "internalType": "address",
          "name": "spender",
          "type": "address"
        },
        {
          "indexed": false,
          "internalType": "uint256",
          "name": "amount",
          "type": "uint256"
        }
      ],
      "name": "Approval",
      "type": "event"
    },
    {
      "anonymous": false,
      "inputs": [
        {
          "indexed": true,
          "internalType": "address",
          "name": "sender",
          "type": "address"
        },
        {
          "indexed": false,
          "internalType": "uint256",
          "name": "amount0",
          "type": "uint256"
        },
        {
          "indexed": false,
          "internalType": "uint256",
          "name": "amount1",
          "type": "uint256"
        }
      ],
      "name": "Burn",
      "type": "event"
    },
    {
      "anonymous": false,
      "inputs": [
        {
          "indexed": false,
          "internalType": "uint256",
          "name": "oldCustomPlatformFee",
          "type": "uint256"
        },
        {
          "indexed": false,
          "internalType": "uint256",
          "name": "newCustomPlatformFee",
          "type": "uint256"
        }
      ],
      "name": "CustomPlatformFeeChanged",
      "type": "event"
    },
    {
      "anonymous": false,
      "inputs": [
        {
          "indexed": false,
          "internalType": "uint256",
          "name": "oldCustomSwapFee",
          "type": "uint256"
        },
        {
          "indexed": false,
          "internalType": "uint256",
          "name": "newCustomSwapFee",
          "type": "uint256"
        }
      ],
      "name": "CustomSwapFeeChanged",
      "type": "event"
    },
    {
      "anonymous": false,
      "inputs": [
        {
          "indexed": false,
          "internalType": "contract ERC20",
          "name": "token",
          "type": "address"
        },
        {
          "indexed": false,
          "internalType": "uint256",
          "name": "amount",
          "type": "uint256"
        }
      ],
      "name": "LossReported",
      "type": "event"
    },
    {
      "anonymous": false,
      "inputs": [
        {
          "indexed": false,
          "internalType": "uint256",
          "name": "oldMaxChangePerSecond",
          "type": "uint256"
        },
        {
          "indexed": false,
          "internalType": "uint256",
          "name": "newMaxChangePerSecond",
          "type": "uint256"
        }
      ],
      "name": "MaxChangeRateUpdated",
      "type": "event"
    },
    {
      "anonymous": false,
      "inputs": [
        {
          "indexed": true,
          "internalType": "address",
          "name": "sender",
          "type": "address"
        },
        {
          "indexed": false,
          "internalType": "uint256",
          "name": "amount0",
          "type": "uint256"
        },
        {
          "indexed": false,
          "internalType": "uint256",
          "name": "amount1",
          "type": "uint256"
        }
      ],
      "name": "Mint",
      "type": "event"
    },
    {
      "anonymous": false,
      "inputs": [
        {
          "indexed": false,
          "internalType": "address",
          "name": "oldCaller",
          "type": "address"
        },
        {
          "indexed": false,
          "internalType": "address",
          "name": "newCaller",
          "type": "address"
        }
      ],
      "name": "OracleCallerUpdated",
      "type": "event"
    },
    {
      "anonymous": false,
      "inputs": [
        {
          "indexed": false,
          "internalType": "uint256",
          "name": "oldPlatformFee",
          "type": "uint256"
        },
        {
          "indexed": false,
          "internalType": "uint256",
          "name": "newPlatformFee",
          "type": "uint256"
        }
      ],
      "name": "PlatformFeeChanged",
      "type": "event"
    },
    {
      "anonymous": false,
      "inputs": [
        {
          "indexed": false,
          "internalType": "contract ERC20",
          "name": "token",
          "type": "address"
        },
        {
          "indexed": false,
          "internalType": "uint256",
          "name": "amount",
          "type": "uint256"
        }
      ],
      "name": "ProfitReported",
      "type": "event"
    },
    {
      "anonymous": false,
      "inputs": [
        {
          "indexed": true,
          "internalType": "address",
          "name": "sender",
          "type": "address"
        },
        {
          "indexed": false,
          "internalType": "bool",
          "name": "zeroForOne",
          "type": "bool"
        },
        {
          "indexed": false,
          "internalType": "uint256",
          "name": "amountIn",
          "type": "uint256"
        },
        {
          "indexed": false,
          "internalType": "uint256",
          "name": "amountOut",
          "type": "uint256"
        },
        {
          "indexed": true,
          "internalType": "address",
          "name": "to",
          "type": "address"
        }
      ],
      "name": "Swap",
      "type": "event"
    },
    {
      "anonymous": false,
      "inputs": [
        {
          "indexed": false,
          "internalType": "uint256",
          "name": "oldSwapFee",
          "type": "uint256"
        },
        {
          "indexed": false,
          "internalType": "uint256",
          "name": "newSwapFee",
          "type": "uint256"
        }
      ],
      "name": "SwapFeeChanged",
      "type": "event"
    },
    {
      "anonymous": false,
      "inputs": [
        {
          "indexed": false,
          "internalType": "uint104",
          "name": "reserve0",
          "type": "uint104"
        },
        {
          "indexed": false,
          "internalType": "uint104",
          "name": "reserve1",
          "type": "uint104"
        }
      ],
      "name": "Sync",
      "type": "event"
    },
    {
      "anonymous": false,
      "inputs": [
        {
          "indexed": true,
          "internalType": "address",
          "name": "from",
          "type": "address"
        },
        {
          "indexed": true,
          "internalType": "address",
          "name": "to",
          "type": "address"
        },
        {
          "indexed": false,
          "internalType": "uint256",
          "name": "amount",
          "type": "uint256"
        }
      ],
      "name": "Transfer",
      "type": "event"
    },
    {
      "inputs": [],
      "name": "ACCURACY",
      "outputs": [
        {
          "internalType": "uint256",
          "name": "",
          "type": "uint256"
        }
      ],
      "stateMutability": "view",
      "type": "function"
    },
    {
      "inputs": [],
      "name": "DOMAIN_SEPARATOR",
      "outputs": [
        {
          "internalType": "bytes32",
          "name": "",
          "type": "bytes32"
        }
      ],
      "stateMutability": "view",
      "type": "function"
    },
    {
      "inputs": [],
      "name": "FEE_ACCURACY",
      "outputs": [
        {
          "internalType": "uint256",
          "name": "",
          "type": "uint256"
        }
      ],
      "stateMutability": "view",
      "type": "function"
    },
    {
      "inputs": [],
      "name": "MAX_PLATFORM_FEE",
      "outputs": [
        {
          "internalType": "uint256",
          "name": "",
          "type": "uint256"
        }
      ],
      "stateMutability": "view",
      "type": "function"
    },
    {
      "inputs": [],
      "name": "MAX_SWAP_FEE",
      "outputs": [
        {
          "internalType": "uint256",
          "name": "",
          "type": "uint256"
        }
      ],
      "stateMutability": "view",
      "type": "function"
    },
    {
      "inputs": [],
      "name": "MINIMUM_LIQUIDITY",
      "outputs": [
        {
          "internalType": "uint256",
          "name": "",
          "type": "uint256"
        }
      ],
      "stateMutability": "view",
      "type": "function"
    },
    {
      "inputs": [],
      "name": "SQUARED_ACCURACY",
      "outputs": [
        {
          "internalType": "uint256",
          "name": "",
          "type": "uint256"
        }
      ],
      "stateMutability": "view",
      "type": "function"
    },
    {
      "inputs": [
        {
          "internalType": "int256",
          "name": "aToken0Change",
          "type": "int256"
        },
        {
          "internalType": "int256",
          "name": "aToken1Change",
          "type": "int256"
        }
      ],
      "name": "adjustManagement",
      "outputs": [],
      "stateMutability": "nonpayable",
      "type": "function"
    },
    {
      "inputs": [
        {
          "internalType": "address",
          "name": "",
          "type": "address"
        },
        {
          "internalType": "address",
          "name": "",
          "type": "address"
        }
      ],
      "name": "allowance",
      "outputs": [
        {
          "internalType": "uint256",
          "name": "",
          "type": "uint256"
        }
      ],
      "stateMutability": "view",
      "type": "function"
    },
    {
      "inputs": [
        {
          "internalType": "address",
          "name": "spender",
          "type": "address"
        },
        {
          "internalType": "uint256",
          "name": "amount",
          "type": "uint256"
        }
      ],
      "name": "approve",
      "outputs": [
        {
          "internalType": "bool",
          "name": "",
          "type": "bool"
        }
      ],
      "stateMutability": "nonpayable",
      "type": "function"
    },
    {
      "inputs": [],
      "name": "assetManager",
      "outputs": [
        {
          "internalType": "contract IAssetManager",
          "name": "",
          "type": "address"
        }
      ],
      "stateMutability": "view",
      "type": "function"
    },
    {
      "inputs": [
        {
          "internalType": "address",
          "name": "",
          "type": "address"
        }
      ],
      "name": "balanceOf",
      "outputs": [
        {
          "internalType": "uint256",
          "name": "",
          "type": "uint256"
        }
      ],
      "stateMutability": "view",
      "type": "function"
    },
    {
      "inputs": [
        {
          "internalType": "address",
          "name": "aTo",
          "type": "address"
        }
      ],
      "name": "burn",
      "outputs": [
        {
          "internalType": "uint256",
          "name": "rAmount0",
          "type": "uint256"
        },
        {
          "internalType": "uint256",
          "name": "rAmount1",
          "type": "uint256"
        }
      ],
      "stateMutability": "nonpayable",
      "type": "function"
    },
    {
      "inputs": [],
      "name": "customPlatformFee",
      "outputs": [
        {
          "internalType": "uint256",
          "name": "",
          "type": "uint256"
        }
      ],
      "stateMutability": "view",
      "type": "function"
    },
    {
      "inputs": [],
      "name": "customSwapFee",
      "outputs": [
        {
          "internalType": "uint256",
          "name": "",
          "type": "uint256"
        }
      ],
      "stateMutability": "view",
      "type": "function"
    },
    {
      "inputs": [],
      "name": "decimals",
      "outputs": [
        {
          "internalType": "uint8",
          "name": "",
          "type": "uint8"
        }
      ],
      "stateMutability": "view",
      "type": "function"
    },
    {
      "inputs": [],
      "name": "factory",
      "outputs": [
        {
          "internalType": "contract GenericFactory",
          "name": "",
          "type": "address"
        }
      ],
      "stateMutability": "view",
      "type": "function"
    },
    {
      "inputs": [],
      "name": "getReserves",
      "outputs": [
        {
          "internalType": "uint104",
          "name": "rReserve0",
          "type": "uint104"
        },
        {
          "internalType": "uint104",
          "name": "rReserve1",
          "type": "uint104"
        },
        {
          "internalType": "uint32",
          "name": "rBlockTimestampLast",
          "type": "uint32"
        },
        {
          "internalType": "uint16",
          "name": "rIndex",
          "type": "uint16"
        }
      ],
      "stateMutability": "view",
      "type": "function"
    },
    {
      "inputs": [],
      "name": "kLast",
      "outputs": [
        {
          "internalType": "uint256",
          "name": "",
          "type": "uint256"
        }
      ],
      "stateMutability": "view",
      "type": "function"
    },
    {
      "inputs": [],
      "name": "maxChangeRate",
      "outputs": [
        {
          "internalType": "uint256",
          "name": "",
          "type": "uint256"
        }
      ],
      "stateMutability": "view",
      "type": "function"
    },
    {
      "inputs": [
        {
          "internalType": "address",
          "name": "aTo",
          "type": "address"
        }
      ],
      "name": "mint",
      "outputs": [
        {
          "internalType": "uint256",
          "name": "rLiquidity",
          "type": "uint256"
        }
      ],
      "stateMutability": "nonpayable",
      "type": "function"
    },
    {
      "inputs": [],
      "name": "name",
      "outputs": [
        {
          "internalType": "string",
          "name": "",
          "type": "string"
        }
      ],
      "stateMutability": "view",
      "type": "function"
    },
    {
      "inputs": [
        {
          "internalType": "address",
          "name": "",
          "type": "address"
        }
      ],
      "name": "nonces",
      "outputs": [
        {
          "internalType": "uint256",
          "name": "",
          "type": "uint256"
        }
      ],
      "stateMutability": "view",
      "type": "function"
    },
    {
      "inputs": [
        {
          "internalType": "uint256",
          "name": "aIndex",
          "type": "uint256"
        }
      ],
      "name": "observation",
      "outputs": [
        {
          "components": [
            {
              "internalType": "int112",
              "name": "logAccRawPrice",
              "type": "int112"
            },
            {
              "internalType": "int56",
              "name": "logAccClampedPrice",
              "type": "int56"
            },
            {
              "internalType": "int56",
              "name": "logAccLiquidity",
              "type": "int56"
            },
            {
              "internalType": "uint32",
              "name": "timestamp",
              "type": "uint32"
            }
          ],
          "internalType": "struct Observation",
          "name": "rObservation",
          "type": "tuple"
        }
      ],
      "stateMutability": "view",
      "type": "function"
    },
    {
      "inputs": [],
      "name": "oracleCaller",
      "outputs": [
        {
          "internalType": "address",
          "name": "",
          "type": "address"
        }
      ],
      "stateMutability": "view",
      "type": "function"
    },
    {
      "inputs": [
        {
          "internalType": "address",
          "name": "owner",
          "type": "address"
        },
        {
          "internalType": "address",
          "name": "spender",
          "type": "address"
        },
        {
          "internalType": "uint256",
          "name": "value",
          "type": "uint256"
        },
        {
          "internalType": "uint256",
          "name": "deadline",
          "type": "uint256"
        },
        {
          "internalType": "uint8",
          "name": "v",
          "type": "uint8"
        },
        {
          "internalType": "bytes32",
          "name": "r",
          "type": "bytes32"
        },
        {
          "internalType": "bytes32",
          "name": "s",
          "type": "bytes32"
        }
      ],
      "name": "permit",
      "outputs": [],
      "stateMutability": "nonpayable",
      "type": "function"
    },
    {
      "inputs": [],
      "name": "platformFee",
      "outputs": [
        {
          "internalType": "uint256",
          "name": "",
          "type": "uint256"
        }
      ],
      "stateMutability": "view",
      "type": "function"
    },
    {
      "inputs": [],
      "name": "prevClampedPrice",
      "outputs": [
        {
          "internalType": "uint256",
          "name": "",
          "type": "uint256"
        }
      ],
      "stateMutability": "view",
      "type": "function"
    },
    {
      "inputs": [
        {
          "internalType": "address",
          "name": "aToken",
          "type": "address"
        }
      ],
      "name": "recoverToken",
      "outputs": [],
      "stateMutability": "nonpayable",
      "type": "function"
    },
    {
      "inputs": [
        {
          "internalType": "uint256",
          "name": "aCustomPlatformFee",
          "type": "uint256"
        }
      ],
      "name": "setCustomPlatformFee",
      "outputs": [],
      "stateMutability": "nonpayable",
      "type": "function"
    },
    {
      "inputs": [
        {
          "internalType": "uint256",
          "name": "aCustomSwapFee",
          "type": "uint256"
        }
      ],
      "name": "setCustomSwapFee",
      "outputs": [],
      "stateMutability": "nonpayable",
      "type": "function"
    },
    {
      "inputs": [
        {
          "internalType": "contract IAssetManager",
          "name": "manager",
          "type": "address"
        }
      ],
      "name": "setManager",
      "outputs": [],
      "stateMutability": "nonpayable",
      "type": "function"
    },
    {
      "inputs": [
        {
          "internalType": "uint256",
          "name": "aMaxChangeRate",
          "type": "uint256"
        }
      ],
      "name": "setMaxChangeRate",
      "outputs": [],
      "stateMutability": "nonpayable",
      "type": "function"
    },
    {
      "inputs": [
        {
          "internalType": "address",
          "name": "aTo",
          "type": "address"
        }
      ],
      "name": "skim",
      "outputs": [],
      "stateMutability": "nonpayable",
      "type": "function"
    },
    {
      "inputs": [
        {
          "internalType": "int256",
          "name": "aAmount",
          "type": "int256"
        },
        {
          "internalType": "bool",
          "name": "aInOrOut",
          "type": "bool"
        },
        {
          "internalType": "address",
          "name": "aTo",
          "type": "address"
        },
        {
          "internalType": "bytes",
          "name": "aData",
          "type": "bytes"
        }
      ],
      "name": "swap",
      "outputs": [
        {
          "internalType": "uint256",
          "name": "rAmountOut",
          "type": "uint256"
        }
      ],
      "stateMutability": "nonpayable",
      "type": "function"
    },
    {
      "inputs": [],
      "name": "swapFee",
      "outputs": [
        {
          "internalType": "uint256",
          "name": "",
          "type": "uint256"
        }
      ],
      "stateMutability": "view",
      "type": "function"
    },
    {
      "inputs": [],
      "name": "symbol",
      "outputs": [
        {
          "internalType": "string",
          "name": "",
          "type": "string"
        }
      ],
      "stateMutability": "view",
      "type": "function"
    },
    {
      "inputs": [],
      "name": "sync",
      "outputs": [],
      "stateMutability": "nonpayable",
      "type": "function"
    },
    {
      "inputs": [],
      "name": "token0",
      "outputs": [
        {
          "internalType": "contract ERC20",
          "name": "",
          "type": "address"
        }
      ],
      "stateMutability": "view",
      "type": "function"
    },
    {
      "inputs": [],
      "name": "token0Managed",
      "outputs": [
        {
          "internalType": "uint104",
          "name": "",
          "type": "uint104"
        }
      ],
      "stateMutability": "view",
      "type": "function"
    },
    {
      "inputs": [],
      "name": "token1",
      "outputs": [
        {
          "internalType": "contract ERC20",
          "name": "",
          "type": "address"
        }
      ],
      "stateMutability": "view",
      "type": "function"
    },
    {
      "inputs": [],
      "name": "token1Managed",
      "outputs": [
        {
          "internalType": "uint104",
          "name": "",
          "type": "uint104"
        }
      ],
      "stateMutability": "view",
      "type": "function"
    },
    {
      "inputs": [],
      "name": "totalSupply",
      "outputs": [
        {
          "internalType": "uint256",
          "name": "",
          "type": "uint256"
        }
      ],
      "stateMutability": "view",
      "type": "function"
    },
    {
      "inputs": [
        {
          "internalType": "address",
          "name": "to",
          "type": "address"
        },
        {
          "internalType": "uint256",
          "name": "amount",
          "type": "uint256"
        }
      ],
      "name": "transfer",
      "outputs": [
        {
          "internalType": "bool",
          "name": "",
          "type": "bool"
        }
      ],
      "stateMutability": "nonpayable",
      "type": "function"
    },
    {
      "inputs": [
        {
          "internalType": "address",
          "name": "from",
          "type": "address"
        },
        {
          "internalType": "address",
          "name": "to",
          "type": "address"
        },
        {
          "internalType": "uint256",
          "name": "amount",
          "type": "uint256"
        }
      ],
      "name": "transferFrom",
      "outputs": [
        {
          "internalType": "bool",
          "name": "",
          "type": "bool"
        }
      ],
      "stateMutability": "nonpayable",
      "type": "function"
    },
    {
      "inputs": [],
      "name": "updateOracleCaller",
      "outputs": [],
      "stateMutability": "nonpayable",
      "type": "function"
    },
    {
      "inputs": [],
      "name": "updatePlatformFee",
      "outputs": [],
      "stateMutability": "nonpayable",
      "type": "function"
    },
    {
      "inputs": [],
      "name": "updateSwapFee",
      "outputs": [],
      "stateMutability": "nonpayable",
      "type": "function"
    }
  ],
  "bytecode": {
    "object": "0x6101a060405260006101208190526101408190526101605261ffff610180526001600160f01b0319600955600019600b819055600d553480156200004257600080fd5b5060405162005c4738038062005c4783398101604081905262000065916200090d565b81816040518060400160405280600b81526020016a43503a3a7377617046656560a81b815250604051806040016040528060128152602001712932b9b2b93b37b4b9102628102a37b5b2b760711b8152506040518060400160405280600681526020016505245532d4c560d41b81525060128260009081620000e89190620009ea565b506001620000f78382620009ea565b5060ff81166080524660a0526200010d62000374565b60c05250503360e05250600680546001600160a01b038581166001600160a01b03199283161790925560078054928516929091169190911790556040516200015a90829060200162000ab6565b60408051601f198184030181529190528051602090910120610100526200018062000410565b6200018a62000548565b600660009054906101000a90046001600160a01b03166001600160a01b031663313ce5676040518163ffffffff1660e01b8152600401602060405180830381865afa158015620001de573d6000803e3d6000fd5b505050506040513d601f19601f8201168201806040525081019062000204919062000ae7565b6200021190601262000b29565b6200021e90600a62000c83565b600880546001600160801b0319166001600160801b03929092169190911790556007546040805163313ce56760e01b815290516001600160a01b039092169163313ce567916004808201926020929091908290030181865afa15801562000289573d6000803e3d6000fd5b505050506040513d601f19601f82011682018060405250810190620002af919062000ae7565b620002bc90601262000b29565b620002c990600a62000c83565b600880546001600160801b03928316600160801b029216919091179055620002f062000663565b6200036962000363620003526040518060400160405280601581526020017f5368617265643a3a6d61784368616e676552617465000000000000000000000081525060e0516001600160a01b03166200074860201b620027f01790919060201c565b620007ee60201b62000a541760201c565b620007f1565b505050505062000d35565b60007f8b73c3c69bb8fe3d512ecc4cf759cc79239f7b179b0ffacaa9a75d522b39400f6000604051620003a8919062000c9d565b6040805191829003822060208301939093528101919091527fc89efdaa54c0f20c7adf612882df0950f5a951637e0307cdcb4c672f298b8bc660608201524660808201523060a082015260c00160405160208183030381529060405280519060200120905090565b6000600019600b54036200049c5760e0516101005160405163023aa9ab60e61b8152600481019190915262000496916001600160a01b031690638eaa6ac090602401602060405180830381865afa15801562000470573d6000803e3d6000fd5b505050506040513d601f19601f8201168201806040525081019062000352919062000d1b565b620004a0565b600b545b9050600a548103620004af5750565b614e20811115620005075760405162461bcd60e51b815260206004820152601360248201527f503a20494e56414c49445f535741505f4645450000000000000000000000000060448201526064015b60405180910390fd5b600a5460408051918252602082018390527fad321f810529281bbb90384fd6fecbdda41509a5ccd7bd5aed986ed827f6a026910160405180910390a1600a55565b6000600019600d5403620005ba57620005b4620003526040518060400160405280601381526020017f5368617265643a3a706c6174666f726d4665650000000000000000000000000081525060e0516001600160a01b03166200074860201b620027f01790919060201c565b620005be565b600d545b9050600c548103620005cd5750565b6207a120811115620006225760405162461bcd60e51b815260206004820152601760248201527f503a20494e56414c49445f504c4154464f524d5f4645450000000000000000006044820152606401620004fe565b600c5460408051918252602082018390527fc98a8b10b63c929f7799380bb4a0c444c713ebf74d8732f944c915034121aad1910160405180910390a1600c55565b6000620006c3620003526040518060400160405280601481526020017f5368617265643a3a6f7261636c6543616c6c657200000000000000000000000081525060e0516001600160a01b03166200074860201b620027f01790919060201c565b62010012549091506001600160a01b0380831691161462000745576201001254604080516001600160a01b03928316815291831660208301527f262681b3b01b61ff6d02569759105771205cdd274fb3c45535b50632e0a3523f910160405180910390a16201001280546001600160a01b0319166001600160a01b0383161790555b50565b6000826001600160a01b0316638eaa6ac0836040516020016200076c919062000ab6565b604051602081830303815290604052805190602001206040518263ffffffff1660e01b8152600401620007a191815260200190565b602060405180830381865afa158015620007bf573d6000803e3d6000fd5b505050506040513d601f19601f82011682018060405250810190620007e5919062000d1b565b90505b92915050565b90565b60e0516001600160a01b0316336001600160a01b031614620008455760405162461bcd60e51b815260206004820152600c60248201526b281d102327a92124a22222a760a11b6044820152606401620004fe565b8060001080156200085d5750662386f26fc100008111155b620008ab5760405162461bcd60e51b815260206004820152601d60248201527f4f573a20494e56414c49445f4348414e47455f5045525f5345434f4e440000006044820152606401620004fe565b620100105460408051918252602082018390527f807b9f5907da3f00bf587e77bc07247e1c7ff5ae46c93a584b3a075be0b1bac2910160405180910390a16201001055565b80516001600160a01b03811681146200090857600080fd5b919050565b600080604083850312156200092157600080fd5b6200092c83620008f0565b91506200093c60208401620008f0565b90509250929050565b634e487b7160e01b600052604160045260246000fd5b600181811c908216806200097057607f821691505b6020821081036200099157634e487b7160e01b600052602260045260246000fd5b50919050565b601f821115620009e557600081815260208120601f850160051c81016020861015620009c05750805b601f850160051c820191505b81811015620009e157828155600101620009cc565b5050505b505050565b81516001600160401b0381111562000a065762000a0662000945565b62000a1e8162000a1784546200095b565b8462000997565b602080601f83116001811462000a56576000841562000a3d5750858301515b600019600386901b1c1916600185901b178555620009e1565b600085815260208120601f198616915b8281101562000a875788860151825594840194600190910190840162000a66565b508582101562000aa65787850151600019600388901b60f8161c191681555b5050505050600190811b01905550565b6000825160005b8181101562000ad9576020818601810151858301520162000abd565b506000920191825250919050565b60006020828403121562000afa57600080fd5b815160ff8116811462000b0c57600080fd5b9392505050565b634e487b7160e01b600052601160045260246000fd5b60ff8281168282160390811115620007e857620007e862000b13565b600181815b8085111562000b8c576001600160801b0382900482111562000b705762000b7062000b13565b8085161562000b7e57918102915b93841c939080029062000b4a565b509250929050565b60008262000ba557506001620007e8565b8162000bb457506000620007e8565b816001811462000bcd576002811462000bd85762000c13565b6001915050620007e8565b60ff84111562000bec5762000bec62000b13565b6001841b91506001600160801b0382111562000c0c5762000c0c62000b13565b50620007e8565b5060208310610133831016604e8410600b841016171562000c52575081810a6001600160801b0381111562000c4c5762000c4c62000b13565b620007e8565b62000c5e838362000b45565b6001600160801b0381900482111562000c7b5762000c7b62000b13565b029392505050565b6000620007e560ff84166001600160801b03841662000b94565b600080835462000cad816200095b565b6001828116801562000cc8576001811462000cde5762000d0f565b60ff198416875282151583028701945062000d0f565b8760005260208060002060005b8581101562000d065781548a82015290840190820162000ceb565b50505082870194505b50929695505050505050565b60006020828403121562000d2e57600080fd5b5051919050565b60805160a05160c05160e05161010051614e8e62000db960003960006109aa015260008181610756015281816109d401528181610ca401528181610e1d0152818161133d0152818161179d01528181611b8f01528181611d09015281816122040152612f2901526000610de301526000610dae015260006104ab0152614e8e6000f3fe608060405234801561001057600080fd5b50600436106103205760003560e01c80639568e73b116101a7578063c45a0155116100ee578063dbc781bc11610097578063e9bdf7b811610071578063e9bdf7b814610817578063fbcd9b0514610830578063fff6cae91461084757600080fd5b8063dbc781bc146107d1578063dd62ed3e146107d9578063e12bd9d81461080457600080fd5b8063d21220a7116100c8578063d21220a714610794578063d505accf146107b4578063db6488dc146107c757600080fd5b8063c45a015514610751578063c58771ef14610778578063d0ebdbe71461078157600080fd5b8063ab3d854411610150578063b62221e01161012a578063b62221e014610713578063ba9a7a5614610735578063bc25cf771461073e57600080fd5b8063ab3d8544146106af578063ad7853e9146106b8578063afb4a43b1461070057600080fd5b80639be65a60116101815780639be65a601461062f5780639d62a69414610642578063a9059cbb1461069c57600080fd5b80639568e73b1461060157806395d89b411461061457806397e377641461061c57600080fd5b806348ee43321161026b5780637464fc3d1161021457806385faf624116101ee57806385faf624146105ae57806389afcb44146105b957806394217ad1146105e157600080fd5b80637464fc3d1461057a5780637c3cbc7c146105855780637ecebe001461058e57600080fd5b806354cf2aeb1161024557806354cf2aeb1461053e5780636a6278421461054757806370a082311461055a57600080fd5b806348ee4332146104f9578063495bc0fb146105205780634dfa1ff91461052b57600080fd5b806323b872dd116102cd57806331c49074116102a757806331c49074146104df5780633644e515146104e75780633998a681146104ef57600080fd5b806323b872dd1461048a57806326232a2e1461049d578063313ce567146104a657600080fd5b80630c472afd116102fe5780630c472afd146104245780630dfe16811461042e57806318160ddd1461047357600080fd5b806306fdde03146103255780630902f1ac14610343578063095ea7b314610401575b600080fd5b61032d61084f565b60405161033a9190614858565b60405180910390f35b60408051608080820183526009546cffffffffffffffffffffffffff8082168085526d0100000000000000000000000000830490911660208086018290527a010000000000000000000000000000000000000000000000000000840463ffffffff8116878901527e0100000000000000000000000000000000000000000000000000000000000090940461ffff166060968701819052875193845290830191909152637fffffff90921694810194909452918301919091520161033a565b61041461040f3660046148cb565b6108dd565b604051901515815260200161033a565b61042c610957565b005b60065461044e9073ffffffffffffffffffffffffffffffffffffffff1681565b60405173ffffffffffffffffffffffffffffffffffffffff909116815260200161033a565b61047c60025481565b60405190815260200161033a565b6104146104983660046148f7565b610b20565b61047c600c5481565b6104cd7f000000000000000000000000000000000000000000000000000000000000000081565b60405160ff909116815260200161033a565b61042c610c64565b61047c610daa565b61047c6207a12081565b61047c7f161bcca7119915b50764b4abe86529797775a5f171951000000000000000000081565b61047c620100115481565b61042c610539366004614938565b610e05565b61047c600a5481565b61047c610555366004614951565b610f66565b61047c610568366004614951565b60036020526000908152604090205481565b61047c620100135481565b61047c600d5481565b61047c61059c366004614951565b60056020526000908152604090205481565b61047c620100105481565b6105cc6105c7366004614951565b6111b7565b6040805192835260208301919091520161033a565b600e5461044e9073ffffffffffffffffffffffffffffffffffffffff1681565b61042c61060f366004614938565b611325565b61032d61140d565b61042c61062a36600461496e565b61141a565b61042c61063d366004614951565b61175d565b610655610650366004614938565b6119b0565b60405161033a919060006080820190508251600d0b8252602083015160060b6020830152604083015160060b604083015263ffffffff606084015116606083015292915050565b6104146106aa3660046148cb565b611af2565b61047c614e2081565b600f546106e2906d010000000000000000000000000090046cffffffffffffffffffffffffff1681565b6040516cffffffffffffffffffffffffff909116815260200161033a565b61042c61070e366004614938565b611b77565b620100125461044e9073ffffffffffffffffffffffffffffffffffffffff1681565b61047c6103e881565b61042c61074c366004614951565b611c5f565b61044e7f000000000000000000000000000000000000000000000000000000000000000081565b61047c600b5481565b61042c61078f366004614951565b611cf1565b60075461044e9073ffffffffffffffffffffffffffffffffffffffff1681565b61042c6107c2366004614990565b611e7c565b61047c620f424081565b61042c61219b565b61047c6107e7366004614a07565b600460209081526000928352604080842090915290825290205481565b61047c610812366004614a43565b61230c565b600f546106e2906cffffffffffffffffffffffffff1681565b61047c6f4b3b4ca85a86c47a098a22400000000081565b61042c612794565b6000805461085c90614ae2565b80601f016020809104026020016040519081016040528092919081815260200182805461088890614ae2565b80156108d55780601f106108aa576101008083540402835291602001916108d5565b820191906000526020600020905b8154815290600101906020018083116108b857829003601f168201915b505050505081565b33600081815260046020908152604080832073ffffffffffffffffffffffffffffffffffffffff8716808552925280832085905551919290917f8c5be1e5ebec7d5bd14f71427d1e84f3dd0314c0f7b2291e5b200ac8c7c3b925906109459086815260200190565b60405180910390a35060015b92915050565b60007fffffffffffffffffffffffffffffffffffffffffffffffffffffffffffffffff600b5403610a5c576040517f8eaa6ac00000000000000000000000000000000000000000000000000000000081527f00000000000000000000000000000000000000000000000000000000000000006004820152610a57907f000000000000000000000000000000000000000000000000000000000000000073ffffffffffffffffffffffffffffffffffffffff1690638eaa6ac090602401602060405180830381865afa158015610a30573d6000803e3d6000fd5b505050506040513d601f19601f82011682018060405250810190610a549190614b35565b90565b610a60565b600b545b9050600a548103610a6e5750565b614e20811115610adf576040517f08c379a000000000000000000000000000000000000000000000000000000000815260206004820152601360248201527f503a20494e56414c49445f535741505f4645450000000000000000000000000060448201526064015b60405180910390fd5b600a5460408051918252602082018390527fad321f810529281bbb90384fd6fecbdda41509a5ccd7bd5aed986ed827f6a026910160405180910390a1600a55565b73ffffffffffffffffffffffffffffffffffffffff831660009081526004602090815260408083203384529091528120547fffffffffffffffffffffffffffffffffffffffffffffffffffffffffffffffff8114610bb457610b828382614b7d565b73ffffffffffffffffffffffffffffffffffffffff861660009081526004602090815260408083203384529091529020555b73ffffffffffffffffffffffffffffffffffffffff851660009081526003602052604081208054859290610be9908490614b7d565b909155505073ffffffffffffffffffffffffffffffffffffffff808516600081815260036020526040908190208054870190555190918716907fddf252ad1be2c89b69c2b068fc378daa952ba7f163c4a11628f55a4df523b3ef90610c519087815260200190565b60405180910390a3506001949350505050565b6000610ce7610a546040518060400160405280601481526020017f5368617265643a3a6f7261636c6543616c6c65720000000000000000000000008152507f000000000000000000000000000000000000000000000000000000000000000073ffffffffffffffffffffffffffffffffffffffff166127f090919063ffffffff16565b620100125490915073ffffffffffffffffffffffffffffffffffffffff808316911614610da75762010012546040805173ffffffffffffffffffffffffffffffffffffffff928316815291831660208301527f262681b3b01b61ff6d02569759105771205cdd274fb3c45535b50632e0a3523f910160405180910390a16201001280547fffffffffffffffffffffffff00000000000000000000000000000000000000001673ffffffffffffffffffffffffffffffffffffffff83161790555b50565b60007f00000000000000000000000000000000000000000000000000000000000000004614610de057610ddb61289b565b905090565b507f000000000000000000000000000000000000000000000000000000000000000090565b3373ffffffffffffffffffffffffffffffffffffffff7f00000000000000000000000000000000000000000000000000000000000000001614610ea4576040517f08c379a000000000000000000000000000000000000000000000000000000000815260206004820152600c60248201527f503a20464f5242494444454e00000000000000000000000000000000000000006044820152606401610ad6565b806000108015610ebb5750662386f26fc100008111155b610f21576040517f08c379a000000000000000000000000000000000000000000000000000000000815260206004820152601d60248201527f4f573a20494e56414c49445f4348414e47455f5045525f5345434f4e440000006044820152606401610ad6565b620100105460408051918252602082018390527f807b9f5907da3f00bf587e77bc07247e1c7ff5ae46c93a584b3a075be0b1bac2910160405180910390a16201001055565b600080600080610f74612935565b506cffffffffffffffffffffffffff9283169550911692509050610f988383612a5b565b90935091506000610fa7612ce7565b90506000610fb3612d98565b90506000610fc18684614b7d565b90506000610fcf8684614b7d565b9050610fdb8787612e13565b5060025460008190036110a2576103e8611084610ff88486614b90565b70ffffffffffffffffffffffffffffffffff811160071b81811c68ffffffffffffffffff1060061b1781811c64ffffffffff1060051b1781811c62ffffff1060041b1781811c620100000160b5600192831c1b0260121c80830401811c80830401811c80830401811c80830401811c80830401811c80830401811c80830401901c908190048111900390565b61108e9190614b7d565b985061109d60006103e8612fa0565b6110d7565b6110d4886110b08386614b90565b6110ba9190614bd6565b886110c58486614b90565b6110cf9190614bd6565b613019565b98505b60008911611141576040517f08c379a000000000000000000000000000000000000000000000000000000000815260206004820152601b60248201527f43503a20494e53554646494349454e545f4c49515f4d494e54454400000000006044820152606401610ad6565b61114b8a8a612fa0565b6111558486614b90565b6201001355604080518481526020810184905233917f4c209b5fc8ad50758f13e2e1088ba56a560dff690a1c6fef26394f4c03821c4f910160405180910390a26111a285858a8a8a61302f565b6111aa61323b565b5050505050505050919050565b60008060008060006111c7612935565b506cffffffffffffffffffffffffff92831695509116925090506111eb8383612a5b565b30600090815260036020526040902054919450925061120a8484612e13565b5060025480611217612ce7565b6112219084614b90565b61122b9190614bd6565b965080611236612d98565b6112409084614b90565b61124a9190614bd6565b955061125630836132d8565b60065461127c9073ffffffffffffffffffffffffffffffffffffffff1689898888613366565b6007546112a29073ffffffffffffffffffffffffffffffffffffffff1689888888613366565b60006112ac612ce7565b905060006112b8612d98565b90506112c48183614b90565b6201001355604080518a8152602081018a905233917f49995e5dd6158cf69ad3e9777c46755a1a826a446c6416992167462dad033b2a910160405180910390a2611311828289898961302f565b61131961323b565b50505050505050915091565b3373ffffffffffffffffffffffffffffffffffffffff7f000000000000000000000000000000000000000000000000000000000000000016146113c4576040517f08c379a000000000000000000000000000000000000000000000000000000000815260206004820152600c60248201527f503a20464f5242494444454e00000000000000000000000000000000000000006044820152606401610ad6565b600b5460408051918252602082018390527f27f958341e42705d80835b6391cbe111df34533c7061beebb873bdb3454cc697910160405180910390a1600b819055610da7610957565b6001805461085c90614ae2565b600e5473ffffffffffffffffffffffffffffffffffffffff16331461149b576040517f08c379a000000000000000000000000000000000000000000000000000000000815260206004820152601560248201527f414d503a20415554485f4e4f545f4d414e4147455200000000000000000000006044820152606401610ad6565b60008213156115475760006114af836135b8565b600f805491925082916000906114d59084906cffffffffffffffffffffffffff16614bea565b92506101000a8154816cffffffffffffffffffffffffff02191690836cffffffffffffffffffffffffff160217905550611541600660009054906101000a900473ffffffffffffffffffffffffffffffffffffffff1633836cffffffffffffffffffffffffff1661365b565b506115f8565b60008212156115f857600061156361155e84614c17565b6135b8565b600f805491925082916000906115899084906cffffffffffffffffffffffffff16614c4f565b92506101000a8154816cffffffffffffffffffffffffff02191690836cffffffffffffffffffffffffff1602179055506115f6600660009054906101000a900473ffffffffffffffffffffffffffffffffffffffff163330846cffffffffffffffffffffffffff166136a4565b505b60008113156116a957600061160c826135b8565b905080600f600d8282829054906101000a90046cffffffffffffffffffffffffff166116389190614bea565b92506101000a8154816cffffffffffffffffffffffffff02191690836cffffffffffffffffffffffffff1602179055506116a4600760009054906101000a900473ffffffffffffffffffffffffffffffffffffffff1633836cffffffffffffffffffffffffff1661365b565b505050565b60008112156117595760006116c061155e83614c17565b905080600f600d8282829054906101000a90046cffffffffffffffffffffffffff166116ec9190614c4f565b92506101000a8154816cffffffffffffffffffffffffff02191690836cffffffffffffffffffffffffff1602179055506116a4600760009054906101000a900473ffffffffffffffffffffffffffffffffffffffff163330846cffffffffffffffffffffffffff166136a4565b5050565b60006117e0610a546040518060400160405280601881526020017f5368617265643a3a64656661756c745265636f766572657200000000000000008152507f000000000000000000000000000000000000000000000000000000000000000073ffffffffffffffffffffffffffffffffffffffff166127f090919063ffffffff16565b60065490915073ffffffffffffffffffffffffffffffffffffffff838116911614801590611829575060075473ffffffffffffffffffffffffffffffffffffffff838116911614155b61188f576040517f08c379a000000000000000000000000000000000000000000000000000000000815260206004820152601b60248201527f503a20494e56414c49445f544f4b454e5f544f5f5245434f56455200000000006044820152606401610ad6565b73ffffffffffffffffffffffffffffffffffffffff811661190c576040517f08c379a000000000000000000000000000000000000000000000000000000000815260206004820152601960248201527f503a205245434f56455245525f5a45524f5f41444452455353000000000000006044820152606401610ad6565b6040517f70a0823100000000000000000000000000000000000000000000000000000000815230600482015260009073ffffffffffffffffffffffffffffffffffffffff8416906370a0823190602401602060405180830381865afa158015611979573d6000803e3d6000fd5b505050506040513d601f19601f8201168201806040525081019061199d9190614b35565b90506119aa8383836136f2565b50505050565b604080516080810182526000808252602082018190529181018290526060810191909152620100125473ffffffffffffffffffffffffffffffffffffffff163314611a57576040517f08c379a000000000000000000000000000000000000000000000000000000000815260206004820152601560248201527f4f573a204e4f545f4f5241434c455f43414c4c455200000000000000000000006044820152606401610ad6565b601082620100008110611a6c57611a6c614c75565b604080516080810182529290910154600d81900b83526e0100000000000000000000000000008104600690810b602085015275010000000000000000000000000000000000000000008204900b9183019190915263ffffffff7c010000000000000000000000000000000000000000000000000000000090910416606082015292915050565b33600090815260036020526040812080548391908390611b13908490614b7d565b909155505073ffffffffffffffffffffffffffffffffffffffff8316600081815260036020526040908190208054850190555133907fddf252ad1be2c89b69c2b068fc378daa952ba7f163c4a11628f55a4df523b3ef906109459086815260200190565b3373ffffffffffffffffffffffffffffffffffffffff7f00000000000000000000000000000000000000000000000000000000000000001614611c16576040517f08c379a000000000000000000000000000000000000000000000000000000000815260206004820152600c60248201527f503a20464f5242494444454e00000000000000000000000000000000000000006044820152606401610ad6565b600d5460408051918252602082018390527fe044af8ebdaeeed3e95065fac857c503c7eabb71acfbcdcb7823ec6ca603c26e910160405180910390a1600d819055610da761219b565b6000806000611c6c612935565b506006546cffffffffffffffffffffffffff9384169650919092169350909150611cc19073ffffffffffffffffffffffffffffffffffffffff168585611cb0612ce7565b611cba9190614b7d565b8686613366565b600754611ce89073ffffffffffffffffffffffffffffffffffffffff168584611cb0612d98565b6119aa81613862565b3373ffffffffffffffffffffffffffffffffffffffff7f00000000000000000000000000000000000000000000000000000000000000001614611d90576040517f08c379a000000000000000000000000000000000000000000000000000000000815260206004820152600c60248201527f503a20464f5242494444454e00000000000000000000000000000000000000006044820152606401610ad6565b600f546cffffffffffffffffffffffffff16158015611dcf5750600f546d010000000000000000000000000090046cffffffffffffffffffffffffff16155b611e35576040517f08c379a000000000000000000000000000000000000000000000000000000000815260206004820152601460248201527f414d503a20414d5f5354494c4c5f4143544956450000000000000000000000006044820152606401610ad6565b600e80547fffffffffffffffffffffffff00000000000000000000000000000000000000001673ffffffffffffffffffffffffffffffffffffffff92909216919091179055565b42841015611ee6576040517f08c379a000000000000000000000000000000000000000000000000000000000815260206004820152601760248201527f5045524d49545f444541444c494e455f455850495245440000000000000000006044820152606401610ad6565b60006001611ef2610daa565b73ffffffffffffffffffffffffffffffffffffffff8a811660008181526005602090815260409182902080546001810190915582517f6e71edae12b1b97f4d1f60370fef10105fa2faae0126114a169c64845d6126c98184015280840194909452938d166060840152608083018c905260a083019390935260c08083018b90528151808403909101815260e0830190915280519201919091207f190100000000000000000000000000000000000000000000000000000000000061010083015261010282019290925261012281019190915261014201604080517fffffffffffffffffffffffffffffffffffffffffffffffffffffffffffffffe08184030181528282528051602091820120600084529083018083525260ff871690820152606081018590526080810184905260a0016020604051602081039080840390855afa158015612044573d6000803e3d6000fd5b50506040517fffffffffffffffffffffffffffffffffffffffffffffffffffffffffffffffe0015191505073ffffffffffffffffffffffffffffffffffffffff8116158015906120bf57508773ffffffffffffffffffffffffffffffffffffffff168173ffffffffffffffffffffffffffffffffffffffff16145b612125576040517f08c379a000000000000000000000000000000000000000000000000000000000815260206004820152600e60248201527f494e56414c49445f5349474e45520000000000000000000000000000000000006044820152606401610ad6565b73ffffffffffffffffffffffffffffffffffffffff90811660009081526004602090815260408083208a8516808552908352928190208990555188815291928a16917f8c5be1e5ebec7d5bd14f71427d1e84f3dd0314c0f7b2291e5b200ac8c7c3b925910160405180910390a350505050505050565b60007fffffffffffffffffffffffffffffffffffffffffffffffffffffffffffffffff600d540361224c57612247610a546040518060400160405280601381526020017f5368617265643a3a706c6174666f726d466565000000000000000000000000008152507f000000000000000000000000000000000000000000000000000000000000000073ffffffffffffffffffffffffffffffffffffffff166127f090919063ffffffff16565b612250565b600d545b9050600c54810361225e5750565b6207a1208111156122cb576040517f08c379a000000000000000000000000000000000000000000000000000000000815260206004820152601760248201527f503a20494e56414c49445f504c4154464f524d5f4645450000000000000000006044820152606401610ad6565b600c5460408051918252602082018390527fc98a8b10b63c929f7799380bb4a0c444c713ebf74d8732f944c915034121aad1910160405180910390a1600c55565b60008060008061231a612935565b5092506cffffffffffffffffffffffffff1692506cffffffffffffffffffffffffff169250886000036123a9576040517f08c379a000000000000000000000000000000000000000000000000000000000815260206004820152600f60248201527f43503a20414d4f554e545f5a45524f00000000000000000000000000000000006044820152606401610ad6565b60008089156124255760008b13156123f2575050600754600a548a9173ffffffffffffffffffffffffffffffffffffffff16906123eb9083908790879061386d565b9550612576565b5060065473ffffffffffffffffffffffffffffffffffffffff166124158b614c17565b91506123eb828587600a5461386d565b60008b13156124d0578a955084861061249a576040517f08c379a000000000000000000000000000000000000000000000000000000000815260206004820152601260248201527f43503a204e4f545f454e4f5547485f4c495100000000000000000000000000006044820152606401610ad6565b50600654600a5473ffffffffffffffffffffffffffffffffffffffff909116906124c9908790869088906139a9565b9150612576565b6124d98b614c17565b9550838610612544576040517f08c379a000000000000000000000000000000000000000000000000000000000815260206004820152601260248201527f43503a204e4f545f454e4f5547485f4c495100000000000000000000000000006044820152606401610ad6565b50600754600a5473ffffffffffffffffffffffffffffffffffffffff90911690612573908790879087906139a9565b91505b612583818a888888613366565b861561264e5760065473ffffffffffffffffffffffffffffffffffffffff808b1691634fc7c2179133918582169116146125c5576125c085614c17565b6125c7565b885b60075473ffffffffffffffffffffffffffffffffffffffff8681169116146125f7576125f286614c17565b6125f9565b895b8c8c6040518663ffffffff1660e01b815260040161261b959493929190614ca4565b600060405180830381600087803b15801561263557600080fd5b505af1158015612649573d6000803e3d6000fd5b505050505b6000612658612ce7565b90506000612664612d98565b60065490915060009073ffffffffffffffffffffffffffffffffffffffff85811691161461269b576126968884614b7d565b6126a5565b6126a58783614b7d565b905080851115612711576040517f08c379a000000000000000000000000000000000000000000000000000000000815260206004820152601a60248201527f43503a20494e53554646494349454e545f414d4f554e545f494e0000000000006044820152606401610ad6565b61271e83838a8a8a61302f565b6007546040805173ffffffffffffffffffffffffffffffffffffffff928316878416148152602081018490529081018b9052908d169033907f66251e495e6e69e208ab08e2bc259dbe2ef482a8c4a93b8984b03a1eb27e1b9e9060600160405180910390a3505050505050505095945050505050565b60008060006127a1612935565b5092506cffffffffffffffffffffffffff1692506cffffffffffffffffffffffffff1692506127d08383612a5b565b90935091506116a46127e0612ce7565b6127e8612d98565b85858561302f565b60008273ffffffffffffffffffffffffffffffffffffffff16638eaa6ac08360405160200161281f9190614d1c565b604051602081830303815290604052805190602001206040518263ffffffff1660e01b815260040161285391815260200190565b602060405180830381865afa158015612870573d6000803e3d6000fd5b505050506040513d601f19601f820116820180604052508101906128949190614b35565b9392505050565b60007f8b73c3c69bb8fe3d512ecc4cf759cc79239f7b179b0ffacaa9a75d522b39400f60006040516128cd9190614d38565b6040805191829003822060208301939093528101919091527fc89efdaa54c0f20c7adf612882df0950f5a951637e0307cdcb4c672f298b8bc660608201524660808201523060a082015260c00160405160208183030381529060405280519060200120905090565b604080516080810182526009546cffffffffffffffffffffffffff8082168084526d01000000000000000000000000008304909116602084018190527a010000000000000000000000000000000000000000000000000000830463ffffffff8116958501959095527e0100000000000000000000000000000000000000000000000000000000000090920461ffff166060840181905290939192637fffffff831692601f1c6001908116148015612a48576040517f08c379a000000000000000000000000000000000000000000000000000000000815260206004820152600a60248201527f5245454e5452414e4359000000000000000000000000000000000000000000006044820152606401610ad6565b612a53846001613aeb565b505090919293565b600e54600090819073ffffffffffffffffffffffffffffffffffffffff16612a87575082905081612ce0565b600e546006546040517fd4fac45d00000000000000000000000000000000000000000000000000000000815230600482015273ffffffffffffffffffffffffffffffffffffffff9182166024820152600092919091169063d4fac45d906044016020604051808303816000875af1158015612b06573d6000803e3d6000fd5b505050506040513d601f19601f82011682018060405250810190612b2a9190614b35565b600e546007546040517fd4fac45d00000000000000000000000000000000000000000000000000000000815230600482015273ffffffffffffffffffffffffffffffffffffffff918216602482015292935060009291169063d4fac45d906044016020604051808303816000875af1158015612baa573d6000803e3d6000fd5b505050506040513d601f19601f82011682018060405250810190612bce9190614b35565b600654600f54919250612c0b9173ffffffffffffffffffffffffffffffffffffffff9091169088906cffffffffffffffffffffffffff1685613b59565b600754600f54919550612c599173ffffffffffffffffffffffffffffffffffffffff9091169087906d010000000000000000000000000090046cffffffffffffffffffffffffff1684613b59565b9250612c64826135b8565b600f80547fffffffffffffffffffffffffffffffffffffff00000000000000000000000000166cffffffffffffffffffffffffff92909216919091179055612cab816135b8565b600f600d6101000a8154816cffffffffffffffffffffffffff02191690836cffffffffffffffffffffffffff16021790555050505b9250929050565b600f546006546040517f70a082310000000000000000000000000000000000000000000000000000000081523060048201526000926cffffffffffffffffffffffffff169173ffffffffffffffffffffffffffffffffffffffff16906370a08231906024015b602060405180830381865afa158015612d6a573d6000803e3d6000fd5b505050506040513d601f19601f82011682018060405250810190612d8e9190614b35565b610ddb9190614e0e565b600f546007546040517f70a082310000000000000000000000000000000000000000000000000000000081523060048201526000926d010000000000000000000000000090046cffffffffffffffffffffffffff169173ffffffffffffffffffffffffffffffffffffffff16906370a0823190602401612d4d565b600c5415801590612f89576000612eb4620100135470ffffffffffffffffffffffffffffffffff811160071b81811c68ffffffffffffffffff1060061b1781811c64ffffffffff1060051b1781811c62ffffff1060041b1781811c620100000160b5600192831c1b0260121c80830401811c80830401811c80830401811c80830401811c80830401811c80830401811c80830401901c908190048111900390565b90508015612f83576000612ecb610ff88587614b90565b905081811115612f81576000612ee78284600c54600254613c4e565b90506000612f6c610a546040518060400160405280601581526020017f5368617265643a3a706c6174666f726d466565546f00000000000000000000008152507f000000000000000000000000000000000000000000000000000000000000000073ffffffffffffffffffffffffffffffffffffffff166127f090919063ffffffff16565b90508115612f7e57612f7e8183612fa0565b50505b505b50610951565b620100135415610951576000620100135592915050565b8060026000828254612fb29190614e0e565b909155505073ffffffffffffffffffffffffffffffffffffffff82166000818152600360209081526040808320805486019055518481527fddf252ad1be2c89b69c2b068fc378daa952ba7f163c4a11628f55a4df523b3ef91015b60405180910390a35050565b60008183106130285781612894565b5090919050565b6cffffffffffffffffffffffffff851180159061305957506cffffffffffffffffffffffffff8411155b6130bf576040517f08c379a000000000000000000000000000000000000000000000000000000000815260206004820152600c60248201527f52503a204f564552464c4f5700000000000000000000000000000000000000006044820152606401610ad6565b6cffffffffffffffffffffffffff83118015906130e957506cffffffffffffffffffffffffff8211155b61314f576040517f08c379a000000000000000000000000000000000000000000000000000000000815260206004820152600c60248201527f52503a204f564552464c4f5700000000000000000000000000000000000000006044820152606401610ad6565b6000613159613cf7565b905081810363ffffffff81161580159061317257508415155b801561317d57508315155b1561318e5761318e85858386613d07565b600980546cffffffffffffffffffffffffff8881166d0100000000000000000000000000027fffffffffffff0000000000000000000000000000000000000000000000000000909216908a16171790556131e9826000613aeb565b604080516cffffffffffffffffffffffffff808a168252881660208201527fff388a12130349259b5ae24af90448f511c2340be808f2c371230fc2da175c44910160405180910390a150505050505050565b600e5473ffffffffffffffffffffffffffffffffffffffff1661325a57565b600e60009054906101000a900473ffffffffffffffffffffffffffffffffffffffff1673ffffffffffffffffffffffffffffffffffffffff1663016312bd6040518163ffffffff1660e01b8152600401600060405180830381600087803b1580156132c457600080fd5b505af11580156119aa573d6000803e3d6000fd5b73ffffffffffffffffffffffffffffffffffffffff82166000908152600360205260408120805483929061330d908490614b7d565b909155505060028054829003905560405181815260009073ffffffffffffffffffffffffffffffffffffffff8416907fddf252ad1be2c89b69c2b068fc378daa952ba7f163c4a11628f55a4df523b3ef9060200161300d565b6133718585856136f2565b6135b15760065460009073ffffffffffffffffffffffffffffffffffffffff8781169116146133c257600f546d010000000000000000000000000090046cffffffffffffffffffffffffff166133d5565b600f546cffffffffffffffffffffffffff165b6006546cffffffffffffffffffffffffff91909116915060009073ffffffffffffffffffffffffffffffffffffffff8881169116146134145782613416565b835b9050846134238383614b7d565b101561354c57600e5460065473ffffffffffffffffffffffffffffffffffffffff91821691631566d96d918a821691161461345e8585614b7d565b6134689089614b7d565b6040517fffffffff0000000000000000000000000000000000000000000000000000000060e085901b16815291151560048301526024820152604401600060405180830381600087803b1580156134be57600080fd5b505af11580156134d2573d6000803e3d6000fd5b505050506134e18787876136f2565b613547576040517f08c379a000000000000000000000000000000000000000000000000000000000815260206004820152601360248201527f52503a205452414e534645525f4641494c4544000000000000000000000000006044820152606401610ad6565b6135ae565b6040517f08c379a000000000000000000000000000000000000000000000000000000000815260206004820152601360248201527f52503a205452414e534645525f4641494c4544000000000000000000000000006044820152606401610ad6565b50505b5050505050565b60006cffffffffffffffffffffffffff821115613657576040517f08c379a000000000000000000000000000000000000000000000000000000000815260206004820152602760248201527f53616665436173743a2076616c756520646f65736e27742066697420696e203160448201527f30342062697473000000000000000000000000000000000000000000000000006064820152608401610ad6565b5090565b81601a5280603a5269a9059cbb00000000000060005260206000604460166000875af13d15600160005114171661369a576390b8ec186000526004601cfd5b6000603a52505050565b6040516323b872dd600052836020528260405281606052602060006064601c6000895af13d1560016000511417166136e457637939f4246000526004601cfd5b600060605260405250505050565b60008060008573ffffffffffffffffffffffffffffffffffffffff167fa9059cbb2ab09eb219583f4a59a5d0623ade346d962bcd4e46b11da047c9049b868660405160240161376392919073ffffffffffffffffffffffffffffffffffffffff929092168252602082015260400190565b604080517fffffffffffffffffffffffffffffffffffffffffffffffffffffffffffffffe08184030181529181526020820180517bffffffffffffffffffffffffffffffffffffffffffffffffffffffff167fffffffff000000000000000000000000000000000000000000000000000000009094169390931790925290516137ec9190614d1c565b6000604051808303816000865af19150503d8060008114613829576040519150601f19603f3d011682016040523d82523d6000602084013e61382e565b606091505b50915091508180156138585750805115806138585750808060200190518101906138589190614e21565b9695505050505050565b610da7816000613aeb565b60008085116138d8576040517f08c379a000000000000000000000000000000000000000000000000000000000815260206004820152601d60248201527f43503a20494e53554646494349454e545f494e5055545f414d4f554e540000006044820152606401610ad6565b6000841180156138e85750600083115b61394e576040517f08c379a000000000000000000000000000000000000000000000000000000000815260206004820152601a60248201527f43503a20494e53554646494349454e545f4c49515549444954590000000000006044820152606401610ad6565b600061395d83620f4240614b7d565b6139679087614b90565b905060006139758583614b90565b9050600082613987620f424089614b90565b6139919190614e0e565b905061399d8183614bd6565b98975050505050505050565b6000808511613a14576040517f08c379a000000000000000000000000000000000000000000000000000000000815260206004820152601e60248201527f43503a20494e53554646494349454e545f4f55545055545f414d4f554e5400006044820152606401610ad6565b600084118015613a245750600083115b613a8a576040517f08c379a000000000000000000000000000000000000000000000000000000000815260206004820152601a60248201527f43503a20494e53554646494349454e545f4c49515549444954590000000000006044820152606401610ad6565b6000620f4240613a9a8787614b90565b613aa49190614b90565b90506000613ab584620f4240614b7d565b613abf8887614b7d565b613ac99190614b90565b9050613ad58183614bd6565b613ae0906001614e0e565b979650505050505050565b600081613af9576000613aff565b63800000005b6009805463ffffffff95909217949094167a010000000000000000000000000000000000000000000000000000027fffff00000000ffffffffffffffffffffffffffffffffffffffffffffffffffff909116179092555050565b600082821115613bd3576000613b6f8484614b7d565b6040805173ffffffffffffffffffffffffffffffffffffffff89168152602081018390529192507fd85f20827037d49bc45762fefff2ddfe9a1a5412ad3dfc1cdca78d2e52f4ba23910160405180910390a1613bcb8186614e0e565b915050613c46565b82821015613c43576000613be78385614b7d565b6040805173ffffffffffffffffffffffffffffffffffffffff89168152602081018390529192507f3ffa9beb41b46c88b16758ef6c236ebd4d07cdfd4d22471030eb6b2d662482d9910160405180910390a1613bcb8186614b7d565b50825b949350505050565b600080846f4b3b4ca85a86c47a098a224000000000870281613c7257613c72614ba7565b0490506000817f161bcca7119915b50764b4abe86529797775a5f171951000000000000000000081613ca657613ca6614ba7565b046f4b3b4ca85a86c47a098a2240000000000390506000620f4240868302049050806f4b3b4ca85a86c47a098a2240000000000385820281613cea57613cea614ba7565b0498975050505050505050565b6000610ddb638000000042614e3e565b6009546000906010907e01000000000000000000000000000000000000000000000000000000000000900461ffff16620100008110613d4857613d48614c75565b600854910191506000908190613dac90613d74906fffffffffffffffffffffffffffffffff1689614b90565b600854613da79070010000000000000000000000000000000090046fffffffffffffffffffffffffffffffff1689614b90565b613fd1565b91509150600080613dc88462010011548963ffffffff16614042565b915091506000613dd88a8a614146565b905082620100118190555060008863ffffffff1685028760000160009054906101000a9004600d0b01905060008963ffffffff16840288600001600e9054906101000a900460060b01905060008a63ffffffff1684028960000160159054906101000a900460060b01905060016009600001601e8282829054906101000a900461ffff160192506101000a81548161ffff021916908361ffff160217905550604051806080016040528084600d0b81526020018360060b81526020018260060b81526020018b63ffffffff1681525060106009600001601e9054906101000a900461ffff1661ffff16620100008110613ed357613ed3614c75565b825191018054602084015160408501516060909501516dffffffffffffffffffffffffffff9094167fffffffffffffffffffffff000000000000000000000000000000000000000000909216919091176e01000000000000000000000000000066ffffffffffffff928316021774ffffffffffffffffffffffffffffffffffffffffff16750100000000000000000000000000000000000000000091909416027bffffffffffffffffffffffffffffffffffffffffffffffffffffffff16929092177c010000000000000000000000000000000000000000000000000000000063ffffffff9092169190910217905550505050505050505050505050565b600080613fde83856141af565b91506000613feb83614206565b90507fffffffffffffffffffffffffffffffffffff8000000000000000000000000000811280159061402b57506d7fffffffffffffffffffffffffff8113155b61403757614037614e52565b809150509250929050565b60008083600003614060578461405786614206565b9150915061413e565b8262010010546140709190614b90565b61407a8686614246565b111561412f57838511156140ce57670de0b6b3a76400008362010010546140a19190614b90565b6140b390670de0b6b3a7640000614e0e565b6140bd9086614b90565b6140c79190614bd6565b915061411f565b8484116140dd576140dd614e52565b670de0b6b3a76400008362010010546140f69190614b90565b61410890670de0b6b3a7640000614b7d565b6141129086614b90565b61411c9190614bd6565b91505b61412882614206565b905061413e565b84915061413b85614206565b90505b935093915050565b600080614156610ff88486614b90565b9050600061416382614206565b90507fffffffffffffffffffffffffffffffffffff800000000000000000000000000081128015906141a357506d7fffffffffffffffffffffffffff8113155b613c4657613c46614e52565b60007812725dd1d243aba0e75fe645cc4873f9e65afe688c928e1f218311670de0b6b3a7640000021582026141ec57637c5f487d6000526004601cfd5b50670de0b6b3a76400009190910281810615159190040190565b60008061421283614272565b9050600080821361422b57652d79883d20008203614235565b652d79883d200082015b655af3107a40009005949350505050565b600080614253848461432f565b90508261426882670de0b6b3a7640000614b90565b613c469190614bd6565b60008082136142dd576040517f08c379a000000000000000000000000000000000000000000000000000000000815260206004820152601160248201527f454d3a204f55545f4f465f424f554e44530000000000000000000000000000006044820152606401610ad6565b670c7d713b49da0000821380156142fb5750670f43fc2c04ee000082125b1561432657670de0b6b3a764000061431283614351565b8161431f5761431f614ba7565b0592915050565b61095182614489565b6000818311614347576143428383614b7d565b612894565b6128948284614b7d565b670de0b6b3a7640000026000806ec097ce7bc90715b34b9f1000000000808401907fffffffffffffffffffffffffffffffffff3f68318436f8ea4cb460f000000000850102816143a3576143a3614ba7565b05905060006ec097ce7bc90715b34b9f100000000082800205905081806ec097ce7bc90715b34b9f100000000081840205915060038205016ec097ce7bc90715b34b9f100000000082840205915060058205016ec097ce7bc90715b34b9f100000000082840205915060078205016ec097ce7bc90715b34b9f100000000082840205915060098205016ec097ce7bc90715b34b9f1000000000828402059150600b8205016ec097ce7bc90715b34b9f1000000000828402059150600d8205016ec097ce7bc90715b34b9f1000000000828402059150600f82050160020295945050505050565b6000670de0b6b3a76400008212156144cb576144c2826ec097ce7bc90715b34b9f1000000000816144bc576144bc614ba7565b05614489565b60000392915050565b60007e1600ef3172e58d2e933ec884fde10064c63b5372d805e203c0000000000000831261451c57770195e54c5dd42177f53a27172fa9ec630262827000000000830592506806f05b59d3b2000000015b73011798004d755d3c8bc8e03204cf44619e0000008312614554576b1425982cf597cd205cef7380830592506803782dace9d9000000015b606492830292026e01855144814a7ff805980ff0084000831261459c576e01855144814a7ff805980ff008400068056bc75e2d63100000840205925068ad78ebc5ac62000000015b6b02df0ab5a80a22c61ab5a70083126145d7576b02df0ab5a80a22c61ab5a70068056bc75e2d6310000084020592506856bc75e2d631000000015b693f1fce3da636ea5cf850831261460e57693f1fce3da636ea5cf85068056bc75e2d631000008402059250682b5e3af16b18800000015b690127fa27722cc06cc5e2831261464557690127fa27722cc06cc5e268056bc75e2d6310000084020592506815af1d78b58c400000015b68280e60114edb805d03831261467a5768280e60114edb805d0368056bc75e2d631000008402059250680ad78ebc5ac6200000015b680ebc5fb4174612111083126146a557680ebc5fb4174612111068056bc75e2d631000009384020592015b6808f00f760a4b2db55d83126146da576808f00f760a4b2db55d68056bc75e2d6310000084020592506802b5e3af16b1880000015b6806f5f1775788937937831261470f576806f5f177578893793768056bc75e2d63100000840205925068015af1d78b58c40000015b6806248f33704b2866038312614743576806248f33704b28660368056bc75e2d63100000840205925067ad78ebc5ac620000015b6805c548670b9510e7ac8312614777576805c548670b9510e7ac68056bc75e2d6310000084020592506756bc75e2d6310000015b600068056bc75e2d63100000840168056bc75e2d6310000080860302816147a0576147a0614ba7565b059050600068056bc75e2d63100000828002059050818068056bc75e2d63100000818402059150600382050168056bc75e2d63100000828402059150600582050168056bc75e2d63100000828402059150600782050168056bc75e2d63100000828402059150600982050168056bc75e2d63100000828402059150600b820501600202606485820105979650505050505050565b60005b8381101561484f578181015183820152602001614837565b50506000910152565b6020815260008251806020840152614877816040850160208701614834565b601f017fffffffffffffffffffffffffffffffffffffffffffffffffffffffffffffffe0169190910160400192915050565b73ffffffffffffffffffffffffffffffffffffffff81168114610da757600080fd5b600080604083850312156148de57600080fd5b82356148e9816148a9565b946020939093013593505050565b60008060006060848603121561490c57600080fd5b8335614917816148a9565b92506020840135614927816148a9565b929592945050506040919091013590565b60006020828403121561494a57600080fd5b5035919050565b60006020828403121561496357600080fd5b8135612894816148a9565b6000806040838503121561498157600080fd5b50508035926020909101359150565b600080600080600080600060e0888a0312156149ab57600080fd5b87356149b6816148a9565b965060208801356149c6816148a9565b95506040880135945060608801359350608088013560ff811681146149ea57600080fd5b9699959850939692959460a0840135945060c09093013592915050565b60008060408385031215614a1a57600080fd5b8235614a25816148a9565b91506020830135614037816148a9565b8015158114610da757600080fd5b600080600080600060808688031215614a5b57600080fd5b853594506020860135614a6d81614a35565b93506040860135614a7d816148a9565b9250606086013567ffffffffffffffff80821115614a9a57600080fd5b818801915088601f830112614aae57600080fd5b813581811115614abd57600080fd5b896020828501011115614acf57600080fd5b9699959850939650602001949392505050565b600181811c90821680614af657607f821691505b602082108103614b2f577f4e487b7100000000000000000000000000000000000000000000000000000000600052602260045260246000fd5b50919050565b600060208284031215614b4757600080fd5b5051919050565b7f4e487b7100000000000000000000000000000000000000000000000000000000600052601160045260246000fd5b8181038181111561095157610951614b4e565b808202811582820484141761095157610951614b4e565b7f4e487b7100000000000000000000000000000000000000000000000000000000600052601260045260246000fd5b600082614be557614be5614ba7565b500490565b6cffffffffffffffffffffffffff818116838216019080821115614c1057614c10614b4e565b5092915050565b60007f80000000000000000000000000000000000000000000000000000000000000008203614c4857614c48614b4e565b5060000390565b6cffffffffffffffffffffffffff828116828216039080821115614c1057614c10614b4e565b7f4e487b7100000000000000000000000000000000000000000000000000000000600052603260045260246000fd5b73ffffffffffffffffffffffffffffffffffffffff8616815284602082015283604082015260806060820152816080820152818360a0830137600081830160a090810191909152601f9092017fffffffffffffffffffffffffffffffffffffffffffffffffffffffffffffffe0160101949350505050565b60008251614d2e818460208701614834565b9190910192915050565b600080835481600182811c915080831680614d5457607f831692505b60208084108203614d8c577f4e487b710000000000000000000000000000000000000000000000000000000086526022600452602486fd5b818015614da05760018114614dd357614e00565b7fffffffffffffffffffffffffffffffffffffffffffffffffffffffffffffff0086168952841515850289019650614e00565b60008a81526020902060005b86811015614df85781548b820152908501908301614ddf565b505084890196505b509498975050505050505050565b8082018082111561095157610951614b4e565b600060208284031215614e3357600080fd5b815161289481614a35565b600082614e4d57614e4d614ba7565b500690565b7f4e487b7100000000000000000000000000000000000000000000000000000000600052600160045260246000fdfea164736f6c6343000811000a",
    "linkReferences": {}
  },
  "methodIdentifiers": {
    "ACCURACY()": "fbcd9b05",
    "DOMAIN_SEPARATOR()": "3644e515",
    "FEE_ACCURACY()": "db6488dc",
    "MAX_PLATFORM_FEE()": "3998a681",
    "MAX_SWAP_FEE()": "ab3d8544",
    "MINIMUM_LIQUIDITY()": "ba9a7a56",
    "SQUARED_ACCURACY()": "48ee4332",
    "adjustManagement(int256,int256)": "97e37764",
    "allowance(address,address)": "dd62ed3e",
    "approve(address,uint256)": "095ea7b3",
    "assetManager()": "94217ad1",
    "balanceOf(address)": "70a08231",
    "burn(address)": "89afcb44",
    "customPlatformFee()": "7c3cbc7c",
    "customSwapFee()": "c58771ef",
    "decimals()": "313ce567",
    "factory()": "c45a0155",
    "getReserves()": "0902f1ac",
    "kLast()": "7464fc3d",
    "maxChangeRate()": "85faf624",
    "mint(address)": "6a627842",
    "name()": "06fdde03",
    "nonces(address)": "7ecebe00",
    "observation(uint256)": "9d62a694",
    "oracleCaller()": "b62221e0",
    "permit(address,address,uint256,uint256,uint8,bytes32,bytes32)": "d505accf",
    "platformFee()": "26232a2e",
    "prevClampedPrice()": "495bc0fb",
    "recoverToken(address)": "9be65a60",
    "setCustomPlatformFee(uint256)": "afb4a43b",
    "setCustomSwapFee(uint256)": "9568e73b",
    "setManager(address)": "d0ebdbe7",
    "setMaxChangeRate(uint256)": "4dfa1ff9",
    "skim(address)": "bc25cf77",
    "swap(int256,bool,address,bytes)": "e12bd9d8",
    "swapFee()": "54cf2aeb",
    "symbol()": "95d89b41",
    "sync()": "fff6cae9",
    "token0()": "0dfe1681",
    "token0Managed()": "e9bdf7b8",
    "token1()": "d21220a7",
    "token1Managed()": "ad7853e9",
    "totalSupply()": "18160ddd",
    "transfer(address,uint256)": "a9059cbb",
    "transferFrom(address,address,uint256)": "23b872dd",
    "updateOracleCaller()": "31c49074",
    "updatePlatformFee()": "dbc781bc",
    "updateSwapFee()": "0c472afd"
  },
  "id": 32
}