{
  "abi": [
    {
      "inputs": [
        {
          "internalType": "address",
          "name": "aToken0",
          "type": "address"
        },
        {
          "internalType": "address",
          "name": "aToken1",
          "type": "address"
        }
      ],
      "stateMutability": "nonpayable",
      "type": "constructor"
    },
    {
      "anonymous": false,
      "inputs": [
        {
          "indexed": true,
          "internalType": "address",
          "name": "owner",
          "type": "address"
        },
        {
          "indexed": true,
          "internalType": "address",
          "name": "spender",
          "type": "address"
        },
        {
          "indexed": false,
          "internalType": "uint256",
          "name": "amount",
          "type": "uint256"
        }
      ],
      "name": "Approval",
      "type": "event"
    },
    {
      "anonymous": false,
      "inputs": [
        {
          "indexed": true,
          "internalType": "address",
          "name": "sender",
          "type": "address"
        },
        {
          "indexed": false,
          "internalType": "uint256",
          "name": "amount0",
          "type": "uint256"
        },
        {
          "indexed": false,
          "internalType": "uint256",
          "name": "amount1",
          "type": "uint256"
        }
      ],
      "name": "Burn",
      "type": "event"
    },
    {
      "anonymous": false,
      "inputs": [
        {
          "indexed": false,
          "internalType": "uint256",
          "name": "oldCustomPlatformFee",
          "type": "uint256"
        },
        {
          "indexed": false,
          "internalType": "uint256",
          "name": "newCustomPlatformFee",
          "type": "uint256"
        }
      ],
      "name": "CustomPlatformFeeChanged",
      "type": "event"
    },
    {
      "anonymous": false,
      "inputs": [
        {
          "indexed": false,
          "internalType": "uint256",
          "name": "oldCustomSwapFee",
          "type": "uint256"
        },
        {
          "indexed": false,
          "internalType": "uint256",
          "name": "newCustomSwapFee",
          "type": "uint256"
        }
      ],
      "name": "CustomSwapFeeChanged",
      "type": "event"
    },
    {
      "anonymous": false,
      "inputs": [
        {
          "indexed": false,
          "internalType": "contract ERC20",
          "name": "token",
          "type": "address"
        },
        {
          "indexed": false,
          "internalType": "uint256",
          "name": "amount",
          "type": "uint256"
        }
      ],
      "name": "LossReported",
      "type": "event"
    },
    {
      "anonymous": false,
      "inputs": [
        {
          "indexed": false,
          "internalType": "uint256",
          "name": "oldMaxChangePerSecond",
          "type": "uint256"
        },
        {
          "indexed": false,
          "internalType": "uint256",
          "name": "newMaxChangePerSecond",
          "type": "uint256"
        }
      ],
      "name": "MaxChangeRateUpdated",
      "type": "event"
    },
    {
      "anonymous": false,
      "inputs": [
        {
          "indexed": true,
          "internalType": "address",
          "name": "sender",
          "type": "address"
        },
        {
          "indexed": false,
          "internalType": "uint256",
          "name": "amount0",
          "type": "uint256"
        },
        {
          "indexed": false,
          "internalType": "uint256",
          "name": "amount1",
          "type": "uint256"
        }
      ],
      "name": "Mint",
      "type": "event"
    },
    {
      "anonymous": false,
      "inputs": [
        {
          "indexed": false,
          "internalType": "address",
          "name": "oldCaller",
          "type": "address"
        },
        {
          "indexed": false,
          "internalType": "address",
          "name": "newCaller",
          "type": "address"
        }
      ],
      "name": "OracleCallerUpdated",
      "type": "event"
    },
    {
      "anonymous": false,
      "inputs": [
        {
          "indexed": false,
          "internalType": "uint256",
          "name": "oldPlatformFee",
          "type": "uint256"
        },
        {
          "indexed": false,
          "internalType": "uint256",
          "name": "newPlatformFee",
          "type": "uint256"
        }
      ],
      "name": "PlatformFeeChanged",
      "type": "event"
    },
    {
      "anonymous": false,
      "inputs": [
        {
          "indexed": false,
          "internalType": "contract ERC20",
          "name": "token",
          "type": "address"
        },
        {
          "indexed": false,
          "internalType": "uint256",
          "name": "amount",
          "type": "uint256"
        }
      ],
      "name": "ProfitReported",
      "type": "event"
    },
    {
      "anonymous": false,
      "inputs": [
        {
          "indexed": true,
          "internalType": "address",
          "name": "sender",
          "type": "address"
        },
        {
          "indexed": false,
          "internalType": "bool",
          "name": "zeroForOne",
          "type": "bool"
        },
        {
          "indexed": false,
          "internalType": "uint256",
          "name": "amountIn",
          "type": "uint256"
        },
        {
          "indexed": false,
          "internalType": "uint256",
          "name": "amountOut",
          "type": "uint256"
        },
        {
          "indexed": true,
          "internalType": "address",
          "name": "to",
          "type": "address"
        }
      ],
      "name": "Swap",
      "type": "event"
    },
    {
      "anonymous": false,
      "inputs": [
        {
          "indexed": false,
          "internalType": "uint256",
          "name": "oldSwapFee",
          "type": "uint256"
        },
        {
          "indexed": false,
          "internalType": "uint256",
          "name": "newSwapFee",
          "type": "uint256"
        }
      ],
      "name": "SwapFeeChanged",
      "type": "event"
    },
    {
      "anonymous": false,
      "inputs": [
        {
          "indexed": false,
          "internalType": "uint104",
          "name": "reserve0",
          "type": "uint104"
        },
        {
          "indexed": false,
          "internalType": "uint104",
          "name": "reserve1",
          "type": "uint104"
        }
      ],
      "name": "Sync",
      "type": "event"
    },
    {
      "anonymous": false,
      "inputs": [
        {
          "indexed": true,
          "internalType": "address",
          "name": "from",
          "type": "address"
        },
        {
          "indexed": true,
          "internalType": "address",
          "name": "to",
          "type": "address"
        },
        {
          "indexed": false,
          "internalType": "uint256",
          "name": "amount",
          "type": "uint256"
        }
      ],
      "name": "Transfer",
      "type": "event"
    },
    {
      "inputs": [],
      "name": "ACCURACY",
      "outputs": [
        {
          "internalType": "uint256",
          "name": "",
          "type": "uint256"
        }
      ],
      "stateMutability": "view",
      "type": "function"
    },
    {
      "inputs": [],
      "name": "DOMAIN_SEPARATOR",
      "outputs": [
        {
          "internalType": "bytes32",
          "name": "",
          "type": "bytes32"
        }
      ],
      "stateMutability": "view",
      "type": "function"
    },
    {
      "inputs": [],
      "name": "FEE_ACCURACY",
      "outputs": [
        {
          "internalType": "uint256",
          "name": "",
          "type": "uint256"
        }
      ],
      "stateMutability": "view",
      "type": "function"
    },
    {
      "inputs": [],
      "name": "MAX_PLATFORM_FEE",
      "outputs": [
        {
          "internalType": "uint256",
          "name": "",
          "type": "uint256"
        }
      ],
      "stateMutability": "view",
      "type": "function"
    },
    {
      "inputs": [],
      "name": "MAX_SWAP_FEE",
      "outputs": [
        {
          "internalType": "uint256",
          "name": "",
          "type": "uint256"
        }
      ],
      "stateMutability": "view",
      "type": "function"
    },
    {
      "inputs": [],
      "name": "MINIMUM_LIQUIDITY",
      "outputs": [
        {
          "internalType": "uint256",
          "name": "",
          "type": "uint256"
        }
      ],
      "stateMutability": "view",
      "type": "function"
    },
    {
      "inputs": [],
      "name": "SQUARED_ACCURACY",
      "outputs": [
        {
          "internalType": "uint256",
          "name": "",
          "type": "uint256"
        }
      ],
      "stateMutability": "view",
      "type": "function"
    },
    {
      "inputs": [
        {
          "internalType": "int256",
          "name": "aToken0Change",
          "type": "int256"
        },
        {
          "internalType": "int256",
          "name": "aToken1Change",
          "type": "int256"
        }
      ],
      "name": "adjustManagement",
      "outputs": [],
      "stateMutability": "nonpayable",
      "type": "function"
    },
    {
      "inputs": [
        {
          "internalType": "address",
          "name": "",
          "type": "address"
        },
        {
          "internalType": "address",
          "name": "",
          "type": "address"
        }
      ],
      "name": "allowance",
      "outputs": [
        {
          "internalType": "uint256",
          "name": "",
          "type": "uint256"
        }
      ],
      "stateMutability": "view",
      "type": "function"
    },
    {
      "inputs": [
        {
          "internalType": "address",
          "name": "spender",
          "type": "address"
        },
        {
          "internalType": "uint256",
          "name": "amount",
          "type": "uint256"
        }
      ],
      "name": "approve",
      "outputs": [
        {
          "internalType": "bool",
          "name": "",
          "type": "bool"
        }
      ],
      "stateMutability": "nonpayable",
      "type": "function"
    },
    {
      "inputs": [],
      "name": "assetManager",
      "outputs": [
        {
          "internalType": "contract IAssetManager",
          "name": "",
          "type": "address"
        }
      ],
      "stateMutability": "view",
      "type": "function"
    },
    {
      "inputs": [
        {
          "internalType": "address",
          "name": "",
          "type": "address"
        }
      ],
      "name": "balanceOf",
      "outputs": [
        {
          "internalType": "uint256",
          "name": "",
          "type": "uint256"
        }
      ],
      "stateMutability": "view",
      "type": "function"
    },
    {
      "inputs": [
        {
          "internalType": "address",
          "name": "aTo",
          "type": "address"
        }
      ],
      "name": "burn",
      "outputs": [
        {
          "internalType": "uint256",
          "name": "rAmount0",
          "type": "uint256"
        },
        {
          "internalType": "uint256",
          "name": "rAmount1",
          "type": "uint256"
        }
      ],
      "stateMutability": "nonpayable",
      "type": "function"
    },
    {
      "inputs": [],
      "name": "customPlatformFee",
      "outputs": [
        {
          "internalType": "uint256",
          "name": "",
          "type": "uint256"
        }
      ],
      "stateMutability": "view",
      "type": "function"
    },
    {
      "inputs": [],
      "name": "customSwapFee",
      "outputs": [
        {
          "internalType": "uint256",
          "name": "",
          "type": "uint256"
        }
      ],
      "stateMutability": "view",
      "type": "function"
    },
    {
      "inputs": [],
      "name": "decimals",
      "outputs": [
        {
          "internalType": "uint8",
          "name": "",
          "type": "uint8"
        }
      ],
      "stateMutability": "view",
      "type": "function"
    },
    {
      "inputs": [],
      "name": "factory",
      "outputs": [
        {
          "internalType": "contract GenericFactory",
          "name": "",
          "type": "address"
        }
      ],
      "stateMutability": "view",
      "type": "function"
    },
    {
      "inputs": [],
      "name": "getReserves",
      "outputs": [
        {
          "internalType": "uint104",
          "name": "rReserve0",
          "type": "uint104"
        },
        {
          "internalType": "uint104",
          "name": "rReserve1",
          "type": "uint104"
        },
        {
          "internalType": "uint32",
          "name": "rBlockTimestampLast",
          "type": "uint32"
        },
        {
          "internalType": "uint16",
          "name": "rIndex",
          "type": "uint16"
        }
      ],
      "stateMutability": "view",
      "type": "function"
    },
    {
      "inputs": [],
      "name": "kLast",
      "outputs": [
        {
          "internalType": "uint256",
          "name": "",
          "type": "uint256"
        }
      ],
      "stateMutability": "view",
      "type": "function"
    },
    {
      "inputs": [],
      "name": "maxChangeRate",
      "outputs": [
        {
          "internalType": "uint256",
          "name": "",
          "type": "uint256"
        }
      ],
      "stateMutability": "view",
      "type": "function"
    },
    {
      "inputs": [
        {
          "internalType": "address",
          "name": "aTo",
          "type": "address"
        }
      ],
      "name": "mint",
      "outputs": [
        {
          "internalType": "uint256",
          "name": "rLiquidity",
          "type": "uint256"
        }
      ],
      "stateMutability": "nonpayable",
      "type": "function"
    },
    {
      "inputs": [],
      "name": "name",
      "outputs": [
        {
          "internalType": "string",
          "name": "",
          "type": "string"
        }
      ],
      "stateMutability": "view",
      "type": "function"
    },
    {
      "inputs": [
        {
          "internalType": "address",
          "name": "",
          "type": "address"
        }
      ],
      "name": "nonces",
      "outputs": [
        {
          "internalType": "uint256",
          "name": "",
          "type": "uint256"
        }
      ],
      "stateMutability": "view",
      "type": "function"
    },
    {
      "inputs": [
        {
          "internalType": "uint256",
          "name": "aIndex",
          "type": "uint256"
        }
      ],
      "name": "observation",
      "outputs": [
        {
          "components": [
            {
              "internalType": "int112",
              "name": "logAccRawPrice",
              "type": "int112"
            },
            {
              "internalType": "int56",
              "name": "logAccClampedPrice",
              "type": "int56"
            },
            {
              "internalType": "int56",
              "name": "logAccLiquidity",
              "type": "int56"
            },
            {
              "internalType": "uint32",
              "name": "timestamp",
              "type": "uint32"
            }
          ],
          "internalType": "struct Observation",
          "name": "rObservation",
          "type": "tuple"
        }
      ],
      "stateMutability": "view",
      "type": "function"
    },
    {
      "inputs": [],
      "name": "oracleCaller",
      "outputs": [
        {
          "internalType": "address",
          "name": "",
          "type": "address"
        }
      ],
      "stateMutability": "view",
      "type": "function"
    },
    {
      "inputs": [
        {
          "internalType": "address",
          "name": "owner",
          "type": "address"
        },
        {
          "internalType": "address",
          "name": "spender",
          "type": "address"
        },
        {
          "internalType": "uint256",
          "name": "value",
          "type": "uint256"
        },
        {
          "internalType": "uint256",
          "name": "deadline",
          "type": "uint256"
        },
        {
          "internalType": "uint8",
          "name": "v",
          "type": "uint8"
        },
        {
          "internalType": "bytes32",
          "name": "r",
          "type": "bytes32"
        },
        {
          "internalType": "bytes32",
          "name": "s",
          "type": "bytes32"
        }
      ],
      "name": "permit",
      "outputs": [],
      "stateMutability": "nonpayable",
      "type": "function"
    },
    {
      "inputs": [],
      "name": "platformFee",
      "outputs": [
        {
          "internalType": "uint256",
          "name": "",
          "type": "uint256"
        }
      ],
      "stateMutability": "view",
      "type": "function"
    },
    {
      "inputs": [],
      "name": "prevClampedPrice",
      "outputs": [
        {
          "internalType": "uint256",
          "name": "",
          "type": "uint256"
        }
      ],
      "stateMutability": "view",
      "type": "function"
    },
    {
      "inputs": [
        {
          "internalType": "address",
          "name": "aToken",
          "type": "address"
        }
      ],
      "name": "recoverToken",
      "outputs": [],
      "stateMutability": "nonpayable",
      "type": "function"
    },
    {
      "inputs": [
        {
          "internalType": "uint256",
          "name": "aCustomPlatformFee",
          "type": "uint256"
        }
      ],
      "name": "setCustomPlatformFee",
      "outputs": [],
      "stateMutability": "nonpayable",
      "type": "function"
    },
    {
      "inputs": [
        {
          "internalType": "uint256",
          "name": "aCustomSwapFee",
          "type": "uint256"
        }
      ],
      "name": "setCustomSwapFee",
      "outputs": [],
      "stateMutability": "nonpayable",
      "type": "function"
    },
    {
      "inputs": [
        {
          "internalType": "contract IAssetManager",
          "name": "manager",
          "type": "address"
        }
      ],
      "name": "setManager",
      "outputs": [],
      "stateMutability": "nonpayable",
      "type": "function"
    },
    {
      "inputs": [
        {
          "internalType": "uint256",
          "name": "aMaxChangeRate",
          "type": "uint256"
        }
      ],
      "name": "setMaxChangeRate",
      "outputs": [],
      "stateMutability": "nonpayable",
      "type": "function"
    },
    {
      "inputs": [
        {
          "internalType": "address",
          "name": "aTo",
          "type": "address"
        }
      ],
      "name": "skim",
      "outputs": [],
      "stateMutability": "nonpayable",
      "type": "function"
    },
    {
      "inputs": [
        {
          "internalType": "int256",
          "name": "aAmount",
          "type": "int256"
        },
        {
          "internalType": "bool",
          "name": "aInOrOut",
          "type": "bool"
        },
        {
          "internalType": "address",
          "name": "aTo",
          "type": "address"
        },
        {
          "internalType": "bytes",
          "name": "aData",
          "type": "bytes"
        }
      ],
      "name": "swap",
      "outputs": [
        {
          "internalType": "uint256",
          "name": "rAmountOut",
          "type": "uint256"
        }
      ],
      "stateMutability": "nonpayable",
      "type": "function"
    },
    {
      "inputs": [],
      "name": "swapFee",
      "outputs": [
        {
          "internalType": "uint256",
          "name": "",
          "type": "uint256"
        }
      ],
      "stateMutability": "view",
      "type": "function"
    },
    {
      "inputs": [],
      "name": "symbol",
      "outputs": [
        {
          "internalType": "string",
          "name": "",
          "type": "string"
        }
      ],
      "stateMutability": "view",
      "type": "function"
    },
    {
      "inputs": [],
      "name": "sync",
      "outputs": [],
      "stateMutability": "nonpayable",
      "type": "function"
    },
    {
      "inputs": [],
      "name": "token0",
      "outputs": [
        {
          "internalType": "contract ERC20",
          "name": "",
          "type": "address"
        }
      ],
      "stateMutability": "view",
      "type": "function"
    },
    {
      "inputs": [],
      "name": "token0Managed",
      "outputs": [
        {
          "internalType": "uint104",
          "name": "",
          "type": "uint104"
        }
      ],
      "stateMutability": "view",
      "type": "function"
    },
    {
      "inputs": [],
      "name": "token1",
      "outputs": [
        {
          "internalType": "contract ERC20",
          "name": "",
          "type": "address"
        }
      ],
      "stateMutability": "view",
      "type": "function"
    },
    {
      "inputs": [],
      "name": "token1Managed",
      "outputs": [
        {
          "internalType": "uint104",
          "name": "",
          "type": "uint104"
        }
      ],
      "stateMutability": "view",
      "type": "function"
    },
    {
      "inputs": [],
      "name": "totalSupply",
      "outputs": [
        {
          "internalType": "uint256",
          "name": "",
          "type": "uint256"
        }
      ],
      "stateMutability": "view",
      "type": "function"
    },
    {
      "inputs": [
        {
          "internalType": "address",
          "name": "to",
          "type": "address"
        },
        {
          "internalType": "uint256",
          "name": "amount",
          "type": "uint256"
        }
      ],
      "name": "transfer",
      "outputs": [
        {
          "internalType": "bool",
          "name": "",
          "type": "bool"
        }
      ],
      "stateMutability": "nonpayable",
      "type": "function"
    },
    {
      "inputs": [
        {
          "internalType": "address",
          "name": "from",
          "type": "address"
        },
        {
          "internalType": "address",
          "name": "to",
          "type": "address"
        },
        {
          "internalType": "uint256",
          "name": "amount",
          "type": "uint256"
        }
      ],
      "name": "transferFrom",
      "outputs": [
        {
          "internalType": "bool",
          "name": "",
          "type": "bool"
        }
      ],
      "stateMutability": "nonpayable",
      "type": "function"
    },
    {
      "inputs": [],
      "name": "updateOracleCaller",
      "outputs": [],
      "stateMutability": "nonpayable",
      "type": "function"
    },
    {
      "inputs": [],
      "name": "updatePlatformFee",
      "outputs": [],
      "stateMutability": "nonpayable",
      "type": "function"
    },
    {
      "inputs": [],
      "name": "updateSwapFee",
      "outputs": [],
      "stateMutability": "nonpayable",
      "type": "function"
    }
  ],
  "bytecode": {
    "object": "0x61022060405260006101a08190526101c08190526101e05261ffff610200526001600160f01b03196006556000196008819055600a553480156200004257600080fd5b5060405162005f5b38038062005f5b8339810160408190526200006591620008c1565b81816040518060400160405280600b81526020016a43503a3a7377617046656560a81b815250604051806040016040528060128152602001712932b9b2b93b37b4b9102628102a37b5b2b760711b8152506040518060400160405280600681526020016505245532d4c560d41b81525060128260009081620000e891906200099e565b506001620000f783826200099e565b5060ff81166080524660a0526200010d62000328565b60c05250503360e052506001600160a01b03838116610100528216610120526040516200013f90829060200162000a6a565b60408051601f1981840301815291905280516020909101206101805262000165620003c4565b6200016f620004fc565b610100516001600160a01b031663313ce5676040518163ffffffff1660e01b8152600401602060405180830381865afa158015620001b1573d6000803e3d6000fd5b505050506040513d601f19601f82011682018060405250810190620001d7919062000a9b565b620001e490601262000add565b620001f190600a62000c37565b6001600160801b0316610140816001600160801b031681525050610120516001600160a01b031663313ce5676040518163ffffffff1660e01b8152600401602060405180830381865afa1580156200024d573d6000803e3d6000fd5b505050506040513d601f19601f8201168201806040525081019062000273919062000a9b565b6200028090601262000add565b6200028d90600a62000c37565b6001600160801b031661016052620002a462000617565b6200031d62000317620003066040518060400160405280601581526020017f5368617265643a3a6d61784368616e676552617465000000000000000000000081525060e0516001600160a01b0316620006fc60201b6200294a1790919060201c565b620007a260201b62000a621760201c565b620007a5565b505050505062000ce9565b60007f8b73c3c69bb8fe3d512ecc4cf759cc79239f7b179b0ffacaa9a75d522b39400f60006040516200035c919062000c51565b6040805191829003822060208301939093528101919091527fc89efdaa54c0f20c7adf612882df0950f5a951637e0307cdcb4c672f298b8bc660608201524660808201523060a082015260c00160405160208183030381529060405280519060200120905090565b600060001960085403620004505760e0516101805160405163023aa9ab60e61b815260048101919091526200044a916001600160a01b031690638eaa6ac090602401602060405180830381865afa15801562000424573d6000803e3d6000fd5b505050506040513d601f19601f8201168201806040525081019062000306919062000ccf565b62000454565b6008545b90506007548103620004635750565b614e20811115620004bb5760405162461bcd60e51b815260206004820152601360248201527f503a20494e56414c49445f535741505f4645450000000000000000000000000060448201526064015b60405180910390fd5b60075460408051918252602082018390527fad321f810529281bbb90384fd6fecbdda41509a5ccd7bd5aed986ed827f6a026910160405180910390a1600755565b6000600019600a54036200056e5762000568620003066040518060400160405280601381526020017f5368617265643a3a706c6174666f726d4665650000000000000000000000000081525060e0516001600160a01b0316620006fc60201b6200294a1790919060201c565b62000572565b600a545b90506009548103620005815750565b6207a120811115620005d65760405162461bcd60e51b815260206004820152601760248201527f503a20494e56414c49445f504c4154464f524d5f4645450000000000000000006044820152606401620004b2565b60095460408051918252602082018390527fc98a8b10b63c929f7799380bb4a0c444c713ebf74d8732f944c915034121aad1910160405180910390a1600955565b600062000677620003066040518060400160405280601481526020017f5368617265643a3a6f7261636c6543616c6c657200000000000000000000000081525060e0516001600160a01b0316620006fc60201b6200294a1790919060201c565b6201000f549091506001600160a01b03808316911614620006f9576201000f54604080516001600160a01b03928316815291831660208301527f262681b3b01b61ff6d02569759105771205cdd274fb3c45535b50632e0a3523f910160405180910390a16201000f80546001600160a01b0319166001600160a01b0383161790555b50565b6000826001600160a01b0316638eaa6ac08360405160200162000720919062000a6a565b604051602081830303815290604052805190602001206040518263ffffffff1660e01b81526004016200075591815260200190565b602060405180830381865afa15801562000773573d6000803e3d6000fd5b505050506040513d601f19601f8201168201806040525081019062000799919062000ccf565b90505b92915050565b90565b60e0516001600160a01b0316336001600160a01b031614620007f95760405162461bcd60e51b815260206004820152600c60248201526b281d102327a92124a22222a760a11b6044820152606401620004b2565b806000108015620008115750662386f26fc100008111155b6200085f5760405162461bcd60e51b815260206004820152601d60248201527f4f573a20494e56414c49445f4348414e47455f5045525f5345434f4e440000006044820152606401620004b2565b6201000d5460408051918252602082018390527f807b9f5907da3f00bf587e77bc07247e1c7ff5ae46c93a584b3a075be0b1bac2910160405180910390a16201000d55565b80516001600160a01b0381168114620008bc57600080fd5b919050565b60008060408385031215620008d557600080fd5b620008e083620008a4565b9150620008f060208401620008a4565b90509250929050565b634e487b7160e01b600052604160045260246000fd5b600181811c908216806200092457607f821691505b6020821081036200094557634e487b7160e01b600052602260045260246000fd5b50919050565b601f8211156200099957600081815260208120601f850160051c81016020861015620009745750805b601f850160051c820191505b81811015620009955782815560010162000980565b5050505b505050565b81516001600160401b03811115620009ba57620009ba620008f9565b620009d281620009cb84546200090f565b846200094b565b602080601f83116001811462000a0a5760008415620009f15750858301515b600019600386901b1c1916600185901b17855562000995565b600085815260208120601f198616915b8281101562000a3b5788860151825594840194600190910190840162000a1a565b508582101562000a5a5787850151600019600388901b60f8161c191681555b5050505050600190811b01905550565b6000825160005b8181101562000a8d576020818601810151858301520162000a71565b506000920191825250919050565b60006020828403121562000aae57600080fd5b815160ff8116811462000ac057600080fd5b9392505050565b634e487b7160e01b600052601160045260246000fd5b60ff82811682821603908111156200079c576200079c62000ac7565b600181815b8085111562000b40576001600160801b0382900482111562000b245762000b2462000ac7565b8085161562000b3257918102915b93841c939080029062000afe565b509250929050565b60008262000b59575060016200079c565b8162000b68575060006200079c565b816001811462000b81576002811462000b8c5762000bc7565b60019150506200079c565b60ff84111562000ba05762000ba062000ac7565b6001841b91506001600160801b0382111562000bc05762000bc062000ac7565b506200079c565b5060208310610133831016604e8410600b841016171562000c06575081810a6001600160801b0381111562000c005762000c0062000ac7565b6200079c565b62000c12838362000af9565b6001600160801b0381900482111562000c2f5762000c2f62000ac7565b029392505050565b60006200079960ff84166001600160801b03841662000b48565b600080835462000c61816200090f565b6001828116801562000c7c576001811462000c925762000cc3565b60ff198416875282151583028701945062000cc3565b8760005260208060002060005b8581101562000cba5781548a82015290840190820162000c9f565b50505082870194505b50929695505050505050565b60006020828403121562000ce257600080fd5b5051919050565b60805160a05160c05160e051610100516101205161014051610160516101805161510562000e5660003960006109b801526000613ff801526000613fbc0152600081816107a00152818161129601528181611685015281816117370152818161184f01528181611d4a01528181612448015281816125df015281816126a60152818161287901528181612ce401528181612daf0152612fa90152600081816104330152818161126901528181611526015281816115d8015281816117f801528181611d0b0152818161248401528181612533015281816126430152818161277801528181612c2701528181612d6c01528181612ec901528181613553015281816135f4015261368401526000818161075d015281816109e201528181610cb201528181610e2b01528181611359015281816117b101528181611c0401528181611d940152818161228f015261310301526000610df101526000610dbc015260006104b201526151056000f3fe608060405234801561001057600080fd5b50600436106103205760003560e01c80639568e73b116101a7578063c45a0155116100ee578063dbc781bc11610097578063e9bdf7b811610071578063e9bdf7b814610825578063fbcd9b051461083e578063fff6cae91461085557600080fd5b8063dbc781bc146107df578063dd62ed3e146107e7578063e12bd9d81461081257600080fd5b8063d21220a7116100c8578063d21220a71461079b578063d505accf146107c2578063db6488dc146107d557600080fd5b8063c45a015514610758578063c58771ef1461077f578063d0ebdbe71461078857600080fd5b8063ab3d854411610150578063b62221e01161012a578063b62221e01461071a578063ba9a7a561461073c578063bc25cf771461074557600080fd5b8063ab3d8544146106b6578063ad7853e9146106bf578063afb4a43b1461070757600080fd5b80639be65a60116101815780639be65a60146106365780639d62a69414610649578063a9059cbb146106a357600080fd5b80639568e73b1461060857806395d89b411461061b57806397e377641461062357600080fd5b806348ee43321161026b5780637464fc3d1161021457806385faf624116101ee57806385faf624146105b557806389afcb44146105c057806394217ad1146105e857600080fd5b80637464fc3d146105815780637c3cbc7c1461058c5780637ecebe001461059557600080fd5b806354cf2aeb1161024557806354cf2aeb146105455780636a6278421461054e57806370a082311461056157600080fd5b806348ee433214610500578063495bc0fb146105275780634dfa1ff91461053257600080fd5b806323b872dd116102cd57806331c49074116102a757806331c49074146104e65780633644e515146104ee5780633998a681146104f657600080fd5b806323b872dd1461049157806326232a2e146104a4578063313ce567146104ad57600080fd5b80630c472afd116102fe5780630c472afd146104245780630dfe16811461042e57806318160ddd1461047a57600080fd5b806306fdde03146103255780630902f1ac14610343578063095ea7b314610401575b600080fd5b61032d61085d565b60405161033a9190614acf565b60405180910390f35b60408051608080820183526006546cffffffffffffffffffffffffff8082168085526d0100000000000000000000000000830490911660208086018290527a010000000000000000000000000000000000000000000000000000840463ffffffff8116878901527e0100000000000000000000000000000000000000000000000000000000000090940461ffff166060968701819052875193845290830191909152637fffffff90921694810194909452918301919091520161033a565b61041461040f366004614b42565b6108eb565b604051901515815260200161033a565b61042c610965565b005b6104557f000000000000000000000000000000000000000000000000000000000000000081565b60405173ffffffffffffffffffffffffffffffffffffffff909116815260200161033a565b61048360025481565b60405190815260200161033a565b61041461049f366004614b6e565b610b2e565b61048360095481565b6104d47f000000000000000000000000000000000000000000000000000000000000000081565b60405160ff909116815260200161033a565b61042c610c72565b610483610db8565b6104836207a12081565b6104837f161bcca7119915b50764b4abe86529797775a5f171951000000000000000000081565b6104836201000e5481565b61042c610540366004614baf565b610e13565b61048360075481565b61048361055c366004614bc8565b610f74565b61048361056f366004614bc8565b60036020526000908152604090205481565b610483620100105481565b610483600a5481565b6104836105a3366004614bc8565b60056020526000908152604090205481565b6104836201000d5481565b6105d36105ce366004614bc8565b6111c5565b6040805192835260208301919091520161033a565b600b546104559073ffffffffffffffffffffffffffffffffffffffff1681565b61042c610616366004614baf565b611341565b61032d611429565b61042c610631366004614be5565b611436565b61042c610644366004614bc8565b611771565b61065c610657366004614baf565b611a25565b60405161033a919060006080820190508251600d0b8252602083015160060b6020830152604083015160060b604083015263ffffffff606084015116606083015292915050565b6104146106b1366004614b42565b611b67565b610483614e2081565b600c546106e9906d010000000000000000000000000090046cffffffffffffffffffffffffff1681565b6040516cffffffffffffffffffffffffff909116815260200161033a565b61042c610715366004614baf565b611bec565b6201000f546104559073ffffffffffffffffffffffffffffffffffffffff1681565b6104836103e881565b61042c610753366004614bc8565b611cd4565b6104557f000000000000000000000000000000000000000000000000000000000000000081565b61048360085481565b61042c610796366004614bc8565b611d7c565b6104557f000000000000000000000000000000000000000000000000000000000000000081565b61042c6107d0366004614c07565b611f07565b610483620f424081565b61042c612226565b6104836107f5366004614c7e565b600460209081526000928352604080842090915290825290205481565b610483610820366004614cba565b612397565b600c546106e9906cffffffffffffffffffffffffff1681565b6104836f4b3b4ca85a86c47a098a22400000000081565b61042c6128ee565b6000805461086a90614d59565b80601f016020809104026020016040519081016040528092919081815260200182805461089690614d59565b80156108e35780601f106108b8576101008083540402835291602001916108e3565b820191906000526020600020905b8154815290600101906020018083116108c657829003601f168201915b505050505081565b33600081815260046020908152604080832073ffffffffffffffffffffffffffffffffffffffff8716808552925280832085905551919290917f8c5be1e5ebec7d5bd14f71427d1e84f3dd0314c0f7b2291e5b200ac8c7c3b925906109539086815260200190565b60405180910390a35060015b92915050565b60007fffffffffffffffffffffffffffffffffffffffffffffffffffffffffffffffff60085403610a6a576040517f8eaa6ac00000000000000000000000000000000000000000000000000000000081527f00000000000000000000000000000000000000000000000000000000000000006004820152610a65907f000000000000000000000000000000000000000000000000000000000000000073ffffffffffffffffffffffffffffffffffffffff1690638eaa6ac090602401602060405180830381865afa158015610a3e573d6000803e3d6000fd5b505050506040513d601f19601f82011682018060405250810190610a629190614dac565b90565b610a6e565b6008545b90506007548103610a7c5750565b614e20811115610aed576040517f08c379a000000000000000000000000000000000000000000000000000000000815260206004820152601360248201527f503a20494e56414c49445f535741505f4645450000000000000000000000000060448201526064015b60405180910390fd5b60075460408051918252602082018390527fad321f810529281bbb90384fd6fecbdda41509a5ccd7bd5aed986ed827f6a026910160405180910390a1600755565b73ffffffffffffffffffffffffffffffffffffffff831660009081526004602090815260408083203384529091528120547fffffffffffffffffffffffffffffffffffffffffffffffffffffffffffffffff8114610bc257610b908382614df4565b73ffffffffffffffffffffffffffffffffffffffff861660009081526004602090815260408083203384529091529020555b73ffffffffffffffffffffffffffffffffffffffff851660009081526003602052604081208054859290610bf7908490614df4565b909155505073ffffffffffffffffffffffffffffffffffffffff808516600081815260036020526040908190208054870190555190918716907fddf252ad1be2c89b69c2b068fc378daa952ba7f163c4a11628f55a4df523b3ef90610c5f9087815260200190565b60405180910390a3506001949350505050565b6000610cf5610a626040518060400160405280601481526020017f5368617265643a3a6f7261636c6543616c6c65720000000000000000000000008152507f000000000000000000000000000000000000000000000000000000000000000073ffffffffffffffffffffffffffffffffffffffff1661294a90919063ffffffff16565b6201000f5490915073ffffffffffffffffffffffffffffffffffffffff808316911614610db5576201000f546040805173ffffffffffffffffffffffffffffffffffffffff928316815291831660208301527f262681b3b01b61ff6d02569759105771205cdd274fb3c45535b50632e0a3523f910160405180910390a16201000f80547fffffffffffffffffffffffff00000000000000000000000000000000000000001673ffffffffffffffffffffffffffffffffffffffff83161790555b50565b60007f00000000000000000000000000000000000000000000000000000000000000004614610dee57610de96129f5565b905090565b507f000000000000000000000000000000000000000000000000000000000000000090565b3373ffffffffffffffffffffffffffffffffffffffff7f00000000000000000000000000000000000000000000000000000000000000001614610eb2576040517f08c379a000000000000000000000000000000000000000000000000000000000815260206004820152600c60248201527f503a20464f5242494444454e00000000000000000000000000000000000000006044820152606401610ae4565b806000108015610ec95750662386f26fc100008111155b610f2f576040517f08c379a000000000000000000000000000000000000000000000000000000000815260206004820152601d60248201527f4f573a20494e56414c49445f4348414e47455f5045525f5345434f4e440000006044820152606401610ae4565b6201000d5460408051918252602082018390527f807b9f5907da3f00bf587e77bc07247e1c7ff5ae46c93a584b3a075be0b1bac2910160405180910390a16201000d55565b600080600080610f82612a8f565b506cffffffffffffffffffffffffff9283169550911692509050610fa68383612bb5565b90935091506000610fb5612e85565b90506000610fc1612f54565b90506000610fcf8684614df4565b90506000610fdd8684614df4565b9050610fe98787612fed565b5060025460008190036110b0576103e86110926110068486614e07565b70ffffffffffffffffffffffffffffffffff811160071b81811c68ffffffffffffffffff1060061b1781811c64ffffffffff1060051b1781811c62ffffff1060041b1781811c620100000160b5600192831c1b0260121c80830401811c80830401811c80830401811c80830401811c80830401811c80830401811c80830401901c908190048111900390565b61109c9190614df4565b98506110ab60006103e861317a565b6110e5565b6110e2886110be8386614e07565b6110c89190614e4d565b886110d38486614e07565b6110dd9190614e4d565b6131f3565b98505b6000891161114f576040517f08c379a000000000000000000000000000000000000000000000000000000000815260206004820152601b60248201527f43503a20494e53554646494349454e545f4c49515f4d494e54454400000000006044820152606401610ae4565b6111598a8a61317a565b6111638486614e07565b6201001055604080518481526020810184905233917f4c209b5fc8ad50758f13e2e1088ba56a560dff690a1c6fef26394f4c03821c4f910160405180910390a26111b085858a8a8a613209565b6111b8613415565b5050505050505050919050565b60008060008060006111d5612a8f565b506cffffffffffffffffffffffffff92831695509116925090506111f98383612bb5565b3060009081526003602052604090205491945092506112188484612fed565b5060025480611225612e85565b61122f9084614e07565b6112399190614e4d565b965080611244612f54565b61124e9084614e07565b6112589190614e4d565b955061126430836134b2565b6112917f000000000000000000000000000000000000000000000000000000000000000089898888613540565b6112be7f000000000000000000000000000000000000000000000000000000000000000089888888613540565b60006112c8612e85565b905060006112d4612f54565b90506112e08183614e07565b6201001055604080518a8152602081018a905233917f49995e5dd6158cf69ad3e9777c46755a1a826a446c6416992167462dad033b2a910160405180910390a261132d8282898989613209565b611335613415565b50505050505050915091565b3373ffffffffffffffffffffffffffffffffffffffff7f000000000000000000000000000000000000000000000000000000000000000016146113e0576040517f08c379a000000000000000000000000000000000000000000000000000000000815260206004820152600c60248201527f503a20464f5242494444454e00000000000000000000000000000000000000006044820152606401610ae4565b60085460408051918252602082018390527f27f958341e42705d80835b6391cbe111df34533c7061beebb873bdb3454cc697910160405180910390a16008819055610db5610965565b6001805461086a90614d59565b600b5473ffffffffffffffffffffffffffffffffffffffff1633146114b7576040517f08c379a000000000000000000000000000000000000000000000000000000000815260206004820152601560248201527f414d503a20415554485f4e4f545f4d414e4147455200000000000000000000006044820152606401610ae4565b60008213156115615760006114cb8361380d565b600c805491925082916000906114f19084906cffffffffffffffffffffffffff16614e61565b92506101000a8154816cffffffffffffffffffffffffff02191690836cffffffffffffffffffffffffff16021790555061155b7f000000000000000000000000000000000000000000000000000000000000000033836cffffffffffffffffffffffffff166138b0565b50611610565b600082121561161057600061157d61157884614e8e565b61380d565b600c805491925082916000906115a39084906cffffffffffffffffffffffffff16614ec6565b92506101000a8154816cffffffffffffffffffffffffff02191690836cffffffffffffffffffffffffff16021790555061160e7f00000000000000000000000000000000000000000000000000000000000000003330846cffffffffffffffffffffffffff166138f9565b505b60008113156116bf5760006116248261380d565b905080600c600d8282829054906101000a90046cffffffffffffffffffffffffff166116509190614e61565b92506101000a8154816cffffffffffffffffffffffffff02191690836cffffffffffffffffffffffffff1602179055506116ba7f000000000000000000000000000000000000000000000000000000000000000033836cffffffffffffffffffffffffff166138b0565b505050565b600081121561176d5760006116d661157883614e8e565b905080600c600d8282829054906101000a90046cffffffffffffffffffffffffff166117029190614ec6565b92506101000a8154816cffffffffffffffffffffffffff02191690836cffffffffffffffffffffffffff1602179055506116ba7f00000000000000000000000000000000000000000000000000000000000000003330846cffffffffffffffffffffffffff166138f9565b5050565b60006117f4610a626040518060400160405280601881526020017f5368617265643a3a64656661756c745265636f766572657200000000000000008152507f000000000000000000000000000000000000000000000000000000000000000073ffffffffffffffffffffffffffffffffffffffff1661294a90919063ffffffff16565b90507f000000000000000000000000000000000000000000000000000000000000000073ffffffffffffffffffffffffffffffffffffffff168273ffffffffffffffffffffffffffffffffffffffff161415801561189e57507f000000000000000000000000000000000000000000000000000000000000000073ffffffffffffffffffffffffffffffffffffffff168273ffffffffffffffffffffffffffffffffffffffff1614155b611904576040517f08c379a000000000000000000000000000000000000000000000000000000000815260206004820152601b60248201527f503a20494e56414c49445f544f4b454e5f544f5f5245434f56455200000000006044820152606401610ae4565b73ffffffffffffffffffffffffffffffffffffffff8116611981576040517f08c379a000000000000000000000000000000000000000000000000000000000815260206004820152601960248201527f503a205245434f56455245525f5a45524f5f41444452455353000000000000006044820152606401610ae4565b6040517f70a0823100000000000000000000000000000000000000000000000000000000815230600482015260009073ffffffffffffffffffffffffffffffffffffffff8416906370a0823190602401602060405180830381865afa1580156119ee573d6000803e3d6000fd5b505050506040513d601f19601f82011682018060405250810190611a129190614dac565b9050611a1f838383613947565b50505050565b6040805160808101825260008082526020820181905291810182905260608101919091526201000f5473ffffffffffffffffffffffffffffffffffffffff163314611acc576040517f08c379a000000000000000000000000000000000000000000000000000000000815260206004820152601560248201527f4f573a204e4f545f4f5241434c455f43414c4c455200000000000000000000006044820152606401610ae4565b600d82620100008110611ae157611ae1614eec565b604080516080810182529290910154600d81900b83526e0100000000000000000000000000008104600690810b602085015275010000000000000000000000000000000000000000008204900b9183019190915263ffffffff7c010000000000000000000000000000000000000000000000000000000090910416606082015292915050565b33600090815260036020526040812080548391908390611b88908490614df4565b909155505073ffffffffffffffffffffffffffffffffffffffff8316600081815260036020526040908190208054850190555133907fddf252ad1be2c89b69c2b068fc378daa952ba7f163c4a11628f55a4df523b3ef906109539086815260200190565b3373ffffffffffffffffffffffffffffffffffffffff7f00000000000000000000000000000000000000000000000000000000000000001614611c8b576040517f08c379a000000000000000000000000000000000000000000000000000000000815260206004820152600c60248201527f503a20464f5242494444454e00000000000000000000000000000000000000006044820152606401610ae4565b600a5460408051918252602082018390527fe044af8ebdaeeed3e95065fac857c503c7eabb71acfbcdcb7823ec6ca603c26e910160405180910390a1600a819055610db5612226565b6000806000611ce1612a8f565b5092506cffffffffffffffffffffffffff1692506cffffffffffffffffffffffffff169250611d457f00000000000000000000000000000000000000000000000000000000000000008585611d34612e85565b611d3e9190614df4565b8686613540565b611d737f00000000000000000000000000000000000000000000000000000000000000008584611d34612f54565b611a1f81613ab7565b3373ffffffffffffffffffffffffffffffffffffffff7f00000000000000000000000000000000000000000000000000000000000000001614611e1b576040517f08c379a000000000000000000000000000000000000000000000000000000000815260206004820152600c60248201527f503a20464f5242494444454e00000000000000000000000000000000000000006044820152606401610ae4565b600c546cffffffffffffffffffffffffff16158015611e5a5750600c546d010000000000000000000000000090046cffffffffffffffffffffffffff16155b611ec0576040517f08c379a000000000000000000000000000000000000000000000000000000000815260206004820152601460248201527f414d503a20414d5f5354494c4c5f4143544956450000000000000000000000006044820152606401610ae4565b600b80547fffffffffffffffffffffffff00000000000000000000000000000000000000001673ffffffffffffffffffffffffffffffffffffffff92909216919091179055565b42841015611f71576040517f08c379a000000000000000000000000000000000000000000000000000000000815260206004820152601760248201527f5045524d49545f444541444c494e455f455850495245440000000000000000006044820152606401610ae4565b60006001611f7d610db8565b73ffffffffffffffffffffffffffffffffffffffff8a811660008181526005602090815260409182902080546001810190915582517f6e71edae12b1b97f4d1f60370fef10105fa2faae0126114a169c64845d6126c98184015280840194909452938d166060840152608083018c905260a083019390935260c08083018b90528151808403909101815260e0830190915280519201919091207f190100000000000000000000000000000000000000000000000000000000000061010083015261010282019290925261012281019190915261014201604080517fffffffffffffffffffffffffffffffffffffffffffffffffffffffffffffffe08184030181528282528051602091820120600084529083018083525260ff871690820152606081018590526080810184905260a0016020604051602081039080840390855afa1580156120cf573d6000803e3d6000fd5b50506040517fffffffffffffffffffffffffffffffffffffffffffffffffffffffffffffffe0015191505073ffffffffffffffffffffffffffffffffffffffff81161580159061214a57508773ffffffffffffffffffffffffffffffffffffffff168173ffffffffffffffffffffffffffffffffffffffff16145b6121b0576040517f08c379a000000000000000000000000000000000000000000000000000000000815260206004820152600e60248201527f494e56414c49445f5349474e45520000000000000000000000000000000000006044820152606401610ae4565b73ffffffffffffffffffffffffffffffffffffffff90811660009081526004602090815260408083208a8516808552908352928190208990555188815291928a16917f8c5be1e5ebec7d5bd14f71427d1e84f3dd0314c0f7b2291e5b200ac8c7c3b925910160405180910390a350505050505050565b60007fffffffffffffffffffffffffffffffffffffffffffffffffffffffffffffffff600a54036122d7576122d2610a626040518060400160405280601381526020017f5368617265643a3a706c6174666f726d466565000000000000000000000000008152507f000000000000000000000000000000000000000000000000000000000000000073ffffffffffffffffffffffffffffffffffffffff1661294a90919063ffffffff16565b6122db565b600a545b905060095481036122e95750565b6207a120811115612356576040517f08c379a000000000000000000000000000000000000000000000000000000000815260206004820152601760248201527f503a20494e56414c49445f504c4154464f524d5f4645450000000000000000006044820152606401610ae4565b60095460408051918252602082018390527fc98a8b10b63c929f7799380bb4a0c444c713ebf74d8732f944c915034121aad1910160405180910390a1600955565b6000806000806123a5612a8f565b5092506cffffffffffffffffffffffffff1692506cffffffffffffffffffffffffff16925088600003612434576040517f08c379a000000000000000000000000000000000000000000000000000000000815260206004820152600f60248201527f43503a20414d4f554e545f5a45524f00000000000000000000000000000000006044820152606401610ae4565b60008089156124bc5760008b1315612481577f000000000000000000000000000000000000000000000000000000000000000090508a915061247a828686600754613ac2565b9550612611565b507f00000000000000000000000000000000000000000000000000000000000000006124ac8b614e8e565b915061247a828587600754613ac2565b60008b1315612569578a9550848610612531576040517f08c379a000000000000000000000000000000000000000000000000000000000815260206004820152601260248201527f43503a204e4f545f454e4f5547485f4c495100000000000000000000000000006044820152606401610ae4565b7f00000000000000000000000000000000000000000000000000000000000000009050612562868587600754613bfe565b9150612611565b6125728b614e8e565b95508386106125dd576040517f08c379a000000000000000000000000000000000000000000000000000000000815260206004820152601260248201527f43503a204e4f545f454e4f5547485f4c495100000000000000000000000000006044820152606401610ae4565b7f0000000000000000000000000000000000000000000000000000000000000000905061260e868686600754613bfe565b91505b61261e818a888888613540565b861561275c578873ffffffffffffffffffffffffffffffffffffffff16634fc7c217337f000000000000000000000000000000000000000000000000000000000000000073ffffffffffffffffffffffffffffffffffffffff168473ffffffffffffffffffffffffffffffffffffffff16146126a25761269d85614e8e565b6126a4565b885b7f000000000000000000000000000000000000000000000000000000000000000073ffffffffffffffffffffffffffffffffffffffff168573ffffffffffffffffffffffffffffffffffffffff16146127055761270086614e8e565b612707565b895b8c8c6040518663ffffffff1660e01b8152600401612729959493929190614f1b565b600060405180830381600087803b15801561274357600080fd5b505af1158015612757573d6000803e3d6000fd5b505050505b6000612766612e85565b90506000612772612f54565b905060007f000000000000000000000000000000000000000000000000000000000000000073ffffffffffffffffffffffffffffffffffffffff168473ffffffffffffffffffffffffffffffffffffffff16146127d8576127d38884614df4565b6127e2565b6127e28783614df4565b90508085111561284e576040517f08c379a000000000000000000000000000000000000000000000000000000000815260206004820152601a60248201527f43503a20494e53554646494349454e545f414d4f554e545f494e0000000000006044820152606401610ae4565b61285b83838a8a8a613209565b6040805173ffffffffffffffffffffffffffffffffffffffff8681167f00000000000000000000000000000000000000000000000000000000000000008216148252602082018490529181018b9052908d169033907f66251e495e6e69e208ab08e2bc259dbe2ef482a8c4a93b8984b03a1eb27e1b9e9060600160405180910390a3505050505050505095945050505050565b60008060006128fb612a8f565b5092506cffffffffffffffffffffffffff1692506cffffffffffffffffffffffffff16925061292a8383612bb5565b90935091506116ba61293a612e85565b612942612f54565b858585613209565b60008273ffffffffffffffffffffffffffffffffffffffff16638eaa6ac0836040516020016129799190614f93565b604051602081830303815290604052805190602001206040518263ffffffff1660e01b81526004016129ad91815260200190565b602060405180830381865afa1580156129ca573d6000803e3d6000fd5b505050506040513d601f19601f820116820180604052508101906129ee9190614dac565b9392505050565b60007f8b73c3c69bb8fe3d512ecc4cf759cc79239f7b179b0ffacaa9a75d522b39400f6000604051612a279190614faf565b6040805191829003822060208301939093528101919091527fc89efdaa54c0f20c7adf612882df0950f5a951637e0307cdcb4c672f298b8bc660608201524660808201523060a082015260c00160405160208183030381529060405280519060200120905090565b604080516080810182526006546cffffffffffffffffffffffffff8082168084526d01000000000000000000000000008304909116602084018190527a010000000000000000000000000000000000000000000000000000830463ffffffff8116958501959095527e0100000000000000000000000000000000000000000000000000000000000090920461ffff166060840181905290939192637fffffff831692601f1c6001908116148015612ba2576040517f08c379a000000000000000000000000000000000000000000000000000000000815260206004820152600a60248201527f5245454e5452414e4359000000000000000000000000000000000000000000006044820152606401610ae4565b612bad846001613d40565b505090919293565b600b54600090819073ffffffffffffffffffffffffffffffffffffffff16612be1575082905081612e7e565b600b546040517fd4fac45d00000000000000000000000000000000000000000000000000000000815230600482015273ffffffffffffffffffffffffffffffffffffffff7f000000000000000000000000000000000000000000000000000000000000000081166024830152600092169063d4fac45d906044016020604051808303816000875af1158015612c7a573d6000803e3d6000fd5b505050506040513d601f19601f82011682018060405250810190612c9e9190614dac565b600b546040517fd4fac45d00000000000000000000000000000000000000000000000000000000815230600482015273ffffffffffffffffffffffffffffffffffffffff7f0000000000000000000000000000000000000000000000000000000000000000811660248301529293506000929091169063d4fac45d906044016020604051808303816000875af1158015612d3c573d6000803e3d6000fd5b505050506040513d601f19601f82011682018060405250810190612d609190614dac565b600c54909150612da3907f00000000000000000000000000000000000000000000000000000000000000009088906cffffffffffffffffffffffffff1685613dae565b600c54909450612df7907f00000000000000000000000000000000000000000000000000000000000000009087906d010000000000000000000000000090046cffffffffffffffffffffffffff1684613dae565b9250612e028261380d565b600c80547fffffffffffffffffffffffffffffffffffffff00000000000000000000000000166cffffffffffffffffffffffffff92909216919091179055612e498161380d565b600c600d6101000a8154816cffffffffffffffffffffffffff02191690836cffffffffffffffffffffffffff16021790555050505b9250929050565b600c546040517f70a082310000000000000000000000000000000000000000000000000000000081523060048201526000916cffffffffffffffffffffffffff16907f000000000000000000000000000000000000000000000000000000000000000073ffffffffffffffffffffffffffffffffffffffff16906370a08231906024015b602060405180830381865afa158015612f26573d6000803e3d6000fd5b505050506040513d601f19601f82011682018060405250810190612f4a9190614dac565b610de99190615085565b600c546040517f70a082310000000000000000000000000000000000000000000000000000000081523060048201526000916d010000000000000000000000000090046cffffffffffffffffffffffffff16907f000000000000000000000000000000000000000000000000000000000000000073ffffffffffffffffffffffffffffffffffffffff16906370a0823190602401612f09565b6009541580159061316357600061308e620100105470ffffffffffffffffffffffffffffffffff811160071b81811c68ffffffffffffffffff1060061b1781811c64ffffffffff1060051b1781811c62ffffff1060041b1781811c620100000160b5600192831c1b0260121c80830401811c80830401811c80830401811c80830401811c80830401811c80830401811c80830401901c908190048111900390565b9050801561315d5760006130a56110068587614e07565b90508181111561315b5760006130c18284600954600254613ea3565b90506000613146610a626040518060400160405280601581526020017f5368617265643a3a706c6174666f726d466565546f00000000000000000000008152507f000000000000000000000000000000000000000000000000000000000000000073ffffffffffffffffffffffffffffffffffffffff1661294a90919063ffffffff16565b9050811561315857613158818361317a565b50505b505b5061095f565b62010010541561095f576000620100105592915050565b806002600082825461318c9190615085565b909155505073ffffffffffffffffffffffffffffffffffffffff82166000818152600360209081526040808320805486019055518481527fddf252ad1be2c89b69c2b068fc378daa952ba7f163c4a11628f55a4df523b3ef91015b60405180910390a35050565b600081831061320257816129ee565b5090919050565b6cffffffffffffffffffffffffff851180159061323357506cffffffffffffffffffffffffff8411155b613299576040517f08c379a000000000000000000000000000000000000000000000000000000000815260206004820152600c60248201527f52503a204f564552464c4f5700000000000000000000000000000000000000006044820152606401610ae4565b6cffffffffffffffffffffffffff83118015906132c357506cffffffffffffffffffffffffff8211155b613329576040517f08c379a000000000000000000000000000000000000000000000000000000000815260206004820152600c60248201527f52503a204f564552464c4f5700000000000000000000000000000000000000006044820152606401610ae4565b6000613333613f4c565b905081810363ffffffff81161580159061334c57508415155b801561335757508315155b156133685761336885858386613f5c565b600680546cffffffffffffffffffffffffff8881166d0100000000000000000000000000027fffffffffffff0000000000000000000000000000000000000000000000000000909216908a16171790556133c3826000613d40565b604080516cffffffffffffffffffffffffff808a168252881660208201527fff388a12130349259b5ae24af90448f511c2340be808f2c371230fc2da175c44910160405180910390a150505050505050565b600b5473ffffffffffffffffffffffffffffffffffffffff1661343457565b600b60009054906101000a900473ffffffffffffffffffffffffffffffffffffffff1673ffffffffffffffffffffffffffffffffffffffff1663016312bd6040518163ffffffff1660e01b8152600401600060405180830381600087803b15801561349e57600080fd5b505af1158015611a1f573d6000803e3d6000fd5b73ffffffffffffffffffffffffffffffffffffffff8216600090815260036020526040812080548392906134e7908490614df4565b909155505060028054829003905560405181815260009073ffffffffffffffffffffffffffffffffffffffff8416907fddf252ad1be2c89b69c2b068fc378daa952ba7f163c4a11628f55a4df523b3ef906020016131e7565b61354b858585613947565b6138065760007f000000000000000000000000000000000000000000000000000000000000000073ffffffffffffffffffffffffffffffffffffffff168673ffffffffffffffffffffffffffffffffffffffff16146135cc57600c546d010000000000000000000000000090046cffffffffffffffffffffffffff166135df565b600c546cffffffffffffffffffffffffff165b6cffffffffffffffffffffffffff16905060007f000000000000000000000000000000000000000000000000000000000000000073ffffffffffffffffffffffffffffffffffffffff168773ffffffffffffffffffffffffffffffffffffffff161461364b578261364d565b835b90508461365a8383614df4565b10156137a157600b5473ffffffffffffffffffffffffffffffffffffffff90811690631566d96d907f00000000000000000000000000000000000000000000000000000000000000008116908a16146136b38585614df4565b6136bd9089614df4565b6040517fffffffff0000000000000000000000000000000000000000000000000000000060e085901b16815291151560048301526024820152604401600060405180830381600087803b15801561371357600080fd5b505af1158015613727573d6000803e3d6000fd5b50505050613736878787613947565b61379c576040517f08c379a000000000000000000000000000000000000000000000000000000000815260206004820152601360248201527f52503a205452414e534645525f4641494c4544000000000000000000000000006044820152606401610ae4565b613803565b6040517f08c379a000000000000000000000000000000000000000000000000000000000815260206004820152601360248201527f52503a205452414e534645525f4641494c4544000000000000000000000000006044820152606401610ae4565b50505b5050505050565b60006cffffffffffffffffffffffffff8211156138ac576040517f08c379a000000000000000000000000000000000000000000000000000000000815260206004820152602760248201527f53616665436173743a2076616c756520646f65736e27742066697420696e203160448201527f30342062697473000000000000000000000000000000000000000000000000006064820152608401610ae4565b5090565b81601a5280603a5269a9059cbb00000000000060005260206000604460166000875af13d1560016000511417166138ef576390b8ec186000526004601cfd5b6000603a52505050565b6040516323b872dd600052836020528260405281606052602060006064601c6000895af13d15600160005114171661393957637939f4246000526004601cfd5b600060605260405250505050565b60008060008573ffffffffffffffffffffffffffffffffffffffff167fa9059cbb2ab09eb219583f4a59a5d0623ade346d962bcd4e46b11da047c9049b86866040516024016139b892919073ffffffffffffffffffffffffffffffffffffffff929092168252602082015260400190565b604080517fffffffffffffffffffffffffffffffffffffffffffffffffffffffffffffffe08184030181529181526020820180517bffffffffffffffffffffffffffffffffffffffffffffffffffffffff167fffffffff00000000000000000000000000000000000000000000000000000000909416939093179092529051613a419190614f93565b6000604051808303816000865af19150503d8060008114613a7e576040519150601f19603f3d011682016040523d82523d6000602084013e613a83565b606091505b5091509150818015613aad575080511580613aad575080806020019051810190613aad9190615098565b9695505050505050565b610db5816000613d40565b6000808511613b2d576040517f08c379a000000000000000000000000000000000000000000000000000000000815260206004820152601d60248201527f43503a20494e53554646494349454e545f494e5055545f414d4f554e540000006044820152606401610ae4565b600084118015613b3d5750600083115b613ba3576040517f08c379a000000000000000000000000000000000000000000000000000000000815260206004820152601a60248201527f43503a20494e53554646494349454e545f4c49515549444954590000000000006044820152606401610ae4565b6000613bb283620f4240614df4565b613bbc9087614e07565b90506000613bca8583614e07565b9050600082613bdc620f424089614e07565b613be69190615085565b9050613bf28183614e4d565b98975050505050505050565b6000808511613c69576040517f08c379a000000000000000000000000000000000000000000000000000000000815260206004820152601e60248201527f43503a20494e53554646494349454e545f4f55545055545f414d4f554e5400006044820152606401610ae4565b600084118015613c795750600083115b613cdf576040517f08c379a000000000000000000000000000000000000000000000000000000000815260206004820152601a60248201527f43503a20494e53554646494349454e545f4c49515549444954590000000000006044820152606401610ae4565b6000620f4240613cef8787614e07565b613cf99190614e07565b90506000613d0a84620f4240614df4565b613d148887614df4565b613d1e9190614e07565b9050613d2a8183614e4d565b613d35906001615085565b979650505050505050565b600081613d4e576000613d54565b63800000005b6006805463ffffffff95909217949094167a010000000000000000000000000000000000000000000000000000027fffff00000000ffffffffffffffffffffffffffffffffffffffffffffffffffff909116179092555050565b600082821115613e28576000613dc48484614df4565b6040805173ffffffffffffffffffffffffffffffffffffffff89168152602081018390529192507fd85f20827037d49bc45762fefff2ddfe9a1a5412ad3dfc1cdca78d2e52f4ba23910160405180910390a1613e208186615085565b915050613e9b565b82821015613e98576000613e3c8385614df4565b6040805173ffffffffffffffffffffffffffffffffffffffff89168152602081018390529192507f3ffa9beb41b46c88b16758ef6c236ebd4d07cdfd4d22471030eb6b2d662482d9910160405180910390a1613e208186614df4565b50825b949350505050565b600080846f4b3b4ca85a86c47a098a224000000000870281613ec757613ec7614e1e565b0490506000817f161bcca7119915b50764b4abe86529797775a5f171951000000000000000000081613efb57613efb614e1e565b046f4b3b4ca85a86c47a098a2240000000000390506000620f4240868302049050806f4b3b4ca85a86c47a098a2240000000000385820281613f3f57613f3f614e1e565b0498975050505050505050565b6000610de96380000000426150b5565b600654600090600d907e01000000000000000000000000000000000000000000000000000000000000900461ffff16620100008110613f9d57613f9d614eec565b019050600080614023613fe26fffffffffffffffffffffffffffffffff7f00000000000000000000000000000000000000000000000000000000000000001689614e07565b61401e6fffffffffffffffffffffffffffffffff7f00000000000000000000000000000000000000000000000000000000000000001689614e07565b614248565b9150915060008061403f846201000e548963ffffffff166142b9565b91509150600061404f8a8a6143bd565b9050826201000e8190555060008863ffffffff1685028760000160009054906101000a9004600d0b01905060008963ffffffff16840288600001600e9054906101000a900460060b01905060008a63ffffffff1684028960000160159054906101000a900460060b01905060016006600001601e8282829054906101000a900461ffff160192506101000a81548161ffff021916908361ffff160217905550604051806080016040528084600d0b81526020018360060b81526020018260060b81526020018b63ffffffff16815250600d6006600001601e9054906101000a900461ffff1661ffff1662010000811061414a5761414a614eec565b825191018054602084015160408501516060909501516dffffffffffffffffffffffffffff9094167fffffffffffffffffffffff000000000000000000000000000000000000000000909216919091176e01000000000000000000000000000066ffffffffffffff928316021774ffffffffffffffffffffffffffffffffffffffffff16750100000000000000000000000000000000000000000091909416027bffffffffffffffffffffffffffffffffffffffffffffffffffffffff16929092177c010000000000000000000000000000000000000000000000000000000063ffffffff9092169190910217905550505050505050505050505050565b6000806142558385614426565b915060006142628361447d565b90507fffffffffffffffffffffffffffffffffffff800000000000000000000000000081128015906142a257506d7fffffffffffffffffffffffffff8113155b6142ae576142ae6150c9565b809150509250929050565b600080836000036142d757846142ce8661447d565b915091506143b5565b826201000d546142e79190614e07565b6142f186866144bd565b11156143a6578385111561434557670de0b6b3a7640000836201000d546143189190614e07565b61432a90670de0b6b3a7640000615085565b6143349086614e07565b61433e9190614e4d565b9150614396565b848411614354576143546150c9565b670de0b6b3a7640000836201000d5461436d9190614e07565b61437f90670de0b6b3a7640000614df4565b6143899086614e07565b6143939190614e4d565b91505b61439f8261447d565b90506143b5565b8491506143b28561447d565b90505b935093915050565b6000806143cd6110068486614e07565b905060006143da8261447d565b90507fffffffffffffffffffffffffffffffffffff8000000000000000000000000000811280159061441a57506d7fffffffffffffffffffffffffff8113155b613e9b57613e9b6150c9565b60007812725dd1d243aba0e75fe645cc4873f9e65afe688c928e1f218311670de0b6b3a76400000215820261446357637c5f487d6000526004601cfd5b50670de0b6b3a76400009190910281810615159190040190565b600080614489836144e9565b905060008082136144a257652d79883d200082036144ac565b652d79883d200082015b655af3107a40009005949350505050565b6000806144ca84846145a6565b9050826144df82670de0b6b3a7640000614e07565b613e9b9190614e4d565b6000808213614554576040517f08c379a000000000000000000000000000000000000000000000000000000000815260206004820152601160248201527f454d3a204f55545f4f465f424f554e44530000000000000000000000000000006044820152606401610ae4565b670c7d713b49da0000821380156145725750670f43fc2c04ee000082125b1561459d57670de0b6b3a7640000614589836145c8565b8161459657614596614e1e565b0592915050565b61095f82614700565b60008183116145be576145b98383614df4565b6129ee565b6129ee8284614df4565b670de0b6b3a7640000026000806ec097ce7bc90715b34b9f1000000000808401907fffffffffffffffffffffffffffffffffff3f68318436f8ea4cb460f0000000008501028161461a5761461a614e1e565b05905060006ec097ce7bc90715b34b9f100000000082800205905081806ec097ce7bc90715b34b9f100000000081840205915060038205016ec097ce7bc90715b34b9f100000000082840205915060058205016ec097ce7bc90715b34b9f100000000082840205915060078205016ec097ce7bc90715b34b9f100000000082840205915060098205016ec097ce7bc90715b34b9f1000000000828402059150600b8205016ec097ce7bc90715b34b9f1000000000828402059150600d8205016ec097ce7bc90715b34b9f1000000000828402059150600f82050160020295945050505050565b6000670de0b6b3a764000082121561474257614739826ec097ce7bc90715b34b9f10000000008161473357614733614e1e565b05614700565b60000392915050565b60007e1600ef3172e58d2e933ec884fde10064c63b5372d805e203c0000000000000831261479357770195e54c5dd42177f53a27172fa9ec630262827000000000830592506806f05b59d3b2000000015b73011798004d755d3c8bc8e03204cf44619e00000083126147cb576b1425982cf597cd205cef7380830592506803782dace9d9000000015b606492830292026e01855144814a7ff805980ff00840008312614813576e01855144814a7ff805980ff008400068056bc75e2d63100000840205925068ad78ebc5ac62000000015b6b02df0ab5a80a22c61ab5a700831261484e576b02df0ab5a80a22c61ab5a70068056bc75e2d6310000084020592506856bc75e2d631000000015b693f1fce3da636ea5cf850831261488557693f1fce3da636ea5cf85068056bc75e2d631000008402059250682b5e3af16b18800000015b690127fa27722cc06cc5e283126148bc57690127fa27722cc06cc5e268056bc75e2d6310000084020592506815af1d78b58c400000015b68280e60114edb805d0383126148f15768280e60114edb805d0368056bc75e2d631000008402059250680ad78ebc5ac6200000015b680ebc5fb41746121110831261491c57680ebc5fb4174612111068056bc75e2d631000009384020592015b6808f00f760a4b2db55d8312614951576808f00f760a4b2db55d68056bc75e2d6310000084020592506802b5e3af16b1880000015b6806f5f17757889379378312614986576806f5f177578893793768056bc75e2d63100000840205925068015af1d78b58c40000015b6806248f33704b28660383126149ba576806248f33704b28660368056bc75e2d63100000840205925067ad78ebc5ac620000015b6805c548670b9510e7ac83126149ee576805c548670b9510e7ac68056bc75e2d6310000084020592506756bc75e2d6310000015b600068056bc75e2d63100000840168056bc75e2d631000008086030281614a1757614a17614e1e565b059050600068056bc75e2d63100000828002059050818068056bc75e2d63100000818402059150600382050168056bc75e2d63100000828402059150600582050168056bc75e2d63100000828402059150600782050168056bc75e2d63100000828402059150600982050168056bc75e2d63100000828402059150600b820501600202606485820105979650505050505050565b60005b83811015614ac6578181015183820152602001614aae565b50506000910152565b6020815260008251806020840152614aee816040850160208701614aab565b601f017fffffffffffffffffffffffffffffffffffffffffffffffffffffffffffffffe0169190910160400192915050565b73ffffffffffffffffffffffffffffffffffffffff81168114610db557600080fd5b60008060408385031215614b5557600080fd5b8235614b6081614b20565b946020939093013593505050565b600080600060608486031215614b8357600080fd5b8335614b8e81614b20565b92506020840135614b9e81614b20565b929592945050506040919091013590565b600060208284031215614bc157600080fd5b5035919050565b600060208284031215614bda57600080fd5b81356129ee81614b20565b60008060408385031215614bf857600080fd5b50508035926020909101359150565b600080600080600080600060e0888a031215614c2257600080fd5b8735614c2d81614b20565b96506020880135614c3d81614b20565b95506040880135945060608801359350608088013560ff81168114614c6157600080fd5b9699959850939692959460a0840135945060c09093013592915050565b60008060408385031215614c9157600080fd5b8235614c9c81614b20565b915060208301356142ae81614b20565b8015158114610db557600080fd5b600080600080600060808688031215614cd257600080fd5b853594506020860135614ce481614cac565b93506040860135614cf481614b20565b9250606086013567ffffffffffffffff80821115614d1157600080fd5b818801915088601f830112614d2557600080fd5b813581811115614d3457600080fd5b896020828501011115614d4657600080fd5b9699959850939650602001949392505050565b600181811c90821680614d6d57607f821691505b602082108103614da6577f4e487b7100000000000000000000000000000000000000000000000000000000600052602260045260246000fd5b50919050565b600060208284031215614dbe57600080fd5b5051919050565b7f4e487b7100000000000000000000000000000000000000000000000000000000600052601160045260246000fd5b8181038181111561095f5761095f614dc5565b808202811582820484141761095f5761095f614dc5565b7f4e487b7100000000000000000000000000000000000000000000000000000000600052601260045260246000fd5b600082614e5c57614e5c614e1e565b500490565b6cffffffffffffffffffffffffff818116838216019080821115614e8757614e87614dc5565b5092915050565b60007f80000000000000000000000000000000000000000000000000000000000000008203614ebf57614ebf614dc5565b5060000390565b6cffffffffffffffffffffffffff828116828216039080821115614e8757614e87614dc5565b7f4e487b7100000000000000000000000000000000000000000000000000000000600052603260045260246000fd5b73ffffffffffffffffffffffffffffffffffffffff8616815284602082015283604082015260806060820152816080820152818360a0830137600081830160a090810191909152601f9092017fffffffffffffffffffffffffffffffffffffffffffffffffffffffffffffffe0160101949350505050565b60008251614fa5818460208701614aab565b9190910192915050565b600080835481600182811c915080831680614fcb57607f831692505b60208084108203615003577f4e487b710000000000000000000000000000000000000000000000000000000086526022600452602486fd5b818015615017576001811461504a57615077565b7fffffffffffffffffffffffffffffffffffffffffffffffffffffffffffffff0086168952841515850289019650615077565b60008a81526020902060005b8681101561506f5781548b820152908501908301615056565b505084890196505b509498975050505050505050565b8082018082111561095f5761095f614dc5565b6000602082840312156150aa57600080fd5b81516129ee81614cac565b6000826150c4576150c4614e1e565b500690565b7f4e487b7100000000000000000000000000000000000000000000000000000000600052600160045260246000fdfea164736f6c6343000811000a",
    "linkReferences": {}
  },
  "methodIdentifiers": {
    "ACCURACY()": "fbcd9b05",
    "DOMAIN_SEPARATOR()": "3644e515",
    "FEE_ACCURACY()": "db6488dc",
    "MAX_PLATFORM_FEE()": "3998a681",
    "MAX_SWAP_FEE()": "ab3d8544",
    "MINIMUM_LIQUIDITY()": "ba9a7a56",
    "SQUARED_ACCURACY()": "48ee4332",
    "adjustManagement(int256,int256)": "97e37764",
    "allowance(address,address)": "dd62ed3e",
    "approve(address,uint256)": "095ea7b3",
    "assetManager()": "94217ad1",
    "balanceOf(address)": "70a08231",
    "burn(address)": "89afcb44",
    "customPlatformFee()": "7c3cbc7c",
    "customSwapFee()": "c58771ef",
    "decimals()": "313ce567",
    "factory()": "c45a0155",
    "getReserves()": "0902f1ac",
    "kLast()": "7464fc3d",
    "maxChangeRate()": "85faf624",
    "mint(address)": "6a627842",
    "name()": "06fdde03",
    "nonces(address)": "7ecebe00",
    "observation(uint256)": "9d62a694",
    "oracleCaller()": "b62221e0",
    "permit(address,address,uint256,uint256,uint8,bytes32,bytes32)": "d505accf",
    "platformFee()": "26232a2e",
    "prevClampedPrice()": "495bc0fb",
    "recoverToken(address)": "9be65a60",
    "setCustomPlatformFee(uint256)": "afb4a43b",
    "setCustomSwapFee(uint256)": "9568e73b",
    "setManager(address)": "d0ebdbe7",
    "setMaxChangeRate(uint256)": "4dfa1ff9",
    "skim(address)": "bc25cf77",
    "swap(int256,bool,address,bytes)": "e12bd9d8",
    "swapFee()": "54cf2aeb",
    "symbol()": "95d89b41",
    "sync()": "fff6cae9",
    "token0()": "0dfe1681",
    "token0Managed()": "e9bdf7b8",
    "token1()": "d21220a7",
    "token1Managed()": "ad7853e9",
    "totalSupply()": "18160ddd",
    "transfer(address,uint256)": "a9059cbb",
    "transferFrom(address,address,uint256)": "23b872dd",
    "updateOracleCaller()": "31c49074",
    "updatePlatformFee()": "dbc781bc",
    "updateSwapFee()": "0c472afd"
  },
  "id": 68
}