{
  "abi": [
    {
      "inputs": [
        {
          "internalType": "address",
          "name": "aOwner",
          "type": "address"
        }
      ],
      "stateMutability": "nonpayable",
      "type": "constructor"
    },
    {
      "anonymous": false,
      "inputs": [
        {
          "indexed": false,
          "internalType": "bytes32",
          "name": "codeId",
          "type": "bytes32"
        },
        {
          "indexed": false,
          "internalType": "address",
          "name": "_address",
          "type": "address"
        }
      ],
      "name": "Deployed",
      "type": "event"
    },
    {
      "anonymous": false,
      "inputs": [
        {
          "indexed": true,
          "internalType": "address",
          "name": "user",
          "type": "address"
        },
        {
          "indexed": true,
          "internalType": "address",
          "name": "newOwner",
          "type": "address"
        }
      ],
      "name": "OwnershipTransferred",
      "type": "event"
    },
    {
      "anonymous": false,
      "inputs": [
        {
          "indexed": true,
          "internalType": "address",
          "name": "token0",
          "type": "address"
        },
        {
          "indexed": true,
          "internalType": "address",
          "name": "token1",
          "type": "address"
        },
        {
          "indexed": false,
          "internalType": "uint256",
          "name": "curveId",
          "type": "uint256"
        },
        {
          "indexed": false,
          "internalType": "address",
          "name": "pair",
          "type": "address"
        }
      ],
      "name": "PairCreated",
      "type": "event"
    },
    {
      "inputs": [
        {
          "internalType": "uint256",
          "name": "",
          "type": "uint256"
        }
      ],
      "name": "_curves",
      "outputs": [
        {
          "internalType": "bytes32",
          "name": "",
          "type": "bytes32"
        }
      ],
      "stateMutability": "view",
      "type": "function"
    },
    {
      "inputs": [
        {
          "internalType": "bytes",
          "name": "aInitCode",
          "type": "bytes"
        }
      ],
      "name": "addBytecode",
      "outputs": [
        {
          "internalType": "bytes32",
          "name": "rCodeKey",
          "type": "bytes32"
        }
      ],
      "stateMutability": "nonpayable",
      "type": "function"
    },
    {
      "inputs": [
        {
          "internalType": "bytes",
          "name": "aInitCode",
          "type": "bytes"
        }
      ],
      "name": "addCurve",
      "outputs": [
        {
          "internalType": "uint256",
          "name": "rCurveId",
          "type": "uint256"
        },
        {
          "internalType": "bytes32",
          "name": "rCodeKey",
          "type": "bytes32"
        }
      ],
      "stateMutability": "nonpayable",
      "type": "function"
    },
    {
      "inputs": [],
      "name": "allPairs",
      "outputs": [
        {
          "internalType": "address[]",
          "name": "",
          "type": "address[]"
        }
      ],
      "stateMutability": "view",
      "type": "function"
    },
    {
      "inputs": [
        {
          "internalType": "address",
          "name": "aTokenA",
          "type": "address"
        },
        {
          "internalType": "address",
          "name": "aTokenB",
          "type": "address"
        },
        {
          "internalType": "uint256",
          "name": "aCurveId",
          "type": "uint256"
        }
      ],
      "name": "createPair",
      "outputs": [
        {
          "internalType": "address",
          "name": "rPair",
          "type": "address"
        }
      ],
      "stateMutability": "nonpayable",
      "type": "function"
    },
    {
      "inputs": [],
      "name": "curves",
      "outputs": [
        {
          "internalType": "bytes32[]",
          "name": "",
          "type": "bytes32[]"
        }
      ],
      "stateMutability": "view",
      "type": "function"
    },
    {
      "inputs": [
        {
          "internalType": "bytes32",
          "name": "aCodeKey",
          "type": "bytes32"
        },
        {
          "internalType": "address",
          "name": "aToken0",
          "type": "address"
        },
        {
          "internalType": "address",
          "name": "aToken1",
          "type": "address"
        }
      ],
      "name": "deploySharedContract",
      "outputs": [
        {
          "internalType": "address",
          "name": "rContract",
          "type": "address"
        }
      ],
      "stateMutability": "nonpayable",
      "type": "function"
    },
    {
      "inputs": [
        {
          "internalType": "bytes32",
          "name": "",
          "type": "bytes32"
        }
      ],
      "name": "get",
      "outputs": [
        {
          "internalType": "bytes32",
          "name": "",
          "type": "bytes32"
        }
      ],
      "stateMutability": "view",
      "type": "function"
    },
    {
      "inputs": [
        {
          "internalType": "bytes32",
          "name": "aCodeKey",
          "type": "bytes32"
        },
        {
          "internalType": "address",
          "name": "aToken0",
          "type": "address"
        },
        {
          "internalType": "address",
          "name": "aToken1",
          "type": "address"
        }
      ],
      "name": "getBytecode",
      "outputs": [
        {
          "internalType": "bytes",
          "name": "",
          "type": "bytes"
        }
      ],
      "stateMutability": "view",
      "type": "function"
    },
    {
      "inputs": [
        {
          "internalType": "address",
          "name": "",
          "type": "address"
        },
        {
          "internalType": "address",
          "name": "",
          "type": "address"
        },
        {
          "internalType": "uint256",
          "name": "",
          "type": "uint256"
        }
      ],
      "name": "getPair",
      "outputs": [
        {
          "internalType": "address",
          "name": "",
          "type": "address"
        }
      ],
      "stateMutability": "view",
      "type": "function"
    },
    {
      "inputs": [],
      "name": "owner",
      "outputs": [
        {
          "internalType": "address",
          "name": "",
          "type": "address"
        }
      ],
      "stateMutability": "view",
      "type": "function"
    },
    {
      "inputs": [
        {
          "internalType": "address",
          "name": "aTarget",
          "type": "address"
        },
        {
          "internalType": "bytes",
          "name": "aCalldata",
          "type": "bytes"
        },
        {
          "internalType": "uint256",
          "name": "aValue",
          "type": "uint256"
        }
      ],
      "name": "rawCall",
      "outputs": [
        {
          "internalType": "bytes",
          "name": "",
          "type": "bytes"
        }
      ],
      "stateMutability": "nonpayable",
      "type": "function"
    },
    {
      "inputs": [
        {
          "internalType": "bytes32",
          "name": "aKey",
          "type": "bytes32"
        },
        {
          "internalType": "bytes32",
          "name": "aValue",
          "type": "bytes32"
        }
      ],
      "name": "set",
      "outputs": [],
      "stateMutability": "nonpayable",
      "type": "function"
    },
    {
      "inputs": [
        {
          "internalType": "address",
          "name": "newOwner",
          "type": "address"
        }
      ],
      "name": "transferOwnership",
      "outputs": [],
      "stateMutability": "nonpayable",
      "type": "function"
    }
  ],
  "bytecode": {
    "object": "0x608060405234801561001057600080fd5b5060405161157338038061157383398101604081905261002f9161007e565b600080546001600160a01b0319166001600160a01b03831690811782556040518392907f8be0079c531659141344cd1fd0a4f28419497f9722a3daafe3b4186f6b6457e0908290a350506100ae565b60006020828403121561009057600080fd5b81516001600160a01b03811681146100a757600080fd5b9392505050565b6114b6806100bd6000396000f3fe608060405234801561001057600080fd5b50600436106100ea5760003560e01c8063b16965af1161008c578063d47e9c4711610066578063d47e9c4714610248578063f2fde38b1461025b578063f71f7a2514610270578063ff6eef521461028357600080fd5b8063b16965af1461020d578063c97682f814610220578063d025dde21461023557600080fd5b806366d3fede116100c857806366d3fede146101995780636b600d1c146101ac5780638da5cb5b146101bf5780638eaa6ac0146101df57600080fd5b80635accf175146100ef5780635eced4801461010d57806365d0123f14610179575b600080fd5b6100f76102ab565b60405161010491906110af565b60405180910390f35b61015461011b36600461111c565b600460209081526000938452604080852082529284528284209052825290205473ffffffffffffffffffffffffffffffffffffffff1681565b60405173ffffffffffffffffffffffffffffffffffffffff9091168152602001610104565b61018c610187366004611158565b610303565b6040516101049190611202565b61018c6101a7366004611257565b6103c8565b6101546101ba36600461111c565b6104d2565b6000546101549073ffffffffffffffffffffffffffffffffffffffff1681565b6101ff6101ed3660046112b1565b60016020526000908152604090205481565b604051908152602001610104565b61015461021b366004611158565b61083d565b61022861093b565b60405161010491906112ca565b6101ff610243366004611318565b6109a9565b6101ff6102563660046112b1565b610a56565b61026e61026936600461135a565b610a77565b005b61026e61027e366004611375565b610b68565b610296610291366004611318565b610bfb565b60408051928352602083019190915201610104565b606060038054806020026020016040519081016040528092919081815260200182805480156102f957602002820191906000526020600020905b8154815260200190600101908083116102e5575b5050505050905090565b600083815260026020908152604080832090516060939192909190820190805b84548110156103a857600085828154811061034057610340611397565b600091825260208220015473ffffffffffffffffffffffffffffffffffffffff16915061036f6001833b6113f5565b905080600186843c8481016040526103878186611408565b94506103938185611408565b93505050806103a19061141b565b9050610323565b509581526020810194909452604094850181529284019093525092915050565b60005460609073ffffffffffffffffffffffffffffffffffffffff163314610451576040517f08c379a000000000000000000000000000000000000000000000000000000000815260206004820152600c60248201527f554e415554484f52495a4544000000000000000000000000000000000000000060448201526064015b60405180910390fd5b6104c78585858080601f0160208091040260200160405190810160405280939291908181526020018383808284376000920191909152505060408051808201909152601a81527f464143544f52593a205241575f43414c4c5f524556455254454400000000000060208201528792509050610ce7565b90505b949350505050565b60008273ffffffffffffffffffffffffffffffffffffffff168473ffffffffffffffffffffffffffffffffffffffff1603610569576040517f08c379a000000000000000000000000000000000000000000000000000000000815260206004820152601c60248201527f464143544f52593a204944454e544943414c5f414444524553534553000000006044820152606401610448565b73ffffffffffffffffffffffffffffffffffffffff84166105e6576040517f08c379a000000000000000000000000000000000000000000000000000000000815260206004820152601560248201527f464143544f52593a205a45524f5f4144445245535300000000000000000000006044820152606401610448565b73ffffffffffffffffffffffffffffffffffffffff848116600090815260046020908152604080832087851684528252808320868452909152902054161561068a576040517f08c379a000000000000000000000000000000000000000000000000000000000815260206004820152601460248201527f464143544f52593a20504149525f4558495354530000000000000000000000006044820152606401610448565b6000806106978686610e00565b9150915060006106a8858484610e4b565b905060008151602083016000f5935073ffffffffffffffffffffffffffffffffffffffff8416610734576040517f08c379a000000000000000000000000000000000000000000000000000000000815260206004820152601660248201527f464143544f52593a204445504c4f595f4641494c4544000000000000000000006044820152606401610448565b73ffffffffffffffffffffffffffffffffffffffff83811660008181526004602081815260408084208887168086529083528185208c865283528185208054978c167fffffffffffffffffffffffff0000000000000000000000000000000000000000988916811790915581865293835281852086865283528185208c8652835281852080548816851790556005805460018101825595527f036b6384b5eca791c62761152d0c79bb0604c104a5fb6f4eb0703f3154bb3db09094018054909616831790955584518a81529081019190915290927fc3168168beb4136b347bbd2afd38adb2282984cdfba1e15b86d35942f015f4ca910160405180910390a35050509392505050565b6000805473ffffffffffffffffffffffffffffffffffffffff1633146108bf576040517f08c379a000000000000000000000000000000000000000000000000000000000815260206004820152600c60248201527f554e415554484f52495a454400000000000000000000000000000000000000006044820152606401610448565b60006108cc858585610303565b9050600081516020830134f59150813b6108e557600080fd5b6040805186815273ffffffffffffffffffffffffffffffffffffffff841660208201527fe491e278e37782abe0872fe7c7b549cd7b0713d0c5c1e84a81899a5fdf32087b910160405180910390a1509392505050565b606060058054806020026020016040519081016040528092919081815260200182805480156102f957602002820191906000526020600020905b815473ffffffffffffffffffffffffffffffffffffffff168152600190910190602001808311610975575050505050905090565b6000805473ffffffffffffffffffffffffffffffffffffffff163314610a2b576040517f08c379a000000000000000000000000000000000000000000000000000000000815260206004820152600c60248201527f554e415554484f52495a454400000000000000000000000000000000000000006044820152606401610448565b8282604051610a3b929190611453565b60405180910390209050610a50818484610e83565b92915050565b60038181548110610a6657600080fd5b600091825260209091200154905081565b60005473ffffffffffffffffffffffffffffffffffffffff163314610af8576040517f08c379a000000000000000000000000000000000000000000000000000000000815260206004820152600c60248201527f554e415554484f52495a454400000000000000000000000000000000000000006044820152606401610448565b600080547fffffffffffffffffffffffff00000000000000000000000000000000000000001673ffffffffffffffffffffffffffffffffffffffff83169081178255604051909133917f8be0079c531659141344cd1fd0a4f28419497f9722a3daafe3b4186f6b6457e09190a350565b60005473ffffffffffffffffffffffffffffffffffffffff163314610be9576040517f08c379a000000000000000000000000000000000000000000000000000000000815260206004820152600c60248201527f554e415554484f52495a454400000000000000000000000000000000000000006044820152606401610448565b60009182526001602052604090912055565b60008054819073ffffffffffffffffffffffffffffffffffffffff163314610c7f576040517f08c379a000000000000000000000000000000000000000000000000000000000815260206004820152600c60248201527f554e415554484f52495a454400000000000000000000000000000000000000006044820152606401610448565b600354604051909250610c959085908590611453565b604051908190039020600380546001810182556000919091527fc2575a0e9e593c00f959f8c92f12db2869c3395a3b0502d05e2516446f71f85b018190559050610ce0818585610e83565b9250929050565b606082471015610d79576040517f08c379a000000000000000000000000000000000000000000000000000000000815260206004820152602660248201527f416464726573733a20696e73756666696369656e742062616c616e636520666f60448201527f722063616c6c00000000000000000000000000000000000000000000000000006064820152608401610448565b6000808673ffffffffffffffffffffffffffffffffffffffff168587604051610da29190611463565b60006040518083038185875af1925050503d8060008114610ddf576040519150601f19603f3d011682016040523d82523d6000602084013e610de4565b606091505b5091509150610df587838387610f71565b979650505050505050565b6000808273ffffffffffffffffffffffffffffffffffffffff168473ffffffffffffffffffffffffffffffffffffffff1610610e3d578284610e40565b83835b909590945092505050565b6060600060038581548110610e6257610e62611397565b90600052602060002001549050610e7a818585610303565b95945050505050565b6000805b82811015610f6a576000610ea684610ea1615fff85611408565b611011565b6000878152600260205260409020909150610f00610ec68385888a61147f565b8080601f01602080910402602001604051908101604052809392919081815260200183838082843760009201919091525061102992505050565b815460018082018455600093845260209093200180547fffffffffffffffffffffffff00000000000000000000000000000000000000001673ffffffffffffffffffffffffffffffffffffffff92909216919091179055610f619084611408565b92509050610e87565b5050505050565b606083156110075782516000036110005773ffffffffffffffffffffffffffffffffffffffff85163b611000576040517f08c379a000000000000000000000000000000000000000000000000000000000815260206004820152601d60248201527f416464726573733a2063616c6c20746f206e6f6e2d636f6e74726163740000006044820152606401610448565b50816104ca565b6104ca838361106b565b60008183106110205781611022565b825b9392505050565b60008151600181018060401b6a61000080600a3d393df300178452600a8101601585016000f0925050816110655763301164256000526004601cfd5b90915290565b81511561107b5781518083602001fd5b806040517f08c379a00000000000000000000000000000000000000000000000000000000081526004016104489190611202565b6020808252825182820181905260009190848201906040850190845b818110156110e7578351835292840192918401916001016110cb565b50909695505050505050565b803573ffffffffffffffffffffffffffffffffffffffff8116811461111757600080fd5b919050565b60008060006060848603121561113157600080fd5b61113a846110f3565b9250611148602085016110f3565b9150604084013590509250925092565b60008060006060848603121561116d57600080fd5b8335925061117d602085016110f3565b915061118b604085016110f3565b90509250925092565b60005b838110156111af578181015183820152602001611197565b50506000910152565b600081518084526111d0816020860160208601611194565b601f017fffffffffffffffffffffffffffffffffffffffffffffffffffffffffffffffe0169290920160200192915050565b60208152600061102260208301846111b8565b60008083601f84011261122757600080fd5b50813567ffffffffffffffff81111561123f57600080fd5b602083019150836020828501011115610ce057600080fd5b6000806000806060858703121561126d57600080fd5b611276856110f3565b9350602085013567ffffffffffffffff81111561129257600080fd5b61129e87828801611215565b9598909750949560400135949350505050565b6000602082840312156112c357600080fd5b5035919050565b6020808252825182820181905260009190848201906040850190845b818110156110e757835173ffffffffffffffffffffffffffffffffffffffff16835292840192918401916001016112e6565b6000806020838503121561132b57600080fd5b823567ffffffffffffffff81111561134257600080fd5b61134e85828601611215565b90969095509350505050565b60006020828403121561136c57600080fd5b611022826110f3565b6000806040838503121561138857600080fd5b50508035926020909101359150565b7f4e487b7100000000000000000000000000000000000000000000000000000000600052603260045260246000fd5b7f4e487b7100000000000000000000000000000000000000000000000000000000600052601160045260246000fd5b81810381811115610a5057610a506113c6565b80820180821115610a5057610a506113c6565b60007fffffffffffffffffffffffffffffffffffffffffffffffffffffffffffffffff820361144c5761144c6113c6565b5060010190565b8183823760009101908152919050565b60008251611475818460208701611194565b9190910192915050565b6000808585111561148f57600080fd5b8386111561149c57600080fd5b505082019391909203915056fea164736f6c6343000811000a",
    "linkReferences": {}
  },
  "methodIdentifiers": {
    "_curves(uint256)": "d47e9c47",
    "addBytecode(bytes)": "d025dde2",
    "addCurve(bytes)": "ff6eef52",
    "allPairs()": "c97682f8",
    "createPair(address,address,uint256)": "6b600d1c",
    "curves()": "5accf175",
    "deploySharedContract(bytes32,address,address)": "b16965af",
    "get(bytes32)": "8eaa6ac0",
    "getBytecode(bytes32,address,address)": "65d0123f",
    "getPair(address,address,uint256)": "5eced480",
    "owner()": "8da5cb5b",
    "rawCall(address,bytes,uint256)": "66d3fede",
    "set(bytes32,bytes32)": "f71f7a25",
    "transferOwnership(address)": "f2fde38b"
  },
  "id": 51
}