{
  "abi": [
    {
      "inputs": [
        {
          "internalType": "address",
          "name": "aOwner",
          "type": "address"
        }
      ],
      "stateMutability": "nonpayable",
      "type": "constructor"
    },
    {
      "anonymous": false,
      "inputs": [
        {
          "indexed": false,
          "internalType": "bytes32",
          "name": "codeId",
          "type": "bytes32"
        },
        {
          "indexed": false,
          "internalType": "address",
          "name": "_address",
          "type": "address"
        }
      ],
      "name": "Deployed",
      "type": "event"
    },
    {
      "anonymous": false,
      "inputs": [
        {
          "indexed": true,
          "internalType": "address",
          "name": "user",
          "type": "address"
        },
        {
          "indexed": true,
          "internalType": "address",
          "name": "newOwner",
          "type": "address"
        }
      ],
      "name": "OwnershipTransferred",
      "type": "event"
    },
    {
      "anonymous": false,
      "inputs": [
        {
          "indexed": true,
          "internalType": "address",
          "name": "token0",
          "type": "address"
        },
        {
          "indexed": true,
          "internalType": "address",
          "name": "token1",
          "type": "address"
        },
        {
          "indexed": false,
          "internalType": "uint256",
          "name": "curveId",
          "type": "uint256"
        },
        {
          "indexed": false,
          "internalType": "address",
          "name": "pair",
          "type": "address"
        }
      ],
      "name": "PairCreated",
      "type": "event"
    },
    {
      "inputs": [
        {
          "internalType": "uint256",
          "name": "",
          "type": "uint256"
        }
      ],
      "name": "_curves",
      "outputs": [
        {
          "internalType": "bytes32",
          "name": "",
          "type": "bytes32"
        }
      ],
      "stateMutability": "view",
      "type": "function"
    },
    {
      "inputs": [
        {
          "internalType": "bytes",
          "name": "aInitCode",
          "type": "bytes"
        }
      ],
      "name": "addBytecode",
      "outputs": [
        {
          "internalType": "bytes32",
          "name": "rCodeKey",
          "type": "bytes32"
        }
      ],
      "stateMutability": "nonpayable",
      "type": "function"
    },
    {
      "inputs": [
        {
          "internalType": "bytes",
          "name": "aInitCode",
          "type": "bytes"
        }
      ],
      "name": "addCurve",
      "outputs": [
        {
          "internalType": "uint256",
          "name": "rCurveId",
          "type": "uint256"
        },
        {
          "internalType": "bytes32",
          "name": "rCodeKey",
          "type": "bytes32"
        }
      ],
      "stateMutability": "nonpayable",
      "type": "function"
    },
    {
      "inputs": [],
      "name": "allPairs",
      "outputs": [
        {
          "internalType": "address[]",
          "name": "",
          "type": "address[]"
        }
      ],
      "stateMutability": "view",
      "type": "function"
    },
    {
      "inputs": [
        {
          "internalType": "address",
          "name": "aTokenA",
          "type": "address"
        },
        {
          "internalType": "address",
          "name": "aTokenB",
          "type": "address"
        },
        {
          "internalType": "uint256",
          "name": "aCurveId",
          "type": "uint256"
        }
      ],
      "name": "createPair",
      "outputs": [
        {
          "internalType": "address",
          "name": "rPair",
          "type": "address"
        }
      ],
      "stateMutability": "nonpayable",
      "type": "function"
    },
    {
      "inputs": [],
      "name": "curves",
      "outputs": [
        {
          "internalType": "bytes32[]",
          "name": "",
          "type": "bytes32[]"
        }
      ],
      "stateMutability": "view",
      "type": "function"
    },
    {
      "inputs": [
        {
          "internalType": "bytes32",
          "name": "aCodeKey",
          "type": "bytes32"
        },
        {
          "internalType": "address",
          "name": "aToken0",
          "type": "address"
        },
        {
          "internalType": "address",
          "name": "aToken1",
          "type": "address"
        }
      ],
      "name": "deploy",
      "outputs": [
        {
          "internalType": "address",
          "name": "rContract",
          "type": "address"
        }
      ],
      "stateMutability": "payable",
      "type": "function"
    },
    {
      "inputs": [
        {
          "internalType": "bytes32",
          "name": "",
          "type": "bytes32"
        }
      ],
      "name": "get",
      "outputs": [
        {
          "internalType": "bytes32",
          "name": "",
          "type": "bytes32"
        }
      ],
      "stateMutability": "view",
      "type": "function"
    },
    {
      "inputs": [
        {
          "internalType": "bytes32",
          "name": "aCodeKey",
          "type": "bytes32"
        },
        {
          "internalType": "address",
          "name": "aToken0",
          "type": "address"
        },
        {
          "internalType": "address",
          "name": "aToken1",
          "type": "address"
        }
      ],
      "name": "getBytecode",
      "outputs": [
        {
          "internalType": "bytes",
          "name": "",
          "type": "bytes"
        }
      ],
      "stateMutability": "view",
      "type": "function"
    },
    {
      "inputs": [
        {
          "internalType": "address",
          "name": "",
          "type": "address"
        },
        {
          "internalType": "address",
          "name": "",
          "type": "address"
        },
        {
          "internalType": "uint256",
          "name": "",
          "type": "uint256"
        }
      ],
      "name": "getPair",
      "outputs": [
        {
          "internalType": "address",
          "name": "",
          "type": "address"
        }
      ],
      "stateMutability": "view",
      "type": "function"
    },
    {
      "inputs": [],
      "name": "owner",
      "outputs": [
        {
          "internalType": "address",
          "name": "",
          "type": "address"
        }
      ],
      "stateMutability": "view",
      "type": "function"
    },
    {
      "inputs": [
        {
          "internalType": "address",
          "name": "aTarget",
          "type": "address"
        },
        {
          "internalType": "bytes",
          "name": "aCalldata",
          "type": "bytes"
        },
        {
          "internalType": "uint256",
          "name": "aValue",
          "type": "uint256"
        }
      ],
      "name": "rawCall",
      "outputs": [
        {
          "internalType": "bytes",
          "name": "",
          "type": "bytes"
        }
      ],
      "stateMutability": "nonpayable",
      "type": "function"
    },
    {
      "inputs": [
        {
          "internalType": "bytes32",
          "name": "aKey",
          "type": "bytes32"
        },
        {
          "internalType": "bytes32",
          "name": "aValue",
          "type": "bytes32"
        }
      ],
      "name": "set",
      "outputs": [],
      "stateMutability": "nonpayable",
      "type": "function"
    },
    {
      "inputs": [
        {
          "internalType": "address",
          "name": "newOwner",
          "type": "address"
        }
      ],
      "name": "transferOwnership",
      "outputs": [],
      "stateMutability": "nonpayable",
      "type": "function"
    }
  ],
  "bytecode": {
    "object": "0x60803461009a57601f6114b738819003918201601f19168301916001600160401b0383118484101761009f5780849260209460405283398101031261009a57516001600160a01b0381169081900361009a5760005490604051918160007f8be0079c531659141344cd1fd0a4f28419497f9722a3daafe3b4186f6b6457e08180a36001600160a81b0319161760005561140190816100b68239f35b600080fd5b634e487b7160e01b600052604160045260246000fdfe608060409080825260048036101561001657600080fd5b600091823560e01c9081635accf17514610cdd575080635eced48014610c8e57806365d0123f14610c5e57806366d3fede14610a195780636b600d1c1461067b5780638da5cb5b1461062a5780638eaa6ac0146105e3578063c97682f8146104e6578063cf9d137c14610404578063d025dde21461036e578063d47e9c4714610301578063f2fde38b1461024f578063f71f7a25146101ea5763ff6eef52146100be57600080fd5b346101e65760207ffffffffffffffffffffffffffffffffffffffffffffffffffffffffffffffffc3601126101e657803567ffffffffffffffff81116101e25761010b9036908301610ef2565b9061012e73ffffffffffffffffffffffffffffffffffffffff8554163314610f9e565b6003549361013d368484611238565b6020815191012093680100000000000000008610156101b6575050906101aa91600185016003558361016e86610f20565b819291549060031b7fffffffffffffffffffffffffffffffffffffffffffffffffffffffffffffffff811b9283911b169119161790558361126f565b82519182526020820152f35b9060416024927f4e487b7100000000000000000000000000000000000000000000000000000000835252fd5b8280fd5b5080fd5b508290346101e257817ffffffffffffffffffffffffffffffffffffffffffffffffffffffffffffffffc3601126101e25761023d73ffffffffffffffffffffffffffffffffffffffff8454163314610f9e565b35825260016020526024359082205580f35b82346102fe5760207ffffffffffffffffffffffffffffffffffffffffffffffffffffffffffffffffc3601126102fe577fffffffffffffffffffffffff00000000000000000000000000000000000000006102a8610dac565b82549073ffffffffffffffffffffffffffffffffffffffff906102ce8284163314610f9e565b1691829116178255337f8be0079c531659141344cd1fd0a4f28419497f9722a3daafe3b4186f6b6457e08380a380f35b80fd5b508290346101e25760207ffffffffffffffffffffffffffffffffffffffffffffffffffffffffffffffffc3601126101e257356003548110156101e2576003602093527fc2575a0e9e593c00f959f8c92f12db2869c3395a3b0502d05e2516446f71f85b01549051908152f35b5091346101e65760207ffffffffffffffffffffffffffffffffffffffffffffffffffffffffffffffffc3601126101e657823567ffffffffffffffff81116101e25773ffffffffffffffffffffffffffffffffffffffff6103e66103da6020966103fe94369101610ef2565b92909554163314610f9e565b6103f1368286611238565b858151910120938461126f565b51908152f35b508261040f36610e34565b919360ff865460a01c16156104895750849161042b918561103f565b60208151910134f592833b156102fe57507fe491e278e37782abe0872fe7c7b549cd7b0713d0c5c1e84a81899a5fdf32087b8173ffffffffffffffffffffffffffffffffffffffff602095825195865216938486820152a151908152f35b60649060208551917f08c379a0000000000000000000000000000000000000000000000000000000008352820152601f60248201527f464143544f52593a204f4e4c595f4348494c4452454e5f43414e5f43414c4c006044820152fd5b5050346102fe57807ffffffffffffffffffffffffffffffffffffffffffffffffffffffffffffffffc3601126102fe579080519182906005549182855260208095018093600584527f036b6384b5eca791c62761152d0c79bb0604c104a5fb6f4eb0703f3154bb3db090845b8181106105b9575050508161056891038261118e565b83519485948186019282875251809352850193925b82811061058c57505050500390f35b835173ffffffffffffffffffffffffffffffffffffffff168552869550938101939281019260010161057d565b825473ffffffffffffffffffffffffffffffffffffffff1684529288019260019283019201610552565b508290346101e25760207ffffffffffffffffffffffffffffffffffffffffffffffffffffffffffffffffc3601126101e25760209282913581526001845220549051908152f35b8284346101e657817ffffffffffffffffffffffffffffffffffffffffffffffffffffffffffffffffc3601126101e65773ffffffffffffffffffffffffffffffffffffffff60209254169051908152f35b5091346101e65761068b36610dd4565b909391947fffffffffffffffffffffff00ffffffffffffffffffffffffffffffffffffffff91740100000000000000000000000000000000000000008385541617845573ffffffffffffffffffffffffffffffffffffffff908187169782811698808a146109bc57891561095f57898752602099858b528888208289528b528888208489528b528489892054166109035710156108fd5796925b8286610741868b61073587610f20565b90549060031b1c61103f565b8b8151910182f5169788156108a157831692838752818a5287872094169384875289528686208287528952868620907fffffffffffffffffffffffff0000000000000000000000000000000000000000918983825416179055848752808a528787208488528a528787208388528a52878720898382541617905560055490680100000000000000008210156108755760018201806005558210156108495750918791897fc3168168beb4136b347bbd2afd38adb2282984cdfba1e15b86d35942f015f4ca9460058a527f036b6384b5eca791c62761152d0c79bb0604c104a5fb6f4eb0703f3154bb3db001918254161790558151908152888a820152a3815416905551908152f35b8760326024927f4e487b7100000000000000000000000000000000000000000000000000000000835252fd5b8760416024927f4e487b7100000000000000000000000000000000000000000000000000000000835252fd5b6064828b8a51917f08c379a0000000000000000000000000000000000000000000000000000000008352820152601660248201527f464143544f52593a204445504c4f595f4641494c4544000000000000000000006044820152fd5b92610725565b6064868c8b51917f08c379a0000000000000000000000000000000000000000000000000000000008352820152601460248201527f464143544f52593a20504149525f4558495354530000000000000000000000006044820152fd5b60648560208a51917f08c379a0000000000000000000000000000000000000000000000000000000008352820152601560248201527f464143544f52593a205a45524f5f4144445245535300000000000000000000006044820152fd5b60648560208a51917f08c379a0000000000000000000000000000000000000000000000000000000008352820152601c60248201527f464143544f52593a204944454e544943414c5f414444524553534553000000006044820152fd5b5090346102fe5760607ffffffffffffffffffffffffffffffffffffffffffffffffffffffffffffffffc3601126102fe57610a52610dac565b67ffffffffffffffff91906024358381116101e25790610a78610aa79236908701610ef2565b929060443593610aa073ffffffffffffffffffffffffffffffffffffffff8754163314610f9e565b3691611238565b918651948786019086821090821117610c32578752601a85526020957f464143544f52593a205241575f43414c4c5f524556455254454400000000000087870152814710610bb057823b15610b5457509280838193610b379689610b479997519301915af13d15610b4b573d610b1c816111fe565b90610b298951928361118e565b81528092873d92013e611396565b9251928284938452830190610e94565b0390f35b60609150611396565b606490878951917f08c379a0000000000000000000000000000000000000000000000000000000008352820152601d60248201527f416464726573733a2063616c6c20746f206e6f6e2d636f6e74726163740000006044820152fd5b608490878951917f08c379a0000000000000000000000000000000000000000000000000000000008352820152602660248201527f416464726573733a20696e73756666696369656e742062616c616e636520666f60448201527f722063616c6c00000000000000000000000000000000000000000000000000006064820152fd5b6024856041897f4e487b7100000000000000000000000000000000000000000000000000000000835252fd5b8284346101e657610b4790610c7b610c7536610e34565b9161103f565b9051918291602083526020830190610e94565b508290346101e25781602093610ca336610dd4565b919473ffffffffffffffffffffffffffffffffffffffff809616845287528484842091168352865282822090825285522054169051908152f35b915050346101e657817ffffffffffffffffffffffffffffffffffffffffffffffffffffffffffffffffc3601126101e6579190600354908184526020938481018093600384527fc2575a0e9e593c00f959f8c92f12db2869c3395a3b0502d05e2516446f71f85b90845b818110610d985750505081610d5d91038261118e565b83519485948186019282875251809352850193925b828110610d8157505050500390f35b835185528695509381019392810192600101610d72565b825484529288019260019283019201610d47565b6004359073ffffffffffffffffffffffffffffffffffffffff82168203610dcf57565b600080fd5b7ffffffffffffffffffffffffffffffffffffffffffffffffffffffffffffffffc6060910112610dcf5773ffffffffffffffffffffffffffffffffffffffff906004358281168103610dcf57916024359081168103610dcf579060443590565b7ffffffffffffffffffffffffffffffffffffffffffffffffffffffffffffffffc6060910112610dcf576004359073ffffffffffffffffffffffffffffffffffffffff906024358281168103610dcf57916044359081168103610dcf5790565b919082519283825260005b848110610ede5750507fffffffffffffffffffffffffffffffffffffffffffffffffffffffffffffffe0601f8460006020809697860101520116010190565b602081830181015184830182015201610e9f565b9181601f84011215610dcf5782359167ffffffffffffffff8311610dcf5760208381860195010111610dcf57565b600354811015610f575760036000527fc2575a0e9e593c00f959f8c92f12db2869c3395a3b0502d05e2516446f71f85b0190600090565b7f4e487b7100000000000000000000000000000000000000000000000000000000600052603260045260246000fd5b8054821015610f575760005260206000200190600090565b15610fa557565b60646040517f08c379a000000000000000000000000000000000000000000000000000000000815260206004820152600c60248201527f554e415554484f52495a454400000000000000000000000000000000000000006044820152fd5b9190820180921161101057565b7f4e487b7100000000000000000000000000000000000000000000000000000000600052601160045260246000fd5b9291926000908152600260205260409081812082519360208501928092818154915b8284106110835750505050908394959684928452602084015201845201905290565b909192949573ffffffffffffffffffffffffffffffffffffffff6110a78784610f86565b90549060031b1c1690813b7fffffffffffffffffffffffffffffffffffffffffffffffffffffffffffffffff908181019381851161116157926110fb928594928560018461110199963c8201018c52611003565b97611003565b947fffffffffffffffffffffffffffffffffffffffffffffffffffffffffffffffff811461113457600101929190611061565b6024837f4e487b710000000000000000000000000000000000000000000000000000000081526011600452fd5b6024877f4e487b710000000000000000000000000000000000000000000000000000000081526011600452fd5b90601f7fffffffffffffffffffffffffffffffffffffffffffffffffffffffffffffffe0910116810190811067ffffffffffffffff8211176111cf57604052565b7f4e487b7100000000000000000000000000000000000000000000000000000000600052604160045260246000fd5b67ffffffffffffffff81116111cf57601f017fffffffffffffffffffffffffffffffffffffffffffffffffffffffffffffffe01660200190565b929192611244826111fe565b91611252604051938461118e565b829481845281830111610dcf578281602093846000960137010152565b9190600091825b818410611284575050505050565b615fff84018085116110105780831015611390575081935b8560005260026020526040908160002090868111610dcf57848711610dcf576112cc903690808903908801611238565b908151600193848201901b6a61000080600a3d393df300178352600b8101601584016000f092831561138257528054680100000000000000008110156111cf5761131a918482018155610f86565b819291549060031b9173ffffffffffffffffffffffffffffffffffffffff9283811b93849216901b16911916179055810180911115611276577f4e487b7100000000000000000000000000000000000000000000000000000000600052601160045260246000fd5b63301164256000526004601cfd5b9361129c565b909190156113a2575090565b8151156113b25750805190602001fd5b6113f0906040519182917f08c379a0000000000000000000000000000000000000000000000000000000008352602060048401526024830190610e94565b0390fdfea164736f6c6343000811000a",
    "linkReferences": {}
  },
  "methodIdentifiers": {
    "_curves(uint256)": "d47e9c47",
    "addBytecode(bytes)": "d025dde2",
    "addCurve(bytes)": "ff6eef52",
    "allPairs()": "c97682f8",
    "createPair(address,address,uint256)": "6b600d1c",
    "curves()": "5accf175",
    "deploy(bytes32,address,address)": "cf9d137c",
    "get(bytes32)": "8eaa6ac0",
    "getBytecode(bytes32,address,address)": "65d0123f",
    "getPair(address,address,uint256)": "5eced480",
    "owner()": "8da5cb5b",
    "rawCall(address,bytes,uint256)": "66d3fede",
    "set(bytes32,bytes32)": "f71f7a25",
    "transferOwnership(address)": "f2fde38b"
  },
  "id": 23
}