{
  "abi": [
    {
      "inputs": [
        {
          "internalType": "address",
          "name": "aOwner",
          "type": "address"
        }
      ],
      "stateMutability": "nonpayable",
      "type": "constructor"
    },
    {
      "anonymous": false,
      "inputs": [
        {
          "indexed": false,
          "internalType": "bytes32",
          "name": "codeId",
          "type": "bytes32"
        },
        {
          "indexed": false,
          "internalType": "address",
          "name": "_address",
          "type": "address"
        }
      ],
      "name": "Deployed",
      "type": "event"
    },
    {
      "anonymous": false,
      "inputs": [
        {
          "indexed": true,
          "internalType": "address",
          "name": "user",
          "type": "address"
        },
        {
          "indexed": true,
          "internalType": "address",
          "name": "newOwner",
          "type": "address"
        }
      ],
      "name": "OwnershipTransferred",
      "type": "event"
    },
    {
      "anonymous": false,
      "inputs": [
        {
          "indexed": true,
          "internalType": "address",
          "name": "token0",
          "type": "address"
        },
        {
          "indexed": true,
          "internalType": "address",
          "name": "token1",
          "type": "address"
        },
        {
          "indexed": false,
          "internalType": "uint256",
          "name": "curveId",
          "type": "uint256"
        },
        {
          "indexed": false,
          "internalType": "address",
          "name": "pair",
          "type": "address"
        }
      ],
      "name": "PairCreated",
      "type": "event"
    },
    {
      "inputs": [
        {
          "internalType": "uint256",
          "name": "",
          "type": "uint256"
        }
      ],
      "name": "_curves",
      "outputs": [
        {
          "internalType": "bytes32",
          "name": "",
          "type": "bytes32"
        }
      ],
      "stateMutability": "view",
      "type": "function"
    },
    {
      "inputs": [
        {
          "internalType": "bytes",
          "name": "aInitCode",
          "type": "bytes"
        }
      ],
      "name": "addBytecode",
      "outputs": [
        {
          "internalType": "bytes32",
          "name": "rCodeKey",
          "type": "bytes32"
        }
      ],
      "stateMutability": "nonpayable",
      "type": "function"
    },
    {
      "inputs": [
        {
          "internalType": "bytes",
          "name": "aInitCode",
          "type": "bytes"
        }
      ],
      "name": "addCurve",
      "outputs": [
        {
          "internalType": "uint256",
          "name": "rCurveId",
          "type": "uint256"
        },
        {
          "internalType": "bytes32",
          "name": "rCodeKey",
          "type": "bytes32"
        }
      ],
      "stateMutability": "nonpayable",
      "type": "function"
    },
    {
      "inputs": [],
      "name": "allPairs",
      "outputs": [
        {
          "internalType": "address[]",
          "name": "",
          "type": "address[]"
        }
      ],
      "stateMutability": "view",
      "type": "function"
    },
    {
      "inputs": [
        {
          "internalType": "address",
          "name": "aTokenA",
          "type": "address"
        },
        {
          "internalType": "address",
          "name": "aTokenB",
          "type": "address"
        },
        {
          "internalType": "uint256",
          "name": "aCurveId",
          "type": "uint256"
        }
      ],
      "name": "createPair",
      "outputs": [
        {
          "internalType": "address",
          "name": "rPair",
          "type": "address"
        }
      ],
      "stateMutability": "nonpayable",
      "type": "function"
    },
    {
      "inputs": [],
      "name": "curves",
      "outputs": [
        {
          "internalType": "bytes32[]",
          "name": "",
          "type": "bytes32[]"
        }
      ],
      "stateMutability": "view",
      "type": "function"
    },
    {
      "inputs": [
        {
          "internalType": "bytes32",
          "name": "aCodeKey",
          "type": "bytes32"
        },
        {
          "internalType": "address",
          "name": "aToken0",
          "type": "address"
        },
        {
          "internalType": "address",
          "name": "aToken1",
          "type": "address"
        }
      ],
      "name": "deploy",
      "outputs": [
        {
          "internalType": "address",
          "name": "rContract",
          "type": "address"
        }
      ],
      "stateMutability": "payable",
      "type": "function"
    },
    {
      "inputs": [
        {
          "internalType": "bytes32",
          "name": "",
          "type": "bytes32"
        }
      ],
      "name": "get",
      "outputs": [
        {
          "internalType": "bytes32",
          "name": "",
          "type": "bytes32"
        }
      ],
      "stateMutability": "view",
      "type": "function"
    },
    {
      "inputs": [
        {
          "internalType": "bytes32",
          "name": "aCodeKey",
          "type": "bytes32"
        },
        {
          "internalType": "address",
          "name": "aToken0",
          "type": "address"
        },
        {
          "internalType": "address",
          "name": "aToken1",
          "type": "address"
        }
      ],
      "name": "getBytecode",
      "outputs": [
        {
          "internalType": "bytes",
          "name": "",
          "type": "bytes"
        }
      ],
      "stateMutability": "view",
      "type": "function"
    },
    {
      "inputs": [
        {
          "internalType": "address",
          "name": "",
          "type": "address"
        },
        {
          "internalType": "address",
          "name": "",
          "type": "address"
        },
        {
          "internalType": "uint256",
          "name": "",
          "type": "uint256"
        }
      ],
      "name": "getPair",
      "outputs": [
        {
          "internalType": "address",
          "name": "",
          "type": "address"
        }
      ],
      "stateMutability": "view",
      "type": "function"
    },
    {
      "inputs": [],
      "name": "owner",
      "outputs": [
        {
          "internalType": "address",
          "name": "",
          "type": "address"
        }
      ],
      "stateMutability": "view",
      "type": "function"
    },
    {
      "inputs": [
        {
          "internalType": "address",
          "name": "aTarget",
          "type": "address"
        },
        {
          "internalType": "bytes",
          "name": "aCalldata",
          "type": "bytes"
        },
        {
          "internalType": "uint256",
          "name": "aValue",
          "type": "uint256"
        }
      ],
      "name": "rawCall",
      "outputs": [
        {
          "internalType": "bytes",
          "name": "",
          "type": "bytes"
        }
      ],
      "stateMutability": "nonpayable",
      "type": "function"
    },
    {
      "inputs": [
        {
          "internalType": "bytes32",
          "name": "aKey",
          "type": "bytes32"
        },
        {
          "internalType": "bytes32",
          "name": "aValue",
          "type": "bytes32"
        }
      ],
      "name": "set",
      "outputs": [],
      "stateMutability": "nonpayable",
      "type": "function"
    },
    {
      "inputs": [
        {
          "internalType": "address",
          "name": "newOwner",
          "type": "address"
        }
      ],
      "name": "transferOwnership",
      "outputs": [],
      "stateMutability": "nonpayable",
      "type": "function"
    }
  ],
  "bytecode": {
    "object": "0x60806040526000805460ff60a01b1916905534801561001d57600080fd5b5060405161167138038061167183398101604081905261003c9161008b565b600080546001600160a01b0319166001600160a01b03831690811782556040518392907f8be0079c531659141344cd1fd0a4f28419497f9722a3daafe3b4186f6b6457e0908290a350506100bb565b60006020828403121561009d57600080fd5b81516001600160a01b03811681146100b457600080fd5b9392505050565b6115a7806100ca6000396000f3fe6080604052600436106100dd5760003560e01c8063c97682f81161007f578063d47e9c4711610059578063d47e9c47146102b0578063f2fde38b146102d0578063f71f7a25146102f2578063ff6eef521461031257600080fd5b8063c97682f81461025b578063cf9d137c1461027d578063d025dde21461029057600080fd5b806366d3fede116100bb57806366d3fede146101b35780636b600d1c146101d35780638da5cb5b146101f35780638eaa6ac01461022057600080fd5b80635accf175146100e25780635eced4801461010d57806365d0123f14610186575b600080fd5b3480156100ee57600080fd5b506100f7610347565b60405161010491906111a0565b60405180910390f35b34801561011957600080fd5b5061016161012836600461120d565b600460209081526000938452604080852082529284528284209052825290205473ffffffffffffffffffffffffffffffffffffffff1681565b60405173ffffffffffffffffffffffffffffffffffffffff9091168152602001610104565b34801561019257600080fd5b506101a66101a1366004611249565b61039f565b60405161010491906112f3565b3480156101bf57600080fd5b506101a66101ce366004611348565b610464565b3480156101df57600080fd5b506101616101ee36600461120d565b61056e565b3480156101ff57600080fd5b506000546101619073ffffffffffffffffffffffffffffffffffffffff1681565b34801561022c57600080fd5b5061024d61023b3660046113a2565b60016020526000908152604090205481565b604051908152602001610104565b34801561026757600080fd5b5061027061092b565b60405161010491906113bb565b61016161028b366004611249565b610999565b34801561029c57600080fd5b5061024d6102ab366004611409565b610a9a565b3480156102bc57600080fd5b5061024d6102cb3660046113a2565b610b47565b3480156102dc57600080fd5b506102f06102eb36600461144b565b610b68565b005b3480156102fe57600080fd5b506102f061030d366004611466565b610c59565b34801561031e57600080fd5b5061033261032d366004611409565b610cec565b60408051928352602083019190915201610104565b6060600380548060200260200160405190810160405280929190818152602001828054801561039557602002820191906000526020600020905b815481526020019060010190808311610381575b5050505050905090565b600083815260026020908152604080832090516060939192909190820190805b84548110156104445760008582815481106103dc576103dc611488565b600091825260208220015473ffffffffffffffffffffffffffffffffffffffff16915061040b6001833b6114e6565b905080600186843c84810160405261042381866114f9565b945061042f81856114f9565b935050508061043d9061150c565b90506103bf565b509581526020810194909452604094850181529284019093525092915050565b60005460609073ffffffffffffffffffffffffffffffffffffffff1633146104ed576040517f08c379a000000000000000000000000000000000000000000000000000000000815260206004820152600c60248201527f554e415554484f52495a4544000000000000000000000000000000000000000060448201526064015b60405180910390fd5b6105638585858080601f0160208091040260200160405190810160405280939291908181526020018383808284376000920191909152505060408051808201909152601a81527f464143544f52593a205241575f43414c4c5f524556455254454400000000000060208201528792509050610dd8565b90505b949350505050565b600080547fffffffffffffffffffffff00ffffffffffffffffffffffffffffffffffffffff167401000000000000000000000000000000000000000017815573ffffffffffffffffffffffffffffffffffffffff8084169085160361062f576040517f08c379a000000000000000000000000000000000000000000000000000000000815260206004820152601c60248201527f464143544f52593a204944454e544943414c5f4144445245535345530000000060448201526064016104e4565b73ffffffffffffffffffffffffffffffffffffffff84166106ac576040517f08c379a000000000000000000000000000000000000000000000000000000000815260206004820152601560248201527f464143544f52593a205a45524f5f41444452455353000000000000000000000060448201526064016104e4565b73ffffffffffffffffffffffffffffffffffffffff8481166000908152600460209081526040808320878516845282528083208684529091529020541615610750576040517f08c379a000000000000000000000000000000000000000000000000000000000815260206004820152601460248201527f464143544f52593a20504149525f45584953545300000000000000000000000060448201526064016104e4565b60008061075d8686610ef1565b91509150600061076e858484610f3c565b905060008151602083016000f5935073ffffffffffffffffffffffffffffffffffffffff84166107fa576040517f08c379a000000000000000000000000000000000000000000000000000000000815260206004820152601660248201527f464143544f52593a204445504c4f595f4641494c45440000000000000000000060448201526064016104e4565b73ffffffffffffffffffffffffffffffffffffffff83811660008181526004602081815260408084208887168086529083528185208c865283528185208054978c167fffffffffffffffffffffffff0000000000000000000000000000000000000000988916811790915581865293835281852086865283528185208c8652835281852080548816851790556005805460018101825595527f036b6384b5eca791c62761152d0c79bb0604c104a5fb6f4eb0703f3154bb3db09094018054909616831790955584518a81529081019190915290927fc3168168beb4136b347bbd2afd38adb2282984cdfba1e15b86d35942f015f4ca910160405180910390a35050600080547fffffffffffffffffffffff00ffffffffffffffffffffffffffffffffffffffff169055509392505050565b6060600580548060200260200160405190810160405280929190818152602001828054801561039557602002820191906000526020600020905b815473ffffffffffffffffffffffffffffffffffffffff168152600190910190602001808311610965575050505050905090565b6000805474010000000000000000000000000000000000000000900460ff16610a1e576040517f08c379a000000000000000000000000000000000000000000000000000000000815260206004820152601f60248201527f464143544f52593a204f4e4c595f4348494c4452454e5f43414e5f43414c4c0060448201526064016104e4565b6000610a2b85858561039f565b9050600081516020830134f59150813b610a4457600080fd5b6040805186815273ffffffffffffffffffffffffffffffffffffffff841660208201527fe491e278e37782abe0872fe7c7b549cd7b0713d0c5c1e84a81899a5fdf32087b910160405180910390a1509392505050565b6000805473ffffffffffffffffffffffffffffffffffffffff163314610b1c576040517f08c379a000000000000000000000000000000000000000000000000000000000815260206004820152600c60248201527f554e415554484f52495a4544000000000000000000000000000000000000000060448201526064016104e4565b8282604051610b2c929190611544565b60405180910390209050610b41818484610f74565b92915050565b60038181548110610b5757600080fd5b600091825260209091200154905081565b60005473ffffffffffffffffffffffffffffffffffffffff163314610be9576040517f08c379a000000000000000000000000000000000000000000000000000000000815260206004820152600c60248201527f554e415554484f52495a4544000000000000000000000000000000000000000060448201526064016104e4565b600080547fffffffffffffffffffffffff00000000000000000000000000000000000000001673ffffffffffffffffffffffffffffffffffffffff83169081178255604051909133917f8be0079c531659141344cd1fd0a4f28419497f9722a3daafe3b4186f6b6457e09190a350565b60005473ffffffffffffffffffffffffffffffffffffffff163314610cda576040517f08c379a000000000000000000000000000000000000000000000000000000000815260206004820152600c60248201527f554e415554484f52495a4544000000000000000000000000000000000000000060448201526064016104e4565b60009182526001602052604090912055565b60008054819073ffffffffffffffffffffffffffffffffffffffff163314610d70576040517f08c379a000000000000000000000000000000000000000000000000000000000815260206004820152600c60248201527f554e415554484f52495a4544000000000000000000000000000000000000000060448201526064016104e4565b600354604051909250610d869085908590611544565b604051908190039020600380546001810182556000919091527fc2575a0e9e593c00f959f8c92f12db2869c3395a3b0502d05e2516446f71f85b018190559050610dd1818585610f74565b9250929050565b606082471015610e6a576040517f08c379a000000000000000000000000000000000000000000000000000000000815260206004820152602660248201527f416464726573733a20696e73756666696369656e742062616c616e636520666f60448201527f722063616c6c000000000000000000000000000000000000000000000000000060648201526084016104e4565b6000808673ffffffffffffffffffffffffffffffffffffffff168587604051610e939190611554565b60006040518083038185875af1925050503d8060008114610ed0576040519150601f19603f3d011682016040523d82523d6000602084013e610ed5565b606091505b5091509150610ee687838387611062565b979650505050505050565b6000808273ffffffffffffffffffffffffffffffffffffffff168473ffffffffffffffffffffffffffffffffffffffff1610610f2e578284610f31565b83835b909590945092505050565b6060600060038581548110610f5357610f53611488565b90600052602060002001549050610f6b81858561039f565b95945050505050565b6000805b8281101561105b576000610f9784610f92615fff856114f9565b611102565b6000878152600260205260409020909150610ff1610fb78385888a611570565b8080601f01602080910402602001604051908101604052809392919081815260200183838082843760009201919091525061111a92505050565b815460018082018455600093845260209093200180547fffffffffffffffffffffffff00000000000000000000000000000000000000001673ffffffffffffffffffffffffffffffffffffffff9290921691909117905561105290846114f9565b92509050610f78565b5050505050565b606083156110f85782516000036110f15773ffffffffffffffffffffffffffffffffffffffff85163b6110f1576040517f08c379a000000000000000000000000000000000000000000000000000000000815260206004820152601d60248201527f416464726573733a2063616c6c20746f206e6f6e2d636f6e747261637400000060448201526064016104e4565b5081610566565b610566838361115c565b60008183106111115781611113565b825b9392505050565b60008151600181018060401b6a61000080600a3d393df300178452600a8101601585016000f0925050816111565763301164256000526004601cfd5b90915290565b81511561116c5781518083602001fd5b806040517f08c379a00000000000000000000000000000000000000000000000000000000081526004016104e491906112f3565b6020808252825182820181905260009190848201906040850190845b818110156111d8578351835292840192918401916001016111bc565b50909695505050505050565b803573ffffffffffffffffffffffffffffffffffffffff8116811461120857600080fd5b919050565b60008060006060848603121561122257600080fd5b61122b846111e4565b9250611239602085016111e4565b9150604084013590509250925092565b60008060006060848603121561125e57600080fd5b8335925061126e602085016111e4565b915061127c604085016111e4565b90509250925092565b60005b838110156112a0578181015183820152602001611288565b50506000910152565b600081518084526112c1816020860160208601611285565b601f017fffffffffffffffffffffffffffffffffffffffffffffffffffffffffffffffe0169290920160200192915050565b60208152600061111360208301846112a9565b60008083601f84011261131857600080fd5b50813567ffffffffffffffff81111561133057600080fd5b602083019150836020828501011115610dd157600080fd5b6000806000806060858703121561135e57600080fd5b611367856111e4565b9350602085013567ffffffffffffffff81111561138357600080fd5b61138f87828801611306565b9598909750949560400135949350505050565b6000602082840312156113b457600080fd5b5035919050565b6020808252825182820181905260009190848201906040850190845b818110156111d857835173ffffffffffffffffffffffffffffffffffffffff16835292840192918401916001016113d7565b6000806020838503121561141c57600080fd5b823567ffffffffffffffff81111561143357600080fd5b61143f85828601611306565b90969095509350505050565b60006020828403121561145d57600080fd5b611113826111e4565b6000806040838503121561147957600080fd5b50508035926020909101359150565b7f4e487b7100000000000000000000000000000000000000000000000000000000600052603260045260246000fd5b7f4e487b7100000000000000000000000000000000000000000000000000000000600052601160045260246000fd5b81810381811115610b4157610b416114b7565b80820180821115610b4157610b416114b7565b60007fffffffffffffffffffffffffffffffffffffffffffffffffffffffffffffffff820361153d5761153d6114b7565b5060010190565b8183823760009101908152919050565b60008251611566818460208701611285565b9190910192915050565b6000808585111561158057600080fd5b8386111561158d57600080fd5b505082019391909203915056fea164736f6c6343000811000a",
    "linkReferences": {}
  },
  "methodIdentifiers": {
    "_curves(uint256)": "d47e9c47",
    "addBytecode(bytes)": "d025dde2",
    "addCurve(bytes)": "ff6eef52",
    "allPairs()": "c97682f8",
    "createPair(address,address,uint256)": "6b600d1c",
    "curves()": "5accf175",
    "deploy(bytes32,address,address)": "cf9d137c",
    "get(bytes32)": "8eaa6ac0",
    "getBytecode(bytes32,address,address)": "65d0123f",
    "getPair(address,address,uint256)": "5eced480",
    "owner()": "8da5cb5b",
    "rawCall(address,bytes,uint256)": "66d3fede",
    "set(bytes32,bytes32)": "f71f7a25",
    "transferOwnership(address)": "f2fde38b"
  },
  "id": 58
}