{
  "abi": [
    {
      "inputs": [
        {
          "internalType": "address",
          "name": "aToken0",
          "type": "address"
        },
        {
          "internalType": "address",
          "name": "aToken1",
          "type": "address"
        }
      ],
      "stateMutability": "nonpayable",
      "type": "constructor"
    },
    {
      "anonymous": false,
      "inputs": [
        {
          "indexed": true,
          "internalType": "address",
          "name": "owner",
          "type": "address"
        },
        {
          "indexed": true,
          "internalType": "address",
          "name": "spender",
          "type": "address"
        },
        {
          "indexed": false,
          "internalType": "uint256",
          "name": "amount",
          "type": "uint256"
        }
      ],
      "name": "Approval",
      "type": "event"
    },
    {
      "anonymous": false,
      "inputs": [
        {
          "indexed": true,
          "internalType": "address",
          "name": "sender",
          "type": "address"
        },
        {
          "indexed": false,
          "internalType": "uint256",
          "name": "amount0",
          "type": "uint256"
        },
        {
          "indexed": false,
          "internalType": "uint256",
          "name": "amount1",
          "type": "uint256"
        }
      ],
      "name": "Burn",
      "type": "event"
    },
    {
      "anonymous": false,
      "inputs": [
        {
          "indexed": false,
          "internalType": "uint256",
          "name": "oldCustomPlatformFee",
          "type": "uint256"
        },
        {
          "indexed": false,
          "internalType": "uint256",
          "name": "newCustomPlatformFee",
          "type": "uint256"
        }
      ],
      "name": "CustomPlatformFeeChanged",
      "type": "event"
    },
    {
      "anonymous": false,
      "inputs": [
        {
          "indexed": false,
          "internalType": "uint256",
          "name": "oldCustomSwapFee",
          "type": "uint256"
        },
        {
          "indexed": false,
          "internalType": "uint256",
          "name": "newCustomSwapFee",
          "type": "uint256"
        }
      ],
      "name": "CustomSwapFeeChanged",
      "type": "event"
    },
    {
      "anonymous": false,
      "inputs": [
        {
          "indexed": false,
          "internalType": "contract ERC20",
          "name": "token",
          "type": "address"
        },
        {
          "indexed": false,
          "internalType": "uint256",
          "name": "amount",
          "type": "uint256"
        }
      ],
      "name": "LossReported",
      "type": "event"
    },
    {
      "anonymous": false,
      "inputs": [
        {
          "indexed": false,
          "internalType": "uint256",
          "name": "oldMaxChangePerSecond",
          "type": "uint256"
        },
        {
          "indexed": false,
          "internalType": "uint256",
          "name": "newMaxChangePerSecond",
          "type": "uint256"
        }
      ],
      "name": "MaxChangeRateUpdated",
      "type": "event"
    },
    {
      "anonymous": false,
      "inputs": [
        {
          "indexed": true,
          "internalType": "address",
          "name": "sender",
          "type": "address"
        },
        {
          "indexed": false,
          "internalType": "uint256",
          "name": "amount0",
          "type": "uint256"
        },
        {
          "indexed": false,
          "internalType": "uint256",
          "name": "amount1",
          "type": "uint256"
        }
      ],
      "name": "Mint",
      "type": "event"
    },
    {
      "anonymous": false,
      "inputs": [
        {
          "indexed": false,
          "internalType": "address",
          "name": "oldCaller",
          "type": "address"
        },
        {
          "indexed": false,
          "internalType": "address",
          "name": "newCaller",
          "type": "address"
        }
      ],
      "name": "OracleCallerUpdated",
      "type": "event"
    },
    {
      "anonymous": false,
      "inputs": [
        {
          "indexed": false,
          "internalType": "uint256",
          "name": "oldPlatformFee",
          "type": "uint256"
        },
        {
          "indexed": false,
          "internalType": "uint256",
          "name": "newPlatformFee",
          "type": "uint256"
        }
      ],
      "name": "PlatformFeeChanged",
      "type": "event"
    },
    {
      "anonymous": false,
      "inputs": [
        {
          "indexed": false,
          "internalType": "contract ERC20",
          "name": "token",
          "type": "address"
        },
        {
          "indexed": false,
          "internalType": "uint256",
          "name": "amount",
          "type": "uint256"
        }
      ],
      "name": "ProfitReported",
      "type": "event"
    },
    {
      "anonymous": false,
      "inputs": [
        {
          "indexed": false,
          "internalType": "uint64",
          "name": "initialAPrecise",
          "type": "uint64"
        },
        {
          "indexed": false,
          "internalType": "uint64",
          "name": "futureAPrecise",
          "type": "uint64"
        },
        {
          "indexed": false,
          "internalType": "uint64",
          "name": "initialTime",
          "type": "uint64"
        },
        {
          "indexed": false,
          "internalType": "uint64",
          "name": "futureTme",
          "type": "uint64"
        }
      ],
      "name": "RampA",
      "type": "event"
    },
    {
      "anonymous": false,
      "inputs": [
        {
          "indexed": false,
          "internalType": "uint64",
          "name": "currentAPrecise",
          "type": "uint64"
        },
        {
          "indexed": false,
          "internalType": "uint64",
          "name": "time",
          "type": "uint64"
        }
      ],
      "name": "StopRampA",
      "type": "event"
    },
    {
      "anonymous": false,
      "inputs": [
        {
          "indexed": true,
          "internalType": "address",
          "name": "sender",
          "type": "address"
        },
        {
          "indexed": false,
          "internalType": "bool",
          "name": "zeroForOne",
          "type": "bool"
        },
        {
          "indexed": false,
          "internalType": "uint256",
          "name": "amountIn",
          "type": "uint256"
        },
        {
          "indexed": false,
          "internalType": "uint256",
          "name": "amountOut",
          "type": "uint256"
        },
        {
          "indexed": true,
          "internalType": "address",
          "name": "to",
          "type": "address"
        }
      ],
      "name": "Swap",
      "type": "event"
    },
    {
      "anonymous": false,
      "inputs": [
        {
          "indexed": false,
          "internalType": "uint256",
          "name": "oldSwapFee",
          "type": "uint256"
        },
        {
          "indexed": false,
          "internalType": "uint256",
          "name": "newSwapFee",
          "type": "uint256"
        }
      ],
      "name": "SwapFeeChanged",
      "type": "event"
    },
    {
      "anonymous": false,
      "inputs": [
        {
          "indexed": false,
          "internalType": "uint104",
          "name": "reserve0",
          "type": "uint104"
        },
        {
          "indexed": false,
          "internalType": "uint104",
          "name": "reserve1",
          "type": "uint104"
        }
      ],
      "name": "Sync",
      "type": "event"
    },
    {
      "anonymous": false,
      "inputs": [
        {
          "indexed": true,
          "internalType": "address",
          "name": "from",
          "type": "address"
        },
        {
          "indexed": true,
          "internalType": "address",
          "name": "to",
          "type": "address"
        },
        {
          "indexed": false,
          "internalType": "uint256",
          "name": "amount",
          "type": "uint256"
        }
      ],
      "name": "Transfer",
      "type": "event"
    },
    {
      "inputs": [],
      "name": "DOMAIN_SEPARATOR",
      "outputs": [
        {
          "internalType": "bytes32",
          "name": "",
          "type": "bytes32"
        }
      ],
      "stateMutability": "view",
      "type": "function"
    },
    {
      "inputs": [],
      "name": "FEE_ACCURACY",
      "outputs": [
        {
          "internalType": "uint256",
          "name": "",
          "type": "uint256"
        }
      ],
      "stateMutability": "view",
      "type": "function"
    },
    {
      "inputs": [],
      "name": "MAX_PLATFORM_FEE",
      "outputs": [
        {
          "internalType": "uint256",
          "name": "",
          "type": "uint256"
        }
      ],
      "stateMutability": "view",
      "type": "function"
    },
    {
      "inputs": [],
      "name": "MAX_SWAP_FEE",
      "outputs": [
        {
          "internalType": "uint256",
          "name": "",
          "type": "uint256"
        }
      ],
      "stateMutability": "view",
      "type": "function"
    },
    {
      "inputs": [],
      "name": "MINIMUM_LIQUIDITY",
      "outputs": [
        {
          "internalType": "uint256",
          "name": "",
          "type": "uint256"
        }
      ],
      "stateMutability": "view",
      "type": "function"
    },
    {
      "inputs": [
        {
          "internalType": "int256",
          "name": "aToken0Change",
          "type": "int256"
        },
        {
          "internalType": "int256",
          "name": "aToken1Change",
          "type": "int256"
        }
      ],
      "name": "adjustManagement",
      "outputs": [],
      "stateMutability": "nonpayable",
      "type": "function"
    },
    {
      "inputs": [
        {
          "internalType": "address",
          "name": "",
          "type": "address"
        },
        {
          "internalType": "address",
          "name": "",
          "type": "address"
        }
      ],
      "name": "allowance",
      "outputs": [
        {
          "internalType": "uint256",
          "name": "",
          "type": "uint256"
        }
      ],
      "stateMutability": "view",
      "type": "function"
    },
    {
      "inputs": [],
      "name": "ampData",
      "outputs": [
        {
          "internalType": "uint64",
          "name": "initialA",
          "type": "uint64"
        },
        {
          "internalType": "uint64",
          "name": "futureA",
          "type": "uint64"
        },
        {
          "internalType": "uint64",
          "name": "initialATime",
          "type": "uint64"
        },
        {
          "internalType": "uint64",
          "name": "futureATime",
          "type": "uint64"
        }
      ],
      "stateMutability": "view",
      "type": "function"
    },
    {
      "inputs": [
        {
          "internalType": "address",
          "name": "spender",
          "type": "address"
        },
        {
          "internalType": "uint256",
          "name": "amount",
          "type": "uint256"
        }
      ],
      "name": "approve",
      "outputs": [
        {
          "internalType": "bool",
          "name": "",
          "type": "bool"
        }
      ],
      "stateMutability": "nonpayable",
      "type": "function"
    },
    {
      "inputs": [],
      "name": "assetManager",
      "outputs": [
        {
          "internalType": "contract IAssetManager",
          "name": "",
          "type": "address"
        }
      ],
      "stateMutability": "view",
      "type": "function"
    },
    {
      "inputs": [
        {
          "internalType": "address",
          "name": "",
          "type": "address"
        }
      ],
      "name": "balanceOf",
      "outputs": [
        {
          "internalType": "uint256",
          "name": "",
          "type": "uint256"
        }
      ],
      "stateMutability": "view",
      "type": "function"
    },
    {
      "inputs": [
        {
          "internalType": "address",
          "name": "",
          "type": "address"
        }
      ],
      "name": "burn",
      "outputs": [
        {
          "internalType": "uint256",
          "name": "",
          "type": "uint256"
        },
        {
          "internalType": "uint256",
          "name": "",
          "type": "uint256"
        }
      ],
      "stateMutability": "nonpayable",
      "type": "function"
    },
    {
      "inputs": [],
      "name": "customPlatformFee",
      "outputs": [
        {
          "internalType": "uint256",
          "name": "",
          "type": "uint256"
        }
      ],
      "stateMutability": "view",
      "type": "function"
    },
    {
      "inputs": [],
      "name": "customSwapFee",
      "outputs": [
        {
          "internalType": "uint256",
          "name": "",
          "type": "uint256"
        }
      ],
      "stateMutability": "view",
      "type": "function"
    },
    {
      "inputs": [],
      "name": "decimals",
      "outputs": [
        {
          "internalType": "uint8",
          "name": "",
          "type": "uint8"
        }
      ],
      "stateMutability": "view",
      "type": "function"
    },
    {
      "inputs": [],
      "name": "factory",
      "outputs": [
        {
          "internalType": "contract GenericFactory",
          "name": "",
          "type": "address"
        }
      ],
      "stateMutability": "view",
      "type": "function"
    },
    {
      "inputs": [],
      "name": "getCurrentA",
      "outputs": [
        {
          "internalType": "uint64",
          "name": "",
          "type": "uint64"
        }
      ],
      "stateMutability": "view",
      "type": "function"
    },
    {
      "inputs": [],
      "name": "getCurrentAPrecise",
      "outputs": [
        {
          "internalType": "uint64",
          "name": "",
          "type": "uint64"
        }
      ],
      "stateMutability": "view",
      "type": "function"
    },
    {
      "inputs": [],
      "name": "getReserves",
      "outputs": [
        {
          "internalType": "uint104",
          "name": "rReserve0",
          "type": "uint104"
        },
        {
          "internalType": "uint104",
          "name": "rReserve1",
          "type": "uint104"
        },
        {
          "internalType": "uint32",
          "name": "rBlockTimestampLast",
          "type": "uint32"
        },
        {
          "internalType": "uint16",
          "name": "rIndex",
          "type": "uint16"
        }
      ],
      "stateMutability": "view",
      "type": "function"
    },
    {
      "inputs": [],
      "name": "maxChangeRate",
      "outputs": [
        {
          "internalType": "uint256",
          "name": "",
          "type": "uint256"
        }
      ],
      "stateMutability": "view",
      "type": "function"
    },
    {
      "inputs": [
        {
          "internalType": "address",
          "name": "",
          "type": "address"
        }
      ],
      "name": "mint",
      "outputs": [
        {
          "internalType": "uint256",
          "name": "",
          "type": "uint256"
        }
      ],
      "stateMutability": "nonpayable",
      "type": "function"
    },
    {
      "inputs": [],
      "name": "name",
      "outputs": [
        {
          "internalType": "string",
          "name": "",
          "type": "string"
        }
      ],
      "stateMutability": "view",
      "type": "function"
    },
    {
      "inputs": [
        {
          "internalType": "address",
          "name": "",
          "type": "address"
        }
      ],
      "name": "nonces",
      "outputs": [
        {
          "internalType": "uint256",
          "name": "",
          "type": "uint256"
        }
      ],
      "stateMutability": "view",
      "type": "function"
    },
    {
      "inputs": [
        {
          "internalType": "uint256",
          "name": "aIndex",
          "type": "uint256"
        }
      ],
      "name": "observation",
      "outputs": [
        {
          "components": [
            {
              "internalType": "int112",
              "name": "logAccRawPrice",
              "type": "int112"
            },
            {
              "internalType": "int56",
              "name": "logAccClampedPrice",
              "type": "int56"
            },
            {
              "internalType": "int56",
              "name": "logAccLiquidity",
              "type": "int56"
            },
            {
              "internalType": "uint32",
              "name": "timestamp",
              "type": "uint32"
            }
          ],
          "internalType": "struct Observation",
          "name": "rObservation",
          "type": "tuple"
        }
      ],
      "stateMutability": "view",
      "type": "function"
    },
    {
      "inputs": [],
      "name": "oracleCaller",
      "outputs": [
        {
          "internalType": "address",
          "name": "",
          "type": "address"
        }
      ],
      "stateMutability": "view",
      "type": "function"
    },
    {
      "inputs": [
        {
          "internalType": "address",
          "name": "owner",
          "type": "address"
        },
        {
          "internalType": "address",
          "name": "spender",
          "type": "address"
        },
        {
          "internalType": "uint256",
          "name": "value",
          "type": "uint256"
        },
        {
          "internalType": "uint256",
          "name": "deadline",
          "type": "uint256"
        },
        {
          "internalType": "uint8",
          "name": "v",
          "type": "uint8"
        },
        {
          "internalType": "bytes32",
          "name": "r",
          "type": "bytes32"
        },
        {
          "internalType": "bytes32",
          "name": "s",
          "type": "bytes32"
        }
      ],
      "name": "permit",
      "outputs": [],
      "stateMutability": "nonpayable",
      "type": "function"
    },
    {
      "inputs": [],
      "name": "platformFee",
      "outputs": [
        {
          "internalType": "uint256",
          "name": "",
          "type": "uint256"
        }
      ],
      "stateMutability": "view",
      "type": "function"
    },
    {
      "inputs": [],
      "name": "prevClampedPrice",
      "outputs": [
        {
          "internalType": "uint256",
          "name": "",
          "type": "uint256"
        }
      ],
      "stateMutability": "view",
      "type": "function"
    },
    {
      "inputs": [
        {
          "internalType": "uint64",
          "name": "aFutureARaw",
          "type": "uint64"
        },
        {
          "internalType": "uint64",
          "name": "aFutureATime",
          "type": "uint64"
        }
      ],
      "name": "rampA",
      "outputs": [],
      "stateMutability": "nonpayable",
      "type": "function"
    },
    {
      "inputs": [
        {
          "internalType": "address",
          "name": "aToken",
          "type": "address"
        }
      ],
      "name": "recoverToken",
      "outputs": [],
      "stateMutability": "nonpayable",
      "type": "function"
    },
    {
      "inputs": [
        {
          "internalType": "uint256",
          "name": "aCustomPlatformFee",
          "type": "uint256"
        }
      ],
      "name": "setCustomPlatformFee",
      "outputs": [],
      "stateMutability": "nonpayable",
      "type": "function"
    },
    {
      "inputs": [
        {
          "internalType": "uint256",
          "name": "aCustomSwapFee",
          "type": "uint256"
        }
      ],
      "name": "setCustomSwapFee",
      "outputs": [],
      "stateMutability": "nonpayable",
      "type": "function"
    },
    {
      "inputs": [
        {
          "internalType": "contract IAssetManager",
          "name": "manager",
          "type": "address"
        }
      ],
      "name": "setManager",
      "outputs": [],
      "stateMutability": "nonpayable",
      "type": "function"
    },
    {
      "inputs": [
        {
          "internalType": "uint256",
          "name": "aMaxChangeRate",
          "type": "uint256"
        }
      ],
      "name": "setMaxChangeRate",
      "outputs": [],
      "stateMutability": "nonpayable",
      "type": "function"
    },
    {
      "inputs": [
        {
          "internalType": "address",
          "name": "aTo",
          "type": "address"
        }
      ],
      "name": "skim",
      "outputs": [],
      "stateMutability": "nonpayable",
      "type": "function"
    },
    {
      "inputs": [],
      "name": "stopRampA",
      "outputs": [],
      "stateMutability": "nonpayable",
      "type": "function"
    },
    {
      "inputs": [
        {
          "internalType": "int256",
          "name": "aAmount",
          "type": "int256"
        },
        {
          "internalType": "bool",
          "name": "aInOrOut",
          "type": "bool"
        },
        {
          "internalType": "address",
          "name": "aTo",
          "type": "address"
        },
        {
          "internalType": "bytes",
          "name": "aData",
          "type": "bytes"
        }
      ],
      "name": "swap",
      "outputs": [
        {
          "internalType": "uint256",
          "name": "rAmountOut",
          "type": "uint256"
        }
      ],
      "stateMutability": "nonpayable",
      "type": "function"
    },
    {
      "inputs": [],
      "name": "swapFee",
      "outputs": [
        {
          "internalType": "uint256",
          "name": "",
          "type": "uint256"
        }
      ],
      "stateMutability": "view",
      "type": "function"
    },
    {
      "inputs": [],
      "name": "symbol",
      "outputs": [
        {
          "internalType": "string",
          "name": "",
          "type": "string"
        }
      ],
      "stateMutability": "view",
      "type": "function"
    },
    {
      "inputs": [],
      "name": "sync",
      "outputs": [],
      "stateMutability": "nonpayable",
      "type": "function"
    },
    {
      "inputs": [],
      "name": "token0",
      "outputs": [
        {
          "internalType": "contract ERC20",
          "name": "",
          "type": "address"
        }
      ],
      "stateMutability": "view",
      "type": "function"
    },
    {
      "inputs": [],
      "name": "token0Managed",
      "outputs": [
        {
          "internalType": "uint104",
          "name": "",
          "type": "uint104"
        }
      ],
      "stateMutability": "view",
      "type": "function"
    },
    {
      "inputs": [],
      "name": "token1",
      "outputs": [
        {
          "internalType": "contract ERC20",
          "name": "",
          "type": "address"
        }
      ],
      "stateMutability": "view",
      "type": "function"
    },
    {
      "inputs": [],
      "name": "token1Managed",
      "outputs": [
        {
          "internalType": "uint104",
          "name": "",
          "type": "uint104"
        }
      ],
      "stateMutability": "view",
      "type": "function"
    },
    {
      "inputs": [],
      "name": "totalSupply",
      "outputs": [
        {
          "internalType": "uint256",
          "name": "",
          "type": "uint256"
        }
      ],
      "stateMutability": "view",
      "type": "function"
    },
    {
      "inputs": [
        {
          "internalType": "address",
          "name": "to",
          "type": "address"
        },
        {
          "internalType": "uint256",
          "name": "amount",
          "type": "uint256"
        }
      ],
      "name": "transfer",
      "outputs": [
        {
          "internalType": "bool",
          "name": "",
          "type": "bool"
        }
      ],
      "stateMutability": "nonpayable",
      "type": "function"
    },
    {
      "inputs": [
        {
          "internalType": "address",
          "name": "from",
          "type": "address"
        },
        {
          "internalType": "address",
          "name": "to",
          "type": "address"
        },
        {
          "internalType": "uint256",
          "name": "amount",
          "type": "uint256"
        }
      ],
      "name": "transferFrom",
      "outputs": [
        {
          "internalType": "bool",
          "name": "",
          "type": "bool"
        }
      ],
      "stateMutability": "nonpayable",
      "type": "function"
    },
    {
      "inputs": [],
      "name": "updateOracleCaller",
      "outputs": [],
      "stateMutability": "nonpayable",
      "type": "function"
    },
    {
      "inputs": [],
      "name": "updatePlatformFee",
      "outputs": [],
      "stateMutability": "nonpayable",
      "type": "function"
    },
    {
      "inputs": [],
      "name": "updateSwapFee",
      "outputs": [],
      "stateMutability": "nonpayable",
      "type": "function"
    }
  ],
  "bytecode": {
    "object": "0x6101c060405260006101408190526101608190526101805261ffff6101a0526001600160f01b0319600955600019600b819055600d55600162010014553480156200004957600080fd5b50604051620064a2380380620064a28339810160408190526200006c9162000b1c565b81816040518060400160405280600b81526020016a53503a3a7377617046656560a81b815250604051806040016040528060128152602001712932b9b2b93b37b4b9102628102a37b5b2b760711b8152506040518060400160405280600681526020016505245532d4c560d41b81525060128260009081620000ef919062000bf9565b506001620000fe838262000bf9565b5060ff81166080524660a0526200011462000587565b60c05250503360e05250600680546001600160a01b038581166001600160a01b03199283161790925560078054928516929091169190911790556040516200016190829060200162000cc5565b60408051601f198184030181529190528051602090910120610100526200018762000623565b6200019162000757565b600660009054906101000a90046001600160a01b03166001600160a01b031663313ce5676040518163ffffffff1660e01b8152600401602060405180830381865afa158015620001e5573d6000803e3d6000fd5b505050506040513d601f19601f820116820180604052508101906200020b919062000cf6565b6200021890601262000d38565b6200022590600a62000e92565b600880546001600160801b0319166001600160801b03929092169190911790556007546040805163313ce56760e01b815290516001600160a01b039092169163313ce567916004808201926020929091908290030181865afa15801562000290573d6000803e3d6000fd5b505050506040513d601f19601f82011682018060405250810190620002b6919062000cf6565b620002c390601262000d38565b620002d090600a62000e92565b600880546001600160801b03928316600160801b029216919091179055620002f762000872565b620003706200036a620003596040518060400160405280601581526020017f5368617265643a3a6d61784368616e676552617465000000000000000000000081525060e0516001600160a01b03166200095760201b62002ae51790919060201c565b620009fd60201b62000af51760201c565b62000a00565b505050620003d1620003596040518060400160405280601481526020017f53503a3a535441424c455f4d494e545f4255524e00000000000000000000000081525060e0516001600160a01b03166200095760201b62002ae51790919060201c565b6001600160a01b03166101208190523b620004335760405162461bcd60e51b815260206004820152601a60248201527f53503a204d494e545f4255524e5f4e4f545f4445504c4f59454400000000000060448201526064015b60405180910390fd5b606462000493620003596040518060400160405280601c81526020017f53503a3a616d706c696669636174696f6e436f656666696369656e740000000081525060e0516001600160a01b03166200095760201b62002ae51790919060201c565b6200049f919062000eac565b6201001380546001600160801b0319166001600160401b039283169081176801000000000000000091909102176001600160801b0316600160801b42939093169283026001600160c01b031617600160c01b92909202919091179055620005096064600162000eda565b62010013546001600160401b03161080159062000541575062000530606461271062000eda565b62010013546001600160401b031611155b6200057f5760405162461bcd60e51b815260206004820152600d60248201526c53503a20494e56414c49445f4160981b60448201526064016200042a565b505062000f8c565b60007f8b73c3c69bb8fe3d512ecc4cf759cc79239f7b179b0ffacaa9a75d522b39400f6000604051620005bb919062000ef4565b6040805191829003822060208301939093528101919091527fc89efdaa54c0f20c7adf612882df0950f5a951637e0307cdcb4c672f298b8bc660608201524660808201523060a082015260c00160405160208183030381529060405280519060200120905090565b6000600019600b5403620006af5760e0516101005160405163023aa9ab60e61b81526004810191909152620006a9916001600160a01b031690638eaa6ac090602401602060405180830381865afa15801562000683573d6000803e3d6000fd5b505050506040513d601f19601f8201168201806040525081019062000359919062000f72565b620006b3565b600b545b9050600a548103620006c25750565b614e20811115620007165760405162461bcd60e51b815260206004820152601360248201527f503a20494e56414c49445f535741505f4645450000000000000000000000000060448201526064016200042a565b600a5460408051918252602082018390527fad321f810529281bbb90384fd6fecbdda41509a5ccd7bd5aed986ed827f6a026910160405180910390a1600a55565b6000600019600d5403620007c957620007c3620003596040518060400160405280601381526020017f5368617265643a3a706c6174666f726d4665650000000000000000000000000081525060e0516001600160a01b03166200095760201b62002ae51790919060201c565b620007cd565b600d545b9050600c548103620007dc5750565b6207a120811115620008315760405162461bcd60e51b815260206004820152601760248201527f503a20494e56414c49445f504c4154464f524d5f46454500000000000000000060448201526064016200042a565b600c5460408051918252602082018390527fc98a8b10b63c929f7799380bb4a0c444c713ebf74d8732f944c915034121aad1910160405180910390a1600c55565b6000620008d2620003596040518060400160405280601481526020017f5368617265643a3a6f7261636c6543616c6c657200000000000000000000000081525060e0516001600160a01b03166200095760201b62002ae51790919060201c565b62010012549091506001600160a01b0380831691161462000954576201001254604080516001600160a01b03928316815291831660208301527f262681b3b01b61ff6d02569759105771205cdd274fb3c45535b50632e0a3523f910160405180910390a16201001280546001600160a01b0319166001600160a01b0383161790555b50565b6000826001600160a01b0316638eaa6ac0836040516020016200097b919062000cc5565b604051602081830303815290604052805190602001206040518263ffffffff1660e01b8152600401620009b091815260200190565b602060405180830381865afa158015620009ce573d6000803e3d6000fd5b505050506040513d601f19601f82011682018060405250810190620009f4919062000f72565b90505b92915050565b90565b60e0516001600160a01b0316336001600160a01b03161462000a545760405162461bcd60e51b815260206004820152600c60248201526b281d102327a92124a22222a760a11b60448201526064016200042a565b80600010801562000a6c5750662386f26fc100008111155b62000aba5760405162461bcd60e51b815260206004820152601d60248201527f4f573a20494e56414c49445f4348414e47455f5045525f5345434f4e4400000060448201526064016200042a565b620100105460408051918252602082018390527f807b9f5907da3f00bf587e77bc07247e1c7ff5ae46c93a584b3a075be0b1bac2910160405180910390a16201001055565b80516001600160a01b038116811462000b1757600080fd5b919050565b6000806040838503121562000b3057600080fd5b62000b3b8362000aff565b915062000b4b6020840162000aff565b90509250929050565b634e487b7160e01b600052604160045260246000fd5b600181811c9082168062000b7f57607f821691505b60208210810362000ba057634e487b7160e01b600052602260045260246000fd5b50919050565b601f82111562000bf457600081815260208120601f850160051c8101602086101562000bcf5750805b601f850160051c820191505b8181101562000bf05782815560010162000bdb565b5050505b505050565b81516001600160401b0381111562000c155762000c1562000b54565b62000c2d8162000c26845462000b6a565b8462000ba6565b602080601f83116001811462000c65576000841562000c4c5750858301515b600019600386901b1c1916600185901b17855562000bf0565b600085815260208120601f198616915b8281101562000c965788860151825594840194600190910190840162000c75565b508582101562000cb55787850151600019600388901b60f8161c191681555b5050505050600190811b01905550565b6000825160005b8181101562000ce8576020818601810151858301520162000ccc565b506000920191825250919050565b60006020828403121562000d0957600080fd5b815160ff8116811462000d1b57600080fd5b9392505050565b634e487b7160e01b600052601160045260246000fd5b60ff8281168282160390811115620009f757620009f762000d22565b600181815b8085111562000d9b576001600160801b0382900482111562000d7f5762000d7f62000d22565b8085161562000d8d57918102915b93841c939080029062000d59565b509250929050565b60008262000db457506001620009f7565b8162000dc357506000620009f7565b816001811462000ddc576002811462000de75762000e22565b6001915050620009f7565b60ff84111562000dfb5762000dfb62000d22565b6001841b91506001600160801b0382111562000e1b5762000e1b62000d22565b50620009f7565b5060208310610133831016604e8410600b841016171562000e61575081810a6001600160801b0381111562000e5b5762000e5b62000d22565b620009f7565b62000e6d838362000d54565b6001600160801b0381900482111562000e8a5762000e8a62000d22565b029392505050565b6000620009f460ff84166001600160801b03841662000da3565b6001600160401b0381811683821602808216919082811462000ed25762000ed262000d22565b505092915050565b8082028115828204841417620009f757620009f762000d22565b600080835462000f048162000b6a565b6001828116801562000f1f576001811462000f355762000f66565b60ff198416875282151583028701945062000f66565b8760005260208060002060005b8581101562000f5d5781548a82015290840190820162000f42565b50505082870194505b50929695505050505050565b60006020828403121562000f8557600080fd5b5051919050565b60805160a05160c05160e051610100516101205161547962001029600039600081816113ea015261143601526000610a4b01526000818161080601528181610a7501528181610d6201528181610ed60152818161129d0152818161148a015281816118ea01528181611ce601528181611e6001528181611ff701526124f201526000610e9c01526000610e6c015260006104e201526154796000f3fe608060405234801561001057600080fd5b50600436106103365760003560e01c80639568e73b116101b2578063bc25cf77116100f9578063d505accf116100a2578063dd62ed3e1161007c578063dd62ed3e14610891578063e12bd9d8146108bc578063e9bdf7b8146108cf578063fff6cae9146108e857600080fd5b8063d505accf1461086c578063db6488dc1461087f578063dbc781bc1461088957600080fd5b8063c58771ef116100d3578063c58771ef14610830578063d0ebdbe714610839578063d21220a71461084c57600080fd5b8063bc25cf77146107ee578063c45a015514610801578063c4db7fa01461082857600080fd5b8063a9059cbb1161015b578063afb4a43b11610135578063afb4a43b146107b0578063b62221e0146107c3578063ba9a7a56146107e557600080fd5b8063a9059cbb1461074c578063ab3d85441461075f578063ad7853e91461076857600080fd5b80639be65a601161018c5780639be65a60146106d75780639d62a694146106ea5780639f2b37fb1461074457600080fd5b80639568e73b146106a957806395d89b41146106bc57806397e37764146106c457600080fd5b80633998a681116102815780636a6278421161022a5780637ecebe00116102045780637ecebe001461063657806385faf6241461065657806389afcb441461066157806394217ad11461068957600080fd5b80636a627842146105fa57806370a082311461060d5780637c3cbc7c1461062d57600080fd5b80634dfa1ff91161025b5780634dfa1ff91461054e57806354cf2aeb14610561578063598362f01461056a57600080fd5b80633998a681146105265780634491513614610530578063495bc0fb1461054357600080fd5b806323b872dd116102e3578063313ce567116102bd578063313ce567146104dd57806331c49074146105165780633644e5151461051e57600080fd5b806323b872dd146104a057806326232a2e146104b357806328d98c95146104bc57600080fd5b80630c472afd116103145780630c472afd1461043a5780630dfe16811461044457806318160ddd1461048957600080fd5b806306fdde031461033b5780630902f1ac14610359578063095ea7b314610417575b600080fd5b6103436108f0565b6040516103509190614d26565b60405180910390f35b60408051608080820183526009546cffffffffffffffffffffffffff8082168085526d0100000000000000000000000000830490911660208086018290527a010000000000000000000000000000000000000000000000000000840463ffffffff8116878901527e0100000000000000000000000000000000000000000000000000000000000090940461ffff166060968701819052875193845290830191909152637fffffff909216948101949094529183019190915201610350565b61042a610425366004614d99565b61097e565b6040519015158152602001610350565b6104426109f8565b005b6006546104649073ffffffffffffffffffffffffffffffffffffffff1681565b60405173ffffffffffffffffffffffffffffffffffffffff9091168152602001610350565b61049260025481565b604051908152602001610350565b61042a6104ae366004614dc5565b610bc1565b610492600c5481565b6104c4610d07565b60405167ffffffffffffffff9091168152602001610350565b6105047f000000000000000000000000000000000000000000000000000000000000000081565b60405160ff9091168152602001610350565b610442610d22565b610492610e68565b6104926207a12081565b61044261053e366004614e1e565b610ebe565b610492620100115481565b61044261055c366004614e51565b611285565b610492600a5481565b62010013546105c69067ffffffffffffffff808216916801000000000000000081048216917001000000000000000000000000000000008204811691780100000000000000000000000000000000000000000000000090041684565b6040805167ffffffffffffffff95861681529385166020850152918416918301919091529091166060820152608001610350565b610492610608366004614e6a565b6113e6565b61049261061b366004614e6a565b60036020526000908152604090205481565b610492600d5481565b610492610644366004614e6a565b60056020526000908152604090205481565b610492620100105481565b61067461066f366004614e6a565b611431565b60408051928352602083019190915201610350565b600e546104649073ffffffffffffffffffffffffffffffffffffffff1681565b6104426106b7366004614e51565b611472565b61034361155a565b6104426106d2366004614e87565b611567565b6104426106e5366004614e6a565b6118aa565b6106fd6106f8366004614e51565b611afd565b604051610350919060006080820190508251600d0b8252602083015160060b6020830152604083015160060b604083015263ffffffff606084015116606083015292915050565b6104c4611c3f565b61042a61075a366004614d99565b611c49565b610492614e2081565b600f54610792906d010000000000000000000000000090046cffffffffffffffffffffffffff1681565b6040516cffffffffffffffffffffffffff9091168152602001610350565b6104426107be366004614e51565b611cce565b62010012546104649073ffffffffffffffffffffffffffffffffffffffff1681565b6104926103e881565b6104426107fc366004614e6a565b611db6565b6104647f000000000000000000000000000000000000000000000000000000000000000081565b610442611e48565b610492600b5481565b610442610847366004614e6a565b611fdf565b6007546104649073ffffffffffffffffffffffffffffffffffffffff1681565b61044261087a366004614ea9565b61216a565b610492620f424081565b610442612489565b61049261089f366004614f20565b600460209081526000928352604080842090915290825290205481565b6104926108ca366004614f67565b6125fa565b600f54610792906cffffffffffffffffffffffffff1681565b610442612a89565b600080546108fd90615006565b80601f016020809104026020016040519081016040528092919081815260200182805461092990615006565b80156109765780601f1061094b57610100808354040283529160200191610976565b820191906000526020600020905b81548152906001019060200180831161095957829003601f168201915b505050505081565b33600081815260046020908152604080832073ffffffffffffffffffffffffffffffffffffffff8716808552925280832085905551919290917f8c5be1e5ebec7d5bd14f71427d1e84f3dd0314c0f7b2291e5b200ac8c7c3b925906109e69086815260200190565b60405180910390a35060015b92915050565b60007fffffffffffffffffffffffffffffffffffffffffffffffffffffffffffffffff600b5403610afd576040517f8eaa6ac00000000000000000000000000000000000000000000000000000000081527f00000000000000000000000000000000000000000000000000000000000000006004820152610af8907f000000000000000000000000000000000000000000000000000000000000000073ffffffffffffffffffffffffffffffffffffffff1690638eaa6ac090602401602060405180830381865afa158015610ad1573d6000803e3d6000fd5b505050506040513d601f19601f82011682018060405250810190610af59190615053565b90565b610b01565b600b545b9050600a548103610b0f5750565b614e20811115610b80576040517f08c379a000000000000000000000000000000000000000000000000000000000815260206004820152601360248201527f503a20494e56414c49445f535741505f4645450000000000000000000000000060448201526064015b60405180910390fd5b600a5460408051918252602082018390527fad321f810529281bbb90384fd6fecbdda41509a5ccd7bd5aed986ed827f6a026910160405180910390a1600a55565b73ffffffffffffffffffffffffffffffffffffffff831660009081526004602090815260408083203384529091528120547fffffffffffffffffffffffffffffffffffffffffffffffffffffffffffffffff8114610c5557610c23838261509b565b73ffffffffffffffffffffffffffffffffffffffff861660009081526004602090815260408083203384529091529020555b73ffffffffffffffffffffffffffffffffffffffff851660009081526003602052604081208054859290610c8a90849061509b565b909155505073ffffffffffffffffffffffffffffffffffffffff808516600081815260036020526040908190208054870190555190918716907fddf252ad1be2c89b69c2b068fc378daa952ba7f163c4a11628f55a4df523b3ef90610cf29087815260200190565b60405180910390a360019150505b9392505050565b60006064610d13612b89565b610d1d91906150dd565b905090565b6000610da5610af56040518060400160405280601481526020017f5368617265643a3a6f7261636c6543616c6c65720000000000000000000000008152507f000000000000000000000000000000000000000000000000000000000000000073ffffffffffffffffffffffffffffffffffffffff16612ae590919063ffffffff16565b620100125490915073ffffffffffffffffffffffffffffffffffffffff808316911614610e655762010012546040805173ffffffffffffffffffffffffffffffffffffffff928316815291831660208301527f262681b3b01b61ff6d02569759105771205cdd274fb3c45535b50632e0a3523f910160405180910390a16201001280547fffffffffffffffffffffffff00000000000000000000000000000000000000001673ffffffffffffffffffffffffffffffffffffffff83161790555b50565b60007f00000000000000000000000000000000000000000000000000000000000000004614610e9957610d1d612ca2565b507f000000000000000000000000000000000000000000000000000000000000000090565b3373ffffffffffffffffffffffffffffffffffffffff7f00000000000000000000000000000000000000000000000000000000000000001614610f5d576040517f08c379a000000000000000000000000000000000000000000000000000000000815260206004820152600c60248201527f503a20464f5242494444454e00000000000000000000000000000000000000006044820152606401610b77565b60018267ffffffffffffffff1610158015610f8457506127108267ffffffffffffffff1611155b610fea576040517f08c379a000000000000000000000000000000000000000000000000000000000815260206004820152600d60248201527f53503a20494e56414c49445f41000000000000000000000000000000000000006044820152606401610b77565b6000610ff7606484615104565b9050600061100f4267ffffffffffffffff851661509b565b90506201518081101561107e576040517f08c379a000000000000000000000000000000000000000000000000000000000815260206004820152601460248201527f53503a20494e56414c49445f4455524154494f4e0000000000000000000000006044820152606401610b77565b6000611088612b89565b905060008167ffffffffffffffff168467ffffffffffffffff16116110e1576110dc6110b78362015180615104565b67ffffffffffffffff16848667ffffffffffffffff166110d79190615130565b612d3c565b611111565b6111116110f18562015180615104565b67ffffffffffffffff16848467ffffffffffffffff166110d79190615130565b9050600281111561117e576040517f08c379a000000000000000000000000000000000000000000000000000000000815260206004820152601560248201527f53503a20414d505f524154455f544f4f5f4849474800000000000000000000006044820152606401610b77565b62010013805467ffffffffffffffff8481167fffffffffffffffffffffffffffffffff00000000000000000000000000000000909216821768010000000000000000888316908102919091176fffffffffffffffffffffffffffffffff1670010000000000000000000000000000000042841690810277ffffffffffffffffffffffffffffffffffffffffffffffff16919091177801000000000000000000000000000000000000000000000000938b169384021790945560408051938452602084019190915282810193909352606082015290517f91e3c84fe7f917d978f2dacc9d91d4e48b43b66e15e0526bda0a0866bbb7949d9181900360800190a1505050505050565b3373ffffffffffffffffffffffffffffffffffffffff7f00000000000000000000000000000000000000000000000000000000000000001614611324576040517f08c379a000000000000000000000000000000000000000000000000000000000815260206004820152600c60248201527f503a20464f5242494444454e00000000000000000000000000000000000000006044820152606401610b77565b80600010801561133b5750662386f26fc100008111155b6113a1576040517f08c379a000000000000000000000000000000000000000000000000000000000815260206004820152601d60248201527f4f573a20494e56414c49445f4348414e47455f5045525f5345434f4e440000006044820152606401610b77565b620100105460408051918252602082018390527f807b9f5907da3f00bf587e77bc07247e1c7ff5ae46c93a584b3a075be0b1bac2910160405180910390a16201001055565b60007f000000000000000000000000000000000000000000000000000000000000000036828037600080366000845af48015611426573d6000803e3d6000f35b503d6000803e3d6000fd5b6000807f000000000000000000000000000000000000000000000000000000000000000036828037600080366000845af48015611426573d6000803e3d6000f35b3373ffffffffffffffffffffffffffffffffffffffff7f00000000000000000000000000000000000000000000000000000000000000001614611511576040517f08c379a000000000000000000000000000000000000000000000000000000000815260206004820152600c60248201527f503a20464f5242494444454e00000000000000000000000000000000000000006044820152606401610b77565b600b5460408051918252602082018390527f27f958341e42705d80835b6391cbe111df34533c7061beebb873bdb3454cc697910160405180910390a1600b819055610e656109f8565b600180546108fd90615006565b600e5473ffffffffffffffffffffffffffffffffffffffff1633146115e8576040517f08c379a000000000000000000000000000000000000000000000000000000000815260206004820152601560248201527f414d503a20415554485f4e4f545f4d414e4147455200000000000000000000006044820152606401610b77565b60008213156116945760006115fc83612d73565b600f805491925082916000906116229084906cffffffffffffffffffffffffff16615147565b92506101000a8154816cffffffffffffffffffffffffff02191690836cffffffffffffffffffffffffff16021790555061168e600660009054906101000a900473ffffffffffffffffffffffffffffffffffffffff1633836cffffffffffffffffffffffffff16612e16565b50611745565b60008212156117455760006116b06116ab84615174565b612d73565b600f805491925082916000906116d69084906cffffffffffffffffffffffffff166151ac565b92506101000a8154816cffffffffffffffffffffffffff02191690836cffffffffffffffffffffffffff160217905550611743600660009054906101000a900473ffffffffffffffffffffffffffffffffffffffff163330846cffffffffffffffffffffffffff16612e5f565b505b60008113156117f657600061175982612d73565b905080600f600d8282829054906101000a90046cffffffffffffffffffffffffff166117859190615147565b92506101000a8154816cffffffffffffffffffffffffff02191690836cffffffffffffffffffffffffff1602179055506117f1600760009054906101000a900473ffffffffffffffffffffffffffffffffffffffff1633836cffffffffffffffffffffffffff16612e16565b505050565b60008112156118a657600061180d6116ab83615174565b905080600f600d8282829054906101000a90046cffffffffffffffffffffffffff1661183991906151ac565b92506101000a8154816cffffffffffffffffffffffffff02191690836cffffffffffffffffffffffffff1602179055506117f1600760009054906101000a900473ffffffffffffffffffffffffffffffffffffffff163330846cffffffffffffffffffffffffff16612e5f565b5050565b600061192d610af56040518060400160405280601881526020017f5368617265643a3a64656661756c745265636f766572657200000000000000008152507f000000000000000000000000000000000000000000000000000000000000000073ffffffffffffffffffffffffffffffffffffffff16612ae590919063ffffffff16565b60065490915073ffffffffffffffffffffffffffffffffffffffff838116911614801590611976575060075473ffffffffffffffffffffffffffffffffffffffff838116911614155b6119dc576040517f08c379a000000000000000000000000000000000000000000000000000000000815260206004820152601b60248201527f503a20494e56414c49445f544f4b454e5f544f5f5245434f56455200000000006044820152606401610b77565b73ffffffffffffffffffffffffffffffffffffffff8116611a59576040517f08c379a000000000000000000000000000000000000000000000000000000000815260206004820152601960248201527f503a205245434f56455245525f5a45524f5f41444452455353000000000000006044820152606401610b77565b6040517f70a0823100000000000000000000000000000000000000000000000000000000815230600482015260009073ffffffffffffffffffffffffffffffffffffffff8416906370a0823190602401602060405180830381865afa158015611ac6573d6000803e3d6000fd5b505050506040513d601f19601f82011682018060405250810190611aea9190615053565b9050611af7838383612ead565b50505050565b604080516080810182526000808252602082018190529181018290526060810191909152620100125473ffffffffffffffffffffffffffffffffffffffff163314611ba4576040517f08c379a000000000000000000000000000000000000000000000000000000000815260206004820152601560248201527f4f573a204e4f545f4f5241434c455f43414c4c455200000000000000000000006044820152606401610b77565b601082620100008110611bb957611bb96151d2565b604080516080810182529290910154600d81900b83526e0100000000000000000000000000008104600690810b602085015275010000000000000000000000000000000000000000008204900b9183019190915263ffffffff7c010000000000000000000000000000000000000000000000000000000090910416606082015292915050565b6000610d1d612b89565b33600090815260036020526040812080548391908390611c6a90849061509b565b909155505073ffffffffffffffffffffffffffffffffffffffff8316600081815260036020526040908190208054850190555133907fddf252ad1be2c89b69c2b068fc378daa952ba7f163c4a11628f55a4df523b3ef906109e69086815260200190565b3373ffffffffffffffffffffffffffffffffffffffff7f00000000000000000000000000000000000000000000000000000000000000001614611d6d576040517f08c379a000000000000000000000000000000000000000000000000000000000815260206004820152600c60248201527f503a20464f5242494444454e00000000000000000000000000000000000000006044820152606401610b77565b600d5460408051918252602082018390527fe044af8ebdaeeed3e95065fac857c503c7eabb71acfbcdcb7823ec6ca603c26e910160405180910390a1600d819055610e65612489565b6000806000611dc361301d565b506006546cffffffffffffffffffffffffff9384169650919092169350909150611e189073ffffffffffffffffffffffffffffffffffffffff168585611e07613143565b611e11919061509b565b86866131f4565b600754611e3f9073ffffffffffffffffffffffffffffffffffffffff168584611e07613446565b611af7816134c1565b3373ffffffffffffffffffffffffffffffffffffffff7f00000000000000000000000000000000000000000000000000000000000000001614611ee7576040517f08c379a000000000000000000000000000000000000000000000000000000000815260206004820152600c60248201527f503a20464f5242494444454e00000000000000000000000000000000000000006044820152606401610b77565b6000611ef1612b89565b6201001380547fffffffffffffffffffffffffffffffff000000000000000000000000000000001667ffffffffffffffff838116918217680100000000000000008302176fffffffffffffffffffffffffffffffff167001000000000000000000000000000000004292831690810277ffffffffffffffffffffffffffffffffffffffffffffffff169190911778010000000000000000000000000000000000000000000000008202179093556040805192835260208301939093529293507fc2b4a70c4505e53bc276a247d810393c8346d85131cf6a42ee13edf74884037f910160405180910390a15050565b3373ffffffffffffffffffffffffffffffffffffffff7f0000000000000000000000000000000000000000000000000000000000000000161461207e576040517f08c379a000000000000000000000000000000000000000000000000000000000815260206004820152600c60248201527f503a20464f5242494444454e00000000000000000000000000000000000000006044820152606401610b77565b600f546cffffffffffffffffffffffffff161580156120bd5750600f546d010000000000000000000000000090046cffffffffffffffffffffffffff16155b612123576040517f08c379a000000000000000000000000000000000000000000000000000000000815260206004820152601460248201527f414d503a20414d5f5354494c4c5f4143544956450000000000000000000000006044820152606401610b77565b600e80547fffffffffffffffffffffffff00000000000000000000000000000000000000001673ffffffffffffffffffffffffffffffffffffffff92909216919091179055565b428410156121d4576040517f08c379a000000000000000000000000000000000000000000000000000000000815260206004820152601760248201527f5045524d49545f444541444c494e455f455850495245440000000000000000006044820152606401610b77565b600060016121e0610e68565b73ffffffffffffffffffffffffffffffffffffffff8a811660008181526005602090815260409182902080546001810190915582517f6e71edae12b1b97f4d1f60370fef10105fa2faae0126114a169c64845d6126c98184015280840194909452938d166060840152608083018c905260a083019390935260c08083018b90528151808403909101815260e0830190915280519201919091207f190100000000000000000000000000000000000000000000000000000000000061010083015261010282019290925261012281019190915261014201604080517fffffffffffffffffffffffffffffffffffffffffffffffffffffffffffffffe08184030181528282528051602091820120600084529083018083525260ff871690820152606081018590526080810184905260a0016020604051602081039080840390855afa158015612332573d6000803e3d6000fd5b50506040517fffffffffffffffffffffffffffffffffffffffffffffffffffffffffffffffe0015191505073ffffffffffffffffffffffffffffffffffffffff8116158015906123ad57508773ffffffffffffffffffffffffffffffffffffffff168173ffffffffffffffffffffffffffffffffffffffff16145b612413576040517f08c379a000000000000000000000000000000000000000000000000000000000815260206004820152600e60248201527f494e56414c49445f5349474e45520000000000000000000000000000000000006044820152606401610b77565b73ffffffffffffffffffffffffffffffffffffffff90811660009081526004602090815260408083208a8516808552908352928190208990555188815291928a16917f8c5be1e5ebec7d5bd14f71427d1e84f3dd0314c0f7b2291e5b200ac8c7c3b925910160405180910390a350505050505050565b60007fffffffffffffffffffffffffffffffffffffffffffffffffffffffffffffffff600d540361253a57612535610af56040518060400160405280601381526020017f5368617265643a3a706c6174666f726d466565000000000000000000000000008152507f000000000000000000000000000000000000000000000000000000000000000073ffffffffffffffffffffffffffffffffffffffff16612ae590919063ffffffff16565b61253e565b600d545b9050600c54810361254c5750565b6207a1208111156125b9576040517f08c379a000000000000000000000000000000000000000000000000000000000815260206004820152601760248201527f503a20494e56414c49445f504c4154464f524d5f4645450000000000000000006044820152606401610b77565b600c5460408051918252602082018390527fc98a8b10b63c929f7799380bb4a0c444c713ebf74d8732f944c915034121aad1910160405180910390a1600c55565b60008060008061260861301d565b5092506cffffffffffffffffffffffffff1692506cffffffffffffffffffffffffff16925088600003612697576040517f08c379a000000000000000000000000000000000000000000000000000000000815260206004820152600f60248201527f53503a20414d4f554e545f5a45524f00000000000000000000000000000000006044820152606401610b77565b600080891561270c5760008b13156126da575050600754899073ffffffffffffffffffffffffffffffffffffffff166126d382868660016134cc565b955061284d565b5060065473ffffffffffffffffffffffffffffffffffffffff166126fd8b615174565b91506126d382868660006134cc565b60008b13156127af578a9550848610612781576040517f08c379a000000000000000000000000000000000000000000000000000000000815260206004820152601260248201527f53503a204e4f545f454e4f5547485f4c495100000000000000000000000000006044820152606401610b77565b5060065473ffffffffffffffffffffffffffffffffffffffff166127a88686866001613525565b915061284d565b6127b88b615174565b9550838610612823576040517f08c379a000000000000000000000000000000000000000000000000000000000815260206004820152601260248201527f53503a204e4f545f454e4f5547485f4c495100000000000000000000000000006044820152606401610b77565b5060075473ffffffffffffffffffffffffffffffffffffffff1661284a8686866000613525565b91505b61285a818a8888886131f4565b86156129255760065473ffffffffffffffffffffffffffffffffffffffff808b1691634fc7c21791339185821691161461289c5761289785615174565b61289e565b885b60075473ffffffffffffffffffffffffffffffffffffffff8681169116146128ce576128c986615174565b6128d0565b895b8c8c6040518663ffffffff1660e01b81526004016128f2959493929190615201565b600060405180830381600087803b15801561290c57600080fd5b505af1158015612920573d6000803e3d6000fd5b505050505b600061292f613143565b9050600061293b613446565b60065490915060009073ffffffffffffffffffffffffffffffffffffffff8581169116146129725761296d888461509b565b61297c565b61297c878361509b565b9050848110156129e8576040517f08c379a000000000000000000000000000000000000000000000000000000000815260206004820152601a60248201527f53503a20494e53554646494349454e545f414d4f554e545f494e0000000000006044820152606401610b77565b612a1383838a6cffffffffffffffffffffffffff168a6cffffffffffffffffffffffffff168a613573565b6007546040805173ffffffffffffffffffffffffffffffffffffffff928316878416148152602081018490529081018b9052908d169033907f66251e495e6e69e208ab08e2bc259dbe2ef482a8c4a93b8984b03a1eb27e1b9e9060600160405180910390a3505050505050505095945050505050565b6000806000612a9661301d565b5092506cffffffffffffffffffffffffff1692506cffffffffffffffffffffffffff169250612ac5838361377f565b90935091506117f1612ad5613143565b612add613446565b858585613573565b60008273ffffffffffffffffffffffffffffffffffffffff16638eaa6ac083604051602001612b149190615279565b604051602081830303815290604052805190602001206040518263ffffffff1660e01b8152600401612b4891815260200190565b602060405180830381865afa158015612b65573d6000803e3d6000fd5b505050506040513d601f19601f82011682018060405250810190610d009190615053565b620100135460009067ffffffffffffffff680100000000000000008204811691780100000000000000000000000000000000000000000000000090041642811115612c9c57620100135467ffffffffffffffff808216917001000000000000000000000000000000009004166000612c018285615295565b90506000612c0f8342615295565b90508367ffffffffffffffff168667ffffffffffffffff161115612c62576000612c398588615295565b905082612c468284615104565b612c5091906150dd565b612c5a90866152b6565b975050612c93565b6000612c6e8786615295565b905082612c7b8284615104565b612c8591906150dd565b612c8f9086615295565b9750505b50505050505090565b50919050565b60007f8b73c3c69bb8fe3d512ecc4cf759cc79239f7b179b0ffacaa9a75d522b39400f6000604051612cd491906152d7565b6040805191829003822060208301939093528101919091527fc89efdaa54c0f20c7adf612882df0950f5a951637e0307cdcb4c672f298b8bc660608201524660808201523060a082015260c00160405160208183030381529060405280519060200120905090565b60008215612d6a5781612d5060018561509b565b612d5a91906153ad565b612d659060016153c1565b610d00565b50600092915050565b60006cffffffffffffffffffffffffff821115612e12576040517f08c379a000000000000000000000000000000000000000000000000000000000815260206004820152602760248201527f53616665436173743a2076616c756520646f65736e27742066697420696e203160448201527f30342062697473000000000000000000000000000000000000000000000000006064820152608401610b77565b5090565b81601a5280603a5269a9059cbb00000000000060005260206000604460166000875af13d156001600051141716612e55576390b8ec186000526004601cfd5b6000603a52505050565b6040516323b872dd600052836020528260405281606052602060006064601c6000895af13d156001600051141716612e9f57637939f4246000526004601cfd5b600060605260405250505050565b60008060008573ffffffffffffffffffffffffffffffffffffffff167fa9059cbb2ab09eb219583f4a59a5d0623ade346d962bcd4e46b11da047c9049b8686604051602401612f1e92919073ffffffffffffffffffffffffffffffffffffffff929092168252602082015260400190565b604080517fffffffffffffffffffffffffffffffffffffffffffffffffffffffffffffffe08184030181529181526020820180517bffffffffffffffffffffffffffffffffffffffffffffffffffffffff167fffffffff00000000000000000000000000000000000000000000000000000000909416939093179092529051612fa79190615279565b6000604051808303816000865af19150503d8060008114612fe4576040519150601f19603f3d011682016040523d82523d6000602084013e612fe9565b606091505b509150915081801561301357508051158061301357508080602001905181019061301391906153d4565b9695505050505050565b604080516080810182526009546cffffffffffffffffffffffffff8082168084526d01000000000000000000000000008304909116602084018190527a010000000000000000000000000000000000000000000000000000830463ffffffff8116958501959095527e0100000000000000000000000000000000000000000000000000000000000090920461ffff166060840181905290939192637fffffff831692601f1c6001908116148015613130576040517f08c379a000000000000000000000000000000000000000000000000000000000815260206004820152600a60248201527f5245454e5452414e4359000000000000000000000000000000000000000000006044820152606401610b77565b61313b846001613a0b565b505090919293565b600f546006546040517f70a082310000000000000000000000000000000000000000000000000000000081523060048201526000926cffffffffffffffffffffffffff169173ffffffffffffffffffffffffffffffffffffffff16906370a08231906024015b602060405180830381865afa1580156131c6573d6000803e3d6000fd5b505050506040513d601f19601f820116820180604052508101906131ea9190615053565b610d1d91906153c1565b6131ff858585612ead565b61343f5760065460009073ffffffffffffffffffffffffffffffffffffffff87811691161461325057600f546d010000000000000000000000000090046cffffffffffffffffffffffffff16613263565b600f546cffffffffffffffffffffffffff165b6006546cffffffffffffffffffffffffff91909116915060009073ffffffffffffffffffffffffffffffffffffffff8881169116146132a257826132a4565b835b9050846132b1838361509b565b10156133da57600e5460065473ffffffffffffffffffffffffffffffffffffffff91821691631566d96d918a82169116146132ec858561509b565b6132f6908961509b565b6040517fffffffff0000000000000000000000000000000000000000000000000000000060e085901b16815291151560048301526024820152604401600060405180830381600087803b15801561334c57600080fd5b505af1158015613360573d6000803e3d6000fd5b5050505061336f878787612ead565b6133d5576040517f08c379a000000000000000000000000000000000000000000000000000000000815260206004820152601360248201527f52503a205452414e534645525f4641494c4544000000000000000000000000006044820152606401610b77565b61343c565b6040517f08c379a000000000000000000000000000000000000000000000000000000000815260206004820152601360248201527f52503a205452414e534645525f4641494c4544000000000000000000000000006044820152606401610b77565b50505b5050505050565b600f546007546040517f70a082310000000000000000000000000000000000000000000000000000000081523060048201526000926d010000000000000000000000000090046cffffffffffffffffffffffffff169173ffffffffffffffffffffffffffffffffffffffff16906370a08231906024016131a9565b610e65816000613a0b565b600854600a5460009161351a918791879187916fffffffffffffffffffffffffffffffff8082169270010000000000000000000000000000000090920416908890613515613a79565b613a9d565b90505b949350505050565b600854600a5460009161351a918791879187916fffffffffffffffffffffffffffffffff808216927001000000000000000000000000000000009092041690889061356e613a79565b613b39565b6cffffffffffffffffffffffffff851180159061359d57506cffffffffffffffffffffffffff8411155b613603576040517f08c379a000000000000000000000000000000000000000000000000000000000815260206004820152600c60248201527f52503a204f564552464c4f5700000000000000000000000000000000000000006044820152606401610b77565b6cffffffffffffffffffffffffff831180159061362d57506cffffffffffffffffffffffffff8211155b613693576040517f08c379a000000000000000000000000000000000000000000000000000000000815260206004820152600c60248201527f52503a204f564552464c4f5700000000000000000000000000000000000000006044820152606401610b77565b600061369d613bd5565b905081810363ffffffff8116158015906136b657508415155b80156136c157508315155b156136d2576136d285858386613be5565b600980546cffffffffffffffffffffffffff8881166d0100000000000000000000000000027fffffffffffff0000000000000000000000000000000000000000000000000000909216908a161717905561372d826000613a0b565b604080516cffffffffffffffffffffffffff808a168252881660208201527fff388a12130349259b5ae24af90448f511c2340be808f2c371230fc2da175c44910160405180910390a150505050505050565b600e54600090819073ffffffffffffffffffffffffffffffffffffffff166137ab575082905081613a04565b600e546006546040517fd4fac45d00000000000000000000000000000000000000000000000000000000815230600482015273ffffffffffffffffffffffffffffffffffffffff9182166024820152600092919091169063d4fac45d906044016020604051808303816000875af115801561382a573d6000803e3d6000fd5b505050506040513d601f19601f8201168201806040525081019061384e9190615053565b600e546007546040517fd4fac45d00000000000000000000000000000000000000000000000000000000815230600482015273ffffffffffffffffffffffffffffffffffffffff918216602482015292935060009291169063d4fac45d906044016020604051808303816000875af11580156138ce573d6000803e3d6000fd5b505050506040513d601f19601f820116820180604052508101906138f29190615053565b600654600f5491925061392f9173ffffffffffffffffffffffffffffffffffffffff9091169088906cffffffffffffffffffffffffff1685613ec1565b600754600f5491955061397d9173ffffffffffffffffffffffffffffffffffffffff9091169087906d010000000000000000000000000090046cffffffffffffffffffffffffff1684613ec1565b925061398882612d73565b600f80547fffffffffffffffffffffffffffffffffffffff00000000000000000000000000166cffffffffffffffffffffffffff929092169190911790556139cf81612d73565b600f600d6101000a8154816cffffffffffffffffffffffffff02191690836cffffffffffffffffffffffffff16021790555050505b9250929050565b600081613a19576000613a1f565b63800000005b6009805463ffffffff95909217949094167a010000000000000000000000000000000000000000000000000000027fffff00000000ffffffffffffffffffffffffffffffffffffffffffffffffffff909116179092555050565b6000613a83612b89565b613a8e906002615104565b67ffffffffffffffff16905090565b6000858802858802620f4240858c02048b0383613abb848488613fb4565b90508715613af857818a0284016000613ad582848a61417e565b905060018186030396508a8781613aee57613aee6150ae565b0496505050613b29565b81890283016000613b0a82848a61417e565b905060018187030396508b8781613b2357613b236150ae565b04965050505b5050505098975050505050505050565b600087860287860282613b4d838387613fb4565b90508615613b8a578b890283036000613b6782848961417e565b90508381036001019550898681613b8057613b806150ae565b0495505050613bbb565b8b880282036000613b9c82848961417e565b905084810360010195508a8681613bb557613bb56150ae565b04955050505b620f42408681018502049c9b505050505050505050505050565b6000610d1d6380000000426153f1565b6009546000906010907e01000000000000000000000000000000000000000000000000000000000000900461ffff16620100008110613c2657613c266151d2565b019050600080613c9c613c37612b89565b60085467ffffffffffffffff9190911690613c64906fffffffffffffffffffffffffffffffff168a615130565b600854613c979070010000000000000000000000000000000090046fffffffffffffffffffffffffffffffff168a615130565b6142d7565b91509150600080613cb88462010011548963ffffffff1661434a565b915091506000613cc88a8a61444e565b905082620100118190555060008863ffffffff1685028760000160009054906101000a9004600d0b01905060008963ffffffff16840288600001600e9054906101000a900460060b01905060008a63ffffffff1684028960000160159054906101000a900460060b01905060016009600001601e8282829054906101000a900461ffff160192506101000a81548161ffff021916908361ffff160217905550604051806080016040528084600d0b81526020018360060b81526020018260060b81526020018b63ffffffff1681525060106009600001601e9054906101000a900461ffff1661ffff16620100008110613dc357613dc36151d2565b825191018054602084015160408501516060909501516dffffffffffffffffffffffffffff9094167fffffffffffffffffffffff000000000000000000000000000000000000000000909216919091176e01000000000000000000000000000066ffffffffffffff928316021774ffffffffffffffffffffffffffffffffffffffffff16750100000000000000000000000000000000000000000091909416027bffffffffffffffffffffffffffffffffffffffffffffffffffffffff16929092177c010000000000000000000000000000000000000000000000000000000063ffffffff9092169190910217905550505050505050505050505050565b600082821115613f3b576000613ed7848461509b565b6040805173ffffffffffffffffffffffffffffffffffffffff89168152602081018390529192507fd85f20827037d49bc45762fefff2ddfe9a1a5412ad3dfc1cdca78d2e52f4ba23910160405180910390a1613f3381866153c1565b91505061351d565b82821015613fab576000613f4f838561509b565b6040805173ffffffffffffffffffffffffffffffffffffffff89168152602081018390529192507f3ffa9beb41b46c88b16758ef6c236ebd4d07cdfd4d22471030eb6b2d662482d9910160405180910390a1613f33818661509b565b50919392505050565b600080613fc184866153c1565b905080600003613fd5576000915050610d00565b600081858710613fe6578587613fe9565b86865b909750955060005b6101008110156140e2576000600488848b61400c8280615130565b61401691906153ad565b6140209190615130565b61402a91906153ad565b61403491906153ad565b90508293508060036140469190615130565b606484614053828b61509b565b61405d9190615130565b61406791906153ad565b61407191906153c1565b8361407d836002615130565b6064614089898c615130565b61409391906153ad565b61409d91906153c1565b6140a79190615130565b6140b191906153ad565b92506140bd8385614543565b156140cf578295505050505050610d00565b50806140da81615405565b915050613ff1565b5060006140ef8284614565565b905062061a80811161411c57600261410784846153c1565b61411191906153ad565b945050505050610d00565b6040517f08c379a000000000000000000000000000000000000000000000000000000000815260206004820152601c60248201527f534d3a20434f4d505554455f4449445f4e4f545f434f4e5645524745000000006044820152606401610b77565b60008061418c856002615130565b6141968580615130565b6141a091906153ad565b90506141ad836002615130565b60646141b98684615130565b6141c39190615130565b6141cd91906153ad565b90506000836141dd606487615130565b6141e791906153ad565b6141f190876153c1565b9050600085935060005b610100811015614274578491508683614215846002615130565b61421f91906153c1565b614229919061509b565b846142348780615130565b61423e91906153c1565b61424891906153ad565b94506142548583614543565b156142625750505050610d00565b8061426c81615405565b9150506141fb565b506040517f08c379a000000000000000000000000000000000000000000000000000000000815260206004820152601960248201527f534d3a20474554595f4449445f4e4f545f434f4e5645524745000000000000006044820152606401610b77565b6000806142e5858585614591565b915060006142f28361467b565b90507fffffffffffffffffffffffffffffffffffff8000000000000000000000000000811280159061433257506d7fffffffffffffffffffffffffff8113155b61433e5761433e61543d565b80915050935093915050565b60008083600003614368578461435f8661467b565b91509150614446565b8262010010546143789190615130565b6143828686614565565b111561443757838511156143d657670de0b6b3a76400008362010010546143a99190615130565b6143bb90670de0b6b3a76400006153c1565b6143c59086615130565b6143cf91906153ad565b9150614427565b8484116143e5576143e561543d565b670de0b6b3a76400008362010010546143fe9190615130565b61441090670de0b6b3a764000061509b565b61441a9086615130565b61442491906153ad565b91505b6144308261467b565b9050614446565b8491506144438561467b565b90505b935093915050565b6000806144ea61445e8486615130565b70ffffffffffffffffffffffffffffffffff811160071b81811c68ffffffffffffffffff1060061b1781811c64ffffffffff1060051b1781811c62ffffff1060041b1781811c620100000160b5600192831c1b0260121c80830401811c80830401811c80830401811c80830401811c80830401811c80830401811c80830401901c908190048111900390565b905060006144f78261467b565b90507fffffffffffffffffffffffffffffffffffff8000000000000000000000000000811280159061453757506d7fffffffffffffffffffffffffff8113155b61351d5761351d61543d565b60008183111561455a5750600181830311156109f2565b506001919003111590565b60008061457284846146bb565b90508261458782670de0b6b3a7640000615130565b61351d91906153ad565b6000806145a984846145a4886002615130565b613fb4565b9050600060646145ba876002615130565b6145c491906153ad565b90506000826145d38382615130565b6145dd919061509b565b9050600061460186886145f1866002615130565b6145fb9190615130565b906146d8565b9050600061460f83886146d8565b61461d886145fb8188615130565b61462790846153c1565b614631919061509b565b9050600061463f848a6146d8565b61464d8a6145fb8189615130565b61465790856153c1565b614661919061509b565b905061466d8282614706565b9a9950505050505050505050565b6000806146878361475d565b905060008082136146a057652d79883d200082036146aa565b652d79883d200082015b655af3107a40009005949350505050565b60008183116146ce57612d65838361509b565b610d00828461509b565b6000816000190483118202156146f65763bac65e5b6000526004601cfd5b50670de0b6b3a764000091020490565b60007812725dd1d243aba0e75fe645cc4873f9e65afe688c928e1f218311670de0b6b3a76400000215820261474357637c5f487d6000526004601cfd5b50670de0b6b3a76400009190910281810615159190040190565b60008082136147c8576040517f08c379a000000000000000000000000000000000000000000000000000000000815260206004820152601160248201527f454d3a204f55545f4f465f424f554e44530000000000000000000000000000006044820152606401610b77565b670c7d713b49da0000821380156147e65750670f43fc2c04ee000082125b1561481157670de0b6b3a76400006147fd8361481f565b8161480a5761480a6150ae565b0592915050565b6109f282614957565b919050565b670de0b6b3a7640000026000806ec097ce7bc90715b34b9f1000000000808401907fffffffffffffffffffffffffffffffffff3f68318436f8ea4cb460f00000000085010281614871576148716150ae565b05905060006ec097ce7bc90715b34b9f100000000082800205905081806ec097ce7bc90715b34b9f100000000081840205915060038205016ec097ce7bc90715b34b9f100000000082840205915060058205016ec097ce7bc90715b34b9f100000000082840205915060078205016ec097ce7bc90715b34b9f100000000082840205915060098205016ec097ce7bc90715b34b9f1000000000828402059150600b8205016ec097ce7bc90715b34b9f1000000000828402059150600d8205016ec097ce7bc90715b34b9f1000000000828402059150600f82050160020295945050505050565b6000670de0b6b3a764000082121561499957614990826ec097ce7bc90715b34b9f10000000008161498a5761498a6150ae565b05614957565b60000392915050565b60007e1600ef3172e58d2e933ec884fde10064c63b5372d805e203c000000000000083126149ea57770195e54c5dd42177f53a27172fa9ec630262827000000000830592506806f05b59d3b2000000015b73011798004d755d3c8bc8e03204cf44619e0000008312614a22576b1425982cf597cd205cef7380830592506803782dace9d9000000015b606492830292026e01855144814a7ff805980ff00840008312614a6a576e01855144814a7ff805980ff008400068056bc75e2d63100000840205925068ad78ebc5ac62000000015b6b02df0ab5a80a22c61ab5a7008312614aa5576b02df0ab5a80a22c61ab5a70068056bc75e2d6310000084020592506856bc75e2d631000000015b693f1fce3da636ea5cf8508312614adc57693f1fce3da636ea5cf85068056bc75e2d631000008402059250682b5e3af16b18800000015b690127fa27722cc06cc5e28312614b1357690127fa27722cc06cc5e268056bc75e2d6310000084020592506815af1d78b58c400000015b68280e60114edb805d038312614b485768280e60114edb805d0368056bc75e2d631000008402059250680ad78ebc5ac6200000015b680ebc5fb417461211108312614b7357680ebc5fb4174612111068056bc75e2d631000009384020592015b6808f00f760a4b2db55d8312614ba8576808f00f760a4b2db55d68056bc75e2d6310000084020592506802b5e3af16b1880000015b6806f5f17757889379378312614bdd576806f5f177578893793768056bc75e2d63100000840205925068015af1d78b58c40000015b6806248f33704b2866038312614c11576806248f33704b28660368056bc75e2d63100000840205925067ad78ebc5ac620000015b6805c548670b9510e7ac8312614c45576805c548670b9510e7ac68056bc75e2d6310000084020592506756bc75e2d6310000015b600068056bc75e2d63100000840168056bc75e2d631000008086030281614c6e57614c6e6150ae565b059050600068056bc75e2d63100000828002059050818068056bc75e2d63100000818402059150600382050168056bc75e2d63100000828402059150600582050168056bc75e2d63100000828402059150600782050168056bc75e2d63100000828402059150600982050168056bc75e2d63100000828402059150600b820501600202606485820105979650505050505050565b60005b83811015614d1d578181015183820152602001614d05565b50506000910152565b6020815260008251806020840152614d45816040850160208701614d02565b601f017fffffffffffffffffffffffffffffffffffffffffffffffffffffffffffffffe0169190910160400192915050565b73ffffffffffffffffffffffffffffffffffffffff81168114610e6557600080fd5b60008060408385031215614dac57600080fd5b8235614db781614d77565b946020939093013593505050565b600080600060608486031215614dda57600080fd5b8335614de581614d77565b92506020840135614df581614d77565b929592945050506040919091013590565b803567ffffffffffffffff8116811461481a57600080fd5b60008060408385031215614e3157600080fd5b614e3a83614e06565b9150614e4860208401614e06565b90509250929050565b600060208284031215614e6357600080fd5b5035919050565b600060208284031215614e7c57600080fd5b8135610d0081614d77565b60008060408385031215614e9a57600080fd5b50508035926020909101359150565b600080600080600080600060e0888a031215614ec457600080fd5b8735614ecf81614d77565b96506020880135614edf81614d77565b95506040880135945060608801359350608088013560ff81168114614f0357600080fd5b9699959850939692959460a0840135945060c09093013592915050565b60008060408385031215614f3357600080fd5b8235614f3e81614d77565b91506020830135614f4e81614d77565b809150509250929050565b8015158114610e6557600080fd5b600080600080600060808688031215614f7f57600080fd5b853594506020860135614f9181614f59565b93506040860135614fa181614d77565b9250606086013567ffffffffffffffff80821115614fbe57600080fd5b818801915088601f830112614fd257600080fd5b813581811115614fe157600080fd5b896020828501011115614ff357600080fd5b9699959850939650602001949392505050565b600181811c9082168061501a57607f821691505b602082108103612c9c577f4e487b7100000000000000000000000000000000000000000000000000000000600052602260045260246000fd5b60006020828403121561506557600080fd5b5051919050565b7f4e487b7100000000000000000000000000000000000000000000000000000000600052601160045260246000fd5b818103818111156109f2576109f261506c565b7f4e487b7100000000000000000000000000000000000000000000000000000000600052601260045260246000fd5b600067ffffffffffffffff808416806150f8576150f86150ae565b92169190910492915050565b67ffffffffffffffff8181168382160280821691908281146151285761512861506c565b505092915050565b80820281158282048414176109f2576109f261506c565b6cffffffffffffffffffffffffff81811683821601908082111561516d5761516d61506c565b5092915050565b60007f800000000000000000000000000000000000000000000000000000000000000082036151a5576151a561506c565b5060000390565b6cffffffffffffffffffffffffff82811682821603908082111561516d5761516d61506c565b7f4e487b7100000000000000000000000000000000000000000000000000000000600052603260045260246000fd5b73ffffffffffffffffffffffffffffffffffffffff8616815284602082015283604082015260806060820152816080820152818360a0830137600081830160a090810191909152601f9092017fffffffffffffffffffffffffffffffffffffffffffffffffffffffffffffffe0160101949350505050565b6000825161528b818460208701614d02565b9190910192915050565b67ffffffffffffffff82811682821603908082111561516d5761516d61506c565b67ffffffffffffffff81811683821601908082111561516d5761516d61506c565b600080835481600182811c9150808316806152f357607f831692505b6020808410820361532b577f4e487b710000000000000000000000000000000000000000000000000000000086526022600452602486fd5b81801561533f57600181146153725761539f565b7fffffffffffffffffffffffffffffffffffffffffffffffffffffffffffffff008616895284151585028901965061539f565b60008a81526020902060005b868110156153975781548b82015290850190830161537e565b505084890196505b509498975050505050505050565b6000826153bc576153bc6150ae565b500490565b808201808211156109f2576109f261506c565b6000602082840312156153e657600080fd5b8151610d0081614f59565b600082615400576154006150ae565b500690565b60007fffffffffffffffffffffffffffffffffffffffffffffffffffffffffffffffff82036154365761543661506c565b5060010190565b7f4e487b7100000000000000000000000000000000000000000000000000000000600052600160045260246000fdfea164736f6c6343000811000a",
    "linkReferences": {}
  },
  "methodIdentifiers": {
    "DOMAIN_SEPARATOR()": "3644e515",
    "FEE_ACCURACY()": "db6488dc",
    "MAX_PLATFORM_FEE()": "3998a681",
    "MAX_SWAP_FEE()": "ab3d8544",
    "MINIMUM_LIQUIDITY()": "ba9a7a56",
    "adjustManagement(int256,int256)": "97e37764",
    "allowance(address,address)": "dd62ed3e",
    "ampData()": "598362f0",
    "approve(address,uint256)": "095ea7b3",
    "assetManager()": "94217ad1",
    "balanceOf(address)": "70a08231",
    "burn(address)": "89afcb44",
    "customPlatformFee()": "7c3cbc7c",
    "customSwapFee()": "c58771ef",
    "decimals()": "313ce567",
    "factory()": "c45a0155",
    "getCurrentA()": "28d98c95",
    "getCurrentAPrecise()": "9f2b37fb",
    "getReserves()": "0902f1ac",
    "maxChangeRate()": "85faf624",
    "mint(address)": "6a627842",
    "name()": "06fdde03",
    "nonces(address)": "7ecebe00",
    "observation(uint256)": "9d62a694",
    "oracleCaller()": "b62221e0",
    "permit(address,address,uint256,uint256,uint8,bytes32,bytes32)": "d505accf",
    "platformFee()": "26232a2e",
    "prevClampedPrice()": "495bc0fb",
    "rampA(uint64,uint64)": "44915136",
    "recoverToken(address)": "9be65a60",
    "setCustomPlatformFee(uint256)": "afb4a43b",
    "setCustomSwapFee(uint256)": "9568e73b",
    "setManager(address)": "d0ebdbe7",
    "setMaxChangeRate(uint256)": "4dfa1ff9",
    "skim(address)": "bc25cf77",
    "stopRampA()": "c4db7fa0",
    "swap(int256,bool,address,bytes)": "e12bd9d8",
    "swapFee()": "54cf2aeb",
    "symbol()": "95d89b41",
    "sync()": "fff6cae9",
    "token0()": "0dfe1681",
    "token0Managed()": "e9bdf7b8",
    "token1()": "d21220a7",
    "token1Managed()": "ad7853e9",
    "totalSupply()": "18160ddd",
    "transfer(address,uint256)": "a9059cbb",
    "transferFrom(address,address,uint256)": "23b872dd",
    "updateOracleCaller()": "31c49074",
    "updatePlatformFee()": "dbc781bc",
    "updateSwapFee()": "0c472afd"
  },
  "id": 34
}