{
  "abi": [
    {
      "inputs": [
        {
          "internalType": "address",
          "name": "aToken0",
          "type": "address"
        },
        {
          "internalType": "address",
          "name": "aToken1",
          "type": "address"
        }
      ],
      "stateMutability": "nonpayable",
      "type": "constructor"
    },
    {
      "anonymous": false,
      "inputs": [
        {
          "indexed": true,
          "internalType": "address",
          "name": "owner",
          "type": "address"
        },
        {
          "indexed": true,
          "internalType": "address",
          "name": "spender",
          "type": "address"
        },
        {
          "indexed": false,
          "internalType": "uint256",
          "name": "amount",
          "type": "uint256"
        }
      ],
      "name": "Approval",
      "type": "event"
    },
    {
      "anonymous": false,
      "inputs": [
        {
          "indexed": true,
          "internalType": "address",
          "name": "sender",
          "type": "address"
        },
        {
          "indexed": false,
          "internalType": "uint256",
          "name": "amount0",
          "type": "uint256"
        },
        {
          "indexed": false,
          "internalType": "uint256",
          "name": "amount1",
          "type": "uint256"
        }
      ],
      "name": "Burn",
      "type": "event"
    },
    {
      "anonymous": false,
      "inputs": [
        {
          "indexed": false,
          "internalType": "uint256",
          "name": "oldCustomPlatformFee",
          "type": "uint256"
        },
        {
          "indexed": false,
          "internalType": "uint256",
          "name": "newCustomPlatformFee",
          "type": "uint256"
        }
      ],
      "name": "CustomPlatformFeeChanged",
      "type": "event"
    },
    {
      "anonymous": false,
      "inputs": [
        {
          "indexed": false,
          "internalType": "uint256",
          "name": "oldCustomSwapFee",
          "type": "uint256"
        },
        {
          "indexed": false,
          "internalType": "uint256",
          "name": "newCustomSwapFee",
          "type": "uint256"
        }
      ],
      "name": "CustomSwapFeeChanged",
      "type": "event"
    },
    {
      "anonymous": false,
      "inputs": [
        {
          "indexed": false,
          "internalType": "contract ERC20",
          "name": "token",
          "type": "address"
        },
        {
          "indexed": false,
          "internalType": "uint256",
          "name": "amount",
          "type": "uint256"
        }
      ],
      "name": "LossReported",
      "type": "event"
    },
    {
      "anonymous": false,
      "inputs": [
        {
          "indexed": false,
          "internalType": "uint256",
          "name": "oldMaxChangePerSecond",
          "type": "uint256"
        },
        {
          "indexed": false,
          "internalType": "uint256",
          "name": "newMaxChangePerSecond",
          "type": "uint256"
        }
      ],
      "name": "MaxChangeRateUpdated",
      "type": "event"
    },
    {
      "anonymous": false,
      "inputs": [
        {
          "indexed": true,
          "internalType": "address",
          "name": "sender",
          "type": "address"
        },
        {
          "indexed": false,
          "internalType": "uint256",
          "name": "amount0",
          "type": "uint256"
        },
        {
          "indexed": false,
          "internalType": "uint256",
          "name": "amount1",
          "type": "uint256"
        }
      ],
      "name": "Mint",
      "type": "event"
    },
    {
      "anonymous": false,
      "inputs": [
        {
          "indexed": false,
          "internalType": "address",
          "name": "oldCaller",
          "type": "address"
        },
        {
          "indexed": false,
          "internalType": "address",
          "name": "newCaller",
          "type": "address"
        }
      ],
      "name": "OracleCallerUpdated",
      "type": "event"
    },
    {
      "anonymous": false,
      "inputs": [
        {
          "indexed": false,
          "internalType": "uint256",
          "name": "oldPlatformFee",
          "type": "uint256"
        },
        {
          "indexed": false,
          "internalType": "uint256",
          "name": "newPlatformFee",
          "type": "uint256"
        }
      ],
      "name": "PlatformFeeChanged",
      "type": "event"
    },
    {
      "anonymous": false,
      "inputs": [
        {
          "indexed": false,
          "internalType": "contract ERC20",
          "name": "token",
          "type": "address"
        },
        {
          "indexed": false,
          "internalType": "uint256",
          "name": "amount",
          "type": "uint256"
        }
      ],
      "name": "ProfitReported",
      "type": "event"
    },
    {
      "anonymous": false,
      "inputs": [
        {
          "indexed": false,
          "internalType": "uint64",
          "name": "initialAPrecise",
          "type": "uint64"
        },
        {
          "indexed": false,
          "internalType": "uint64",
          "name": "futureAPrecise",
          "type": "uint64"
        },
        {
          "indexed": false,
          "internalType": "uint64",
          "name": "initialTime",
          "type": "uint64"
        },
        {
          "indexed": false,
          "internalType": "uint64",
          "name": "futureTme",
          "type": "uint64"
        }
      ],
      "name": "RampA",
      "type": "event"
    },
    {
      "anonymous": false,
      "inputs": [
        {
          "indexed": false,
          "internalType": "uint64",
          "name": "currentAPrecise",
          "type": "uint64"
        },
        {
          "indexed": false,
          "internalType": "uint64",
          "name": "time",
          "type": "uint64"
        }
      ],
      "name": "StopRampA",
      "type": "event"
    },
    {
      "anonymous": false,
      "inputs": [
        {
          "indexed": true,
          "internalType": "address",
          "name": "sender",
          "type": "address"
        },
        {
          "indexed": false,
          "internalType": "bool",
          "name": "zeroForOne",
          "type": "bool"
        },
        {
          "indexed": false,
          "internalType": "uint256",
          "name": "amountIn",
          "type": "uint256"
        },
        {
          "indexed": false,
          "internalType": "uint256",
          "name": "amountOut",
          "type": "uint256"
        },
        {
          "indexed": true,
          "internalType": "address",
          "name": "to",
          "type": "address"
        }
      ],
      "name": "Swap",
      "type": "event"
    },
    {
      "anonymous": false,
      "inputs": [
        {
          "indexed": false,
          "internalType": "uint256",
          "name": "oldSwapFee",
          "type": "uint256"
        },
        {
          "indexed": false,
          "internalType": "uint256",
          "name": "newSwapFee",
          "type": "uint256"
        }
      ],
      "name": "SwapFeeChanged",
      "type": "event"
    },
    {
      "anonymous": false,
      "inputs": [
        {
          "indexed": false,
          "internalType": "uint104",
          "name": "reserve0",
          "type": "uint104"
        },
        {
          "indexed": false,
          "internalType": "uint104",
          "name": "reserve1",
          "type": "uint104"
        }
      ],
      "name": "Sync",
      "type": "event"
    },
    {
      "anonymous": false,
      "inputs": [
        {
          "indexed": true,
          "internalType": "address",
          "name": "from",
          "type": "address"
        },
        {
          "indexed": true,
          "internalType": "address",
          "name": "to",
          "type": "address"
        },
        {
          "indexed": false,
          "internalType": "uint256",
          "name": "amount",
          "type": "uint256"
        }
      ],
      "name": "Transfer",
      "type": "event"
    },
    {
      "inputs": [],
      "name": "DOMAIN_SEPARATOR",
      "outputs": [
        {
          "internalType": "bytes32",
          "name": "",
          "type": "bytes32"
        }
      ],
      "stateMutability": "view",
      "type": "function"
    },
    {
      "inputs": [],
      "name": "FEE_ACCURACY",
      "outputs": [
        {
          "internalType": "uint256",
          "name": "",
          "type": "uint256"
        }
      ],
      "stateMutability": "view",
      "type": "function"
    },
    {
      "inputs": [],
      "name": "MAX_PLATFORM_FEE",
      "outputs": [
        {
          "internalType": "uint256",
          "name": "",
          "type": "uint256"
        }
      ],
      "stateMutability": "view",
      "type": "function"
    },
    {
      "inputs": [],
      "name": "MAX_SWAP_FEE",
      "outputs": [
        {
          "internalType": "uint256",
          "name": "",
          "type": "uint256"
        }
      ],
      "stateMutability": "view",
      "type": "function"
    },
    {
      "inputs": [],
      "name": "MINIMUM_LIQUIDITY",
      "outputs": [
        {
          "internalType": "uint256",
          "name": "",
          "type": "uint256"
        }
      ],
      "stateMutability": "view",
      "type": "function"
    },
    {
      "inputs": [
        {
          "internalType": "int256",
          "name": "aToken0Change",
          "type": "int256"
        },
        {
          "internalType": "int256",
          "name": "aToken1Change",
          "type": "int256"
        }
      ],
      "name": "adjustManagement",
      "outputs": [],
      "stateMutability": "nonpayable",
      "type": "function"
    },
    {
      "inputs": [
        {
          "internalType": "address",
          "name": "",
          "type": "address"
        },
        {
          "internalType": "address",
          "name": "",
          "type": "address"
        }
      ],
      "name": "allowance",
      "outputs": [
        {
          "internalType": "uint256",
          "name": "",
          "type": "uint256"
        }
      ],
      "stateMutability": "view",
      "type": "function"
    },
    {
      "inputs": [],
      "name": "ampData",
      "outputs": [
        {
          "internalType": "uint64",
          "name": "initialA",
          "type": "uint64"
        },
        {
          "internalType": "uint64",
          "name": "futureA",
          "type": "uint64"
        },
        {
          "internalType": "uint64",
          "name": "initialATime",
          "type": "uint64"
        },
        {
          "internalType": "uint64",
          "name": "futureATime",
          "type": "uint64"
        }
      ],
      "stateMutability": "view",
      "type": "function"
    },
    {
      "inputs": [
        {
          "internalType": "address",
          "name": "spender",
          "type": "address"
        },
        {
          "internalType": "uint256",
          "name": "amount",
          "type": "uint256"
        }
      ],
      "name": "approve",
      "outputs": [
        {
          "internalType": "bool",
          "name": "",
          "type": "bool"
        }
      ],
      "stateMutability": "nonpayable",
      "type": "function"
    },
    {
      "inputs": [],
      "name": "assetManager",
      "outputs": [
        {
          "internalType": "contract IAssetManager",
          "name": "",
          "type": "address"
        }
      ],
      "stateMutability": "view",
      "type": "function"
    },
    {
      "inputs": [
        {
          "internalType": "address",
          "name": "",
          "type": "address"
        }
      ],
      "name": "balanceOf",
      "outputs": [
        {
          "internalType": "uint256",
          "name": "",
          "type": "uint256"
        }
      ],
      "stateMutability": "view",
      "type": "function"
    },
    {
      "inputs": [
        {
          "internalType": "address",
          "name": "",
          "type": "address"
        }
      ],
      "name": "burn",
      "outputs": [
        {
          "internalType": "uint256",
          "name": "",
          "type": "uint256"
        },
        {
          "internalType": "uint256",
          "name": "",
          "type": "uint256"
        }
      ],
      "stateMutability": "nonpayable",
      "type": "function"
    },
    {
      "inputs": [],
      "name": "customPlatformFee",
      "outputs": [
        {
          "internalType": "uint256",
          "name": "",
          "type": "uint256"
        }
      ],
      "stateMutability": "view",
      "type": "function"
    },
    {
      "inputs": [],
      "name": "customSwapFee",
      "outputs": [
        {
          "internalType": "uint256",
          "name": "",
          "type": "uint256"
        }
      ],
      "stateMutability": "view",
      "type": "function"
    },
    {
      "inputs": [],
      "name": "decimals",
      "outputs": [
        {
          "internalType": "uint8",
          "name": "",
          "type": "uint8"
        }
      ],
      "stateMutability": "view",
      "type": "function"
    },
    {
      "inputs": [],
      "name": "factory",
      "outputs": [
        {
          "internalType": "contract GenericFactory",
          "name": "",
          "type": "address"
        }
      ],
      "stateMutability": "view",
      "type": "function"
    },
    {
      "inputs": [],
      "name": "getCurrentA",
      "outputs": [
        {
          "internalType": "uint64",
          "name": "",
          "type": "uint64"
        }
      ],
      "stateMutability": "view",
      "type": "function"
    },
    {
      "inputs": [],
      "name": "getCurrentAPrecise",
      "outputs": [
        {
          "internalType": "uint64",
          "name": "",
          "type": "uint64"
        }
      ],
      "stateMutability": "view",
      "type": "function"
    },
    {
      "inputs": [],
      "name": "getReserves",
      "outputs": [
        {
          "internalType": "uint104",
          "name": "rReserve0",
          "type": "uint104"
        },
        {
          "internalType": "uint104",
          "name": "rReserve1",
          "type": "uint104"
        },
        {
          "internalType": "uint32",
          "name": "rBlockTimestampLast",
          "type": "uint32"
        },
        {
          "internalType": "uint16",
          "name": "rIndex",
          "type": "uint16"
        }
      ],
      "stateMutability": "view",
      "type": "function"
    },
    {
      "inputs": [],
      "name": "maxChangeRate",
      "outputs": [
        {
          "internalType": "uint256",
          "name": "",
          "type": "uint256"
        }
      ],
      "stateMutability": "view",
      "type": "function"
    },
    {
      "inputs": [
        {
          "internalType": "address",
          "name": "",
          "type": "address"
        }
      ],
      "name": "mint",
      "outputs": [
        {
          "internalType": "uint256",
          "name": "",
          "type": "uint256"
        }
      ],
      "stateMutability": "nonpayable",
      "type": "function"
    },
    {
      "inputs": [],
      "name": "name",
      "outputs": [
        {
          "internalType": "string",
          "name": "",
          "type": "string"
        }
      ],
      "stateMutability": "view",
      "type": "function"
    },
    {
      "inputs": [
        {
          "internalType": "address",
          "name": "",
          "type": "address"
        }
      ],
      "name": "nonces",
      "outputs": [
        {
          "internalType": "uint256",
          "name": "",
          "type": "uint256"
        }
      ],
      "stateMutability": "view",
      "type": "function"
    },
    {
      "inputs": [
        {
          "internalType": "uint256",
          "name": "aIndex",
          "type": "uint256"
        }
      ],
      "name": "observation",
      "outputs": [
        {
          "components": [
            {
              "internalType": "int112",
              "name": "logAccRawPrice",
              "type": "int112"
            },
            {
              "internalType": "int56",
              "name": "logAccClampedPrice",
              "type": "int56"
            },
            {
              "internalType": "int56",
              "name": "logAccLiquidity",
              "type": "int56"
            },
            {
              "internalType": "uint32",
              "name": "timestamp",
              "type": "uint32"
            }
          ],
          "internalType": "struct Observation",
          "name": "rObservation",
          "type": "tuple"
        }
      ],
      "stateMutability": "view",
      "type": "function"
    },
    {
      "inputs": [],
      "name": "oracleCaller",
      "outputs": [
        {
          "internalType": "address",
          "name": "",
          "type": "address"
        }
      ],
      "stateMutability": "view",
      "type": "function"
    },
    {
      "inputs": [
        {
          "internalType": "address",
          "name": "owner",
          "type": "address"
        },
        {
          "internalType": "address",
          "name": "spender",
          "type": "address"
        },
        {
          "internalType": "uint256",
          "name": "value",
          "type": "uint256"
        },
        {
          "internalType": "uint256",
          "name": "deadline",
          "type": "uint256"
        },
        {
          "internalType": "uint8",
          "name": "v",
          "type": "uint8"
        },
        {
          "internalType": "bytes32",
          "name": "r",
          "type": "bytes32"
        },
        {
          "internalType": "bytes32",
          "name": "s",
          "type": "bytes32"
        }
      ],
      "name": "permit",
      "outputs": [],
      "stateMutability": "nonpayable",
      "type": "function"
    },
    {
      "inputs": [],
      "name": "platformFee",
      "outputs": [
        {
          "internalType": "uint256",
          "name": "",
          "type": "uint256"
        }
      ],
      "stateMutability": "view",
      "type": "function"
    },
    {
      "inputs": [],
      "name": "prevClampedPrice",
      "outputs": [
        {
          "internalType": "uint256",
          "name": "",
          "type": "uint256"
        }
      ],
      "stateMutability": "view",
      "type": "function"
    },
    {
      "inputs": [
        {
          "internalType": "uint64",
          "name": "aFutureARaw",
          "type": "uint64"
        },
        {
          "internalType": "uint64",
          "name": "aFutureATime",
          "type": "uint64"
        }
      ],
      "name": "rampA",
      "outputs": [],
      "stateMutability": "nonpayable",
      "type": "function"
    },
    {
      "inputs": [
        {
          "internalType": "address",
          "name": "aToken",
          "type": "address"
        }
      ],
      "name": "recoverToken",
      "outputs": [],
      "stateMutability": "nonpayable",
      "type": "function"
    },
    {
      "inputs": [
        {
          "internalType": "uint256",
          "name": "aCustomPlatformFee",
          "type": "uint256"
        }
      ],
      "name": "setCustomPlatformFee",
      "outputs": [],
      "stateMutability": "nonpayable",
      "type": "function"
    },
    {
      "inputs": [
        {
          "internalType": "uint256",
          "name": "aCustomSwapFee",
          "type": "uint256"
        }
      ],
      "name": "setCustomSwapFee",
      "outputs": [],
      "stateMutability": "nonpayable",
      "type": "function"
    },
    {
      "inputs": [
        {
          "internalType": "contract IAssetManager",
          "name": "manager",
          "type": "address"
        }
      ],
      "name": "setManager",
      "outputs": [],
      "stateMutability": "nonpayable",
      "type": "function"
    },
    {
      "inputs": [
        {
          "internalType": "uint256",
          "name": "aMaxChangeRate",
          "type": "uint256"
        }
      ],
      "name": "setMaxChangeRate",
      "outputs": [],
      "stateMutability": "nonpayable",
      "type": "function"
    },
    {
      "inputs": [
        {
          "internalType": "address",
          "name": "aTo",
          "type": "address"
        }
      ],
      "name": "skim",
      "outputs": [],
      "stateMutability": "nonpayable",
      "type": "function"
    },
    {
      "inputs": [],
      "name": "stopRampA",
      "outputs": [],
      "stateMutability": "nonpayable",
      "type": "function"
    },
    {
      "inputs": [
        {
          "internalType": "int256",
          "name": "aAmount",
          "type": "int256"
        },
        {
          "internalType": "bool",
          "name": "aInOrOut",
          "type": "bool"
        },
        {
          "internalType": "address",
          "name": "aTo",
          "type": "address"
        },
        {
          "internalType": "bytes",
          "name": "aData",
          "type": "bytes"
        }
      ],
      "name": "swap",
      "outputs": [
        {
          "internalType": "uint256",
          "name": "rAmountOut",
          "type": "uint256"
        }
      ],
      "stateMutability": "nonpayable",
      "type": "function"
    },
    {
      "inputs": [],
      "name": "swapFee",
      "outputs": [
        {
          "internalType": "uint256",
          "name": "",
          "type": "uint256"
        }
      ],
      "stateMutability": "view",
      "type": "function"
    },
    {
      "inputs": [],
      "name": "symbol",
      "outputs": [
        {
          "internalType": "string",
          "name": "",
          "type": "string"
        }
      ],
      "stateMutability": "view",
      "type": "function"
    },
    {
      "inputs": [],
      "name": "sync",
      "outputs": [],
      "stateMutability": "nonpayable",
      "type": "function"
    },
    {
      "inputs": [],
      "name": "token0",
      "outputs": [
        {
          "internalType": "contract ERC20",
          "name": "",
          "type": "address"
        }
      ],
      "stateMutability": "view",
      "type": "function"
    },
    {
      "inputs": [],
      "name": "token0Managed",
      "outputs": [
        {
          "internalType": "uint104",
          "name": "",
          "type": "uint104"
        }
      ],
      "stateMutability": "view",
      "type": "function"
    },
    {
      "inputs": [],
      "name": "token1",
      "outputs": [
        {
          "internalType": "contract ERC20",
          "name": "",
          "type": "address"
        }
      ],
      "stateMutability": "view",
      "type": "function"
    },
    {
      "inputs": [],
      "name": "token1Managed",
      "outputs": [
        {
          "internalType": "uint104",
          "name": "",
          "type": "uint104"
        }
      ],
      "stateMutability": "view",
      "type": "function"
    },
    {
      "inputs": [],
      "name": "totalSupply",
      "outputs": [
        {
          "internalType": "uint256",
          "name": "",
          "type": "uint256"
        }
      ],
      "stateMutability": "view",
      "type": "function"
    },
    {
      "inputs": [
        {
          "internalType": "address",
          "name": "to",
          "type": "address"
        },
        {
          "internalType": "uint256",
          "name": "amount",
          "type": "uint256"
        }
      ],
      "name": "transfer",
      "outputs": [
        {
          "internalType": "bool",
          "name": "",
          "type": "bool"
        }
      ],
      "stateMutability": "nonpayable",
      "type": "function"
    },
    {
      "inputs": [
        {
          "internalType": "address",
          "name": "from",
          "type": "address"
        },
        {
          "internalType": "address",
          "name": "to",
          "type": "address"
        },
        {
          "internalType": "uint256",
          "name": "amount",
          "type": "uint256"
        }
      ],
      "name": "transferFrom",
      "outputs": [
        {
          "internalType": "bool",
          "name": "",
          "type": "bool"
        }
      ],
      "stateMutability": "nonpayable",
      "type": "function"
    },
    {
      "inputs": [],
      "name": "updateOracleCaller",
      "outputs": [],
      "stateMutability": "nonpayable",
      "type": "function"
    },
    {
      "inputs": [],
      "name": "updatePlatformFee",
      "outputs": [],
      "stateMutability": "nonpayable",
      "type": "function"
    },
    {
      "inputs": [],
      "name": "updateSwapFee",
      "outputs": [],
      "stateMutability": "nonpayable",
      "type": "function"
    }
  ],
  "bytecode": {
    "object": "0x6101c080604052346200087b5760408162006238803803809162000024828562000c08565b8339810103126200087b57620000486020620000408362000c2c565b920162000c2c565b9060405191620000588362000bec565b600b83526a53503a3a7377617046656560a81b6020840152604051926200007f8462000bec565b60128452712932b9b2b93b37b4b9102628102a37b5b2b760711b602085015260405193620000ad8562000bec565b600685526505245532d4c560d41b60208601528051906001600160401b0382116200099d578190620000e160005462000d2d565b601f811162000b89575b50602090601f831160011462000b115760009262000b05575b50508160011b916000199060031b1c1916176000555b83516001600160401b0381116200099d576200013860015462000d2d565b601f811162000a9b575b50602094601f821160011462000a2e5794819293949560009262000a22575b50508160011b916000199060031b1c1916176001555b60126080524660a0526040516000906000549181620001968462000d2d565b91828252602082019460018116908160001462000a045750600114620009b3575b620001c59250038262000c08565b5190206040519060208201907f8b73c3c69bb8fe3d512ecc4cf759cc79239f7b179b0ffacaa9a75d522b39400f825260408301527fc89efdaa54c0f20c7adf612882df0950f5a951637e0307cdcb4c672f298b8bc660608301524660808301523060a083015260a0825260c082019082821060018060401b038311176200099d5760408290528251902060c0526101408201916001600160401b038311828410176200099d5760006101209261ffff9460405252600060e08201526000610100820152015261ffff60f01b60065560001980600855600a553360e05260018060a01b0383166101005260018060a01b03821661012052604051620002e281620002d360208201809562000c41565b03601f19810183528262000c08565b51902061018052620002f362000d6a565b620002fd62000e9c565b6101005160405163313ce56760e01b815290602090829060049082906001600160a01b03165afa801562000889576200034760ff916200034e9360009162000967575b5062000c89565b1662000c9b565b610140526101205160405163313ce56760e01b815290602090829060049082906001600160a01b03165afa801562000889576200034760ff916200039b9360009162000967575062000c89565b6101605260018060a01b0360e05116620003f5604051620003bc8162000bec565b601481527f5368617265643a3a6f7261636c6543616c6c657200000000000000000000000060208201526001600160a01b039262000f90565b166201000f90815460018060a01b03811680830362000920575b505060e05160405162000463935091506001600160a01b0316620004338262000bec565b601582527f5368617265643a3a6d61784368616e6765526174650000000000000000000000602083015262000f90565b60e0519091906001600160a01b03163303620008ec5781151580620008da575b1562000895576020916201000d7f807b9f5907da3f00bf587e77bc07247e1c7ff5ae46c93a584b3a075be0b1bac26040825481519081528487820152a1556001620100115560e0516040516333e744df60e21b81527fd3a291734a226017d193412c137cb1ccb68b64b3099de17d0e09e4307d4f806760048201526001600160a01b0394851660248201529184166044830152909283916064918391600091165af1908115620008895760009162000842575b506101a0818152906001600160a01b031615620007fd5760e0516040516064916001600160a01b031690620005a990620005708162000bec565b601c81527f53503a3a616d706c696669636174696f6e436f656666696369656e740000000060208201526001600160401b039262000f90565b160260018060401b038116908103620007e75762010010805442608081901b600160801b600160c01b03166001600160401b031992909216841760401b6fffffffffffffffff00000000000000001684179190911760c09190911b6001600160c01b03191617905560648110159081620007d8575b5015620007a3576040516151fa91826200101e83396080518261277a015260a05182612e10015260c05182612e37015260e051828181610f020152818161108e01528181611187015281816113c80152818161178501528181611e1601528181612158015281816122e2015281816126a9015281816132d2015261346c0152610100518281816105030152818161061b015281816107550152818161087201528181611221015281816117b301528181611a1701528181611c03015281816129ce015281816135db01528181613e300152613fd20152610120518281816103ed01528181610552015281816106470152818161096101528181610e84015281816112540152818161193401528181611abe01528181611b7301528181613efc015261404601526101405182818161043a015281816107ac015281816108be015281816109b3015261391601526101605182818161045d015281816107cf015281816108e1015281816109d6015261393f0152610180518261329101525181611eed0152f35b60405162461bcd60e51b815260206004820152600d60248201526c53503a20494e56414c49445f4160981b6044820152606490fd5b620f424091501115386200061e565b634e487b7160e01b600052601160045260246000fd5b60405162461bcd60e51b815260206004820152601f60248201527f53503a204d494e545f4255524e5f4445504c4f594d454e545f4641494c4544006044820152606490fd5b90506020813d60201162000880575b81620008606020938362000c08565b810103126200087b57620008749062000c2c565b3862000536565b600080fd5b3d915062000851565b6040513d6000823e3d90fd5b60405162461bcd60e51b815260206004820152601d60248201527f4f573a20494e56414c49445f4348414e47455f5045525f5345434f4e440000006044820152606490fd5b50662386f26fc1000082111562000483565b60405162461bcd60e51b815260206004820152600c60248201526b281d102327a92124a22222a760a11b6044820152606490fd5b60407f262681b3b01b61ff6d02569759105771205cdd274fb3c45535b50632e0a3523f918151908152846020820152a16001600160a01b031916179055388080806200040f565b6200098e915060203d60201162000995575b62000985818362000c08565b81019062000c6e565b3862000340565b503d62000979565b634e487b7160e01b600052604160045260246000fd5b5060008080529091600080516020620062188339815191525b818310620009e7575050906020620001c592820101620001b7565b6020919350806001915483858801015201910190918392620009cc565b60ff1916865250620001c592151560051b82016020019050620001b7565b01519050388062000161565b601f19821695600160005260206000209160005b88811062000a825750836001959697981062000a68575b505050811b0160015562000177565b015160001960f88460031b161c1916905538808062000a59565b9192602060018192868501518155019401920162000a42565b60016000527fb10e2d527612073b26eecdfd717e6a320cf44b4afac2b0732d9fcbe2b7fa0cf6601f830160051c8101916020841062000afa575b601f0160051c01905b81811062000aed575062000142565b6000815560010162000ade565b909150819062000ad5565b01519050388062000104565b6000808052600080516020620062188339815191529350601f198516905b81811062000b70575090846001959493921062000b56575b505050811b016000556200011a565b015160001960f88460031b161c1916905538808062000b47565b9293602060018192878601518155019501930162000b2f565b6000805290915060008051602062006218833981519152601f840160051c8101916020851062000be1575b90601f859493920160051c01905b81811062000bd15750620000eb565b6000815584935060010162000bc2565b909150819062000bb4565b604081019081106001600160401b038211176200099d57604052565b601f909101601f19168101906001600160401b038211908210176200099d57604052565b51906001600160a01b03821682036200087b57565b9081519160005b83811062000c5a575050016000815290565b806020809284010151818501520162000c48565b908160209103126200087b575160ff811681036200087b5790565b60ff166012039060ff8211620007e757565b801562000d2757600190602081108216604e821083161762000d10578190600a925b80821162000cdd5750506001600160801b038290048111620007e7570290565b90926001600160801b038190048111620007e75781841662000d06575b800292811c9062000cbd565b8092029162000cfa565b600a0a9190506001600160801b038211620007e757565b50600190565b90600182811c9216801562000d5f575b602083101462000d4957565b634e487b7160e01b600052602260045260246000fd5b91607f169162000d3d565b6008546000600019821462000e0e57505b60075480821462000e0a57614e20821162000dc55760407fad321f810529281bbb90384fd6fecbdda41509a5ccd7bd5aed986ed827f6a026918151908152836020820152a1600755565b60405162461bcd60e51b815260206004820152601360248201527f503a20494e56414c49445f535741505f464545000000000000000000000000006044820152606490fd5b5050565b905060018060a01b0360e0511660206101805160246040518094819363023aa9ab60e61b835260048301525afa91821562000e9057809262000e53575b505062000d7b565b9091506020823d821162000e87575b8162000e716020938362000c08565b8101031262000e84575051388062000e4b565b80fd5b3d915062000e62565b604051903d90823e3d90fd5b600a54600019811462000f3a575b60095480821462000e0a576207a120821162000ef55760407fc98a8b10b63c929f7799380bb4a0c444c713ebf74d8732f944c915034121aad1918151908152836020820152a1600955565b60405162461bcd60e51b815260206004820152601760248201527f503a20494e56414c49445f504c4154464f524d5f4645450000000000000000006044820152606490fd5b5060e05160405162000f8a916001600160a01b031662000f5a8262000bec565b601382527f5368617265643a3a706c6174666f726d46656500000000000000000000000000602083015262000f90565b62000eaa565b9060209060405162000fab81620002d3858201809562000c41565b51902060405163023aa9ab60e61b8152600481019190915291829060249082906001600160a01b03165afa908115620008895760009162000fea575090565b906020823d821162001014575b81620010066020938362000c08565b8101031262000e8457505190565b3d915062000ff756fe60806040908082526004918236101561001757600080fd5b600092833560e01c92836306fdde0314612b44575082630902f1ac14612ac5578263095ea7b314612a295782630c472afd146129f25782630dfe16811461298357826318160ddd1461294657826323b872dd1461282c57826326232a2e146127ef57826328d98c951461279e578263313ce5671461274257826331c49074146126255782633644e515146125e35782633998a681146125a75782634491513614612272578263495bc0fb146122335782634dfa1ff91461210a57826354cf2aeb146120cd578263598362f0146120625782636a62784214611eaa57826370a08231146120005782637c3cbc7c14611fc35782637ecebe0014611f6157826385faf62414611f2257826389afcb4414611eaa57826394217ad114611e575782639568e73b14611da657826395d89b4114611c8b57826397e377641461195d5782639be65a60146116f65782639d62a6941461158c5782639f2b37fb14611540578263a9059cbb14611493578263ab3d854414611458578263ad7853e914611409578263afb4a43b14611358578263b62221e014611303578263ba9a7a56146112c8578263bc25cf77146111ab578263c45a01551461113c578263c4db7fa014611022578263c58771ef14610fe5578263d0ebdbe714610ea8578263d21220a714610e39578263d505accf14610b79578263db6488dc14610b3d578263dbc781bc14610b06578263dd62ed3e14610a91578263e12bd9d81461031157508163e9bdf7b8146102c1575063fff6cae91461024d57600080fd5b346102be57807ffffffffffffffffffffffffffffffffffffffffffffffffffffffffffffffffc3601126102be576102bb6102a461028961302f565b5092916cffffffffffffffffffffffffff9182169116613f7f565b906102ad613de7565b6102b5613eb3565b906137b9565b80f35b80fd5b90503461030d57817ffffffffffffffffffffffffffffffffffffffffffffffffffffffffffffffffc36011261030d576020906cffffffffffffffffffffffffff600c54169051908152f35b5080fd5b83823461030d5760807ffffffffffffffffffffffffffffffffffffffffffffffffffffffffffffffffc36011261030d57602492833581358115158203610a89576044359473ffffffffffffffffffffffffffffffffffffffff9283871694858803610a8d576064359867ffffffffffffffff91828b11610a89573660238c011215610a89578a8101359a838c11610a855736838d83010111610a85576103b661302f565b509d6cffffffffffffffffffffffffff9283169d91909216968915610a29578d969594939291901561085357888a131561074f57877f0000000000000000000000000000000000000000000000000000000000000000968b6007549161041a614653565b6104239061447e565b16916fffffffffffffffffffffffffffffffff92837f000000000000000000000000000000000000000000000000000000000000000016937f00000000000000000000000000000000000000000000000000000000000000001693808d029085870294610491848785614e11565b948102620f4240900490030201916104a89261503f565b90037fffffffffffffffffffffffffffffffffffffffffffffffffffffffffffffffff01906104d6916144d3565b9e8f6104e3935b896135a3565b80610616575b50506104f3613de7565b91886104fd613eb3565b941696507f000000000000000000000000000000000000000000000000000000000000000089168703610606576105348685612dcf565b975b88106105aa5750509161054d939160209b936137b9565b8451927f0000000000000000000000000000000000000000000000000000000000000000161482528582015283838201527f66251e495e6e69e208ab08e2bc259dbe2ef482a8c4a93b8984b03a1eb27e1b9e60603392a351908152f35b90601a60649260208d51937f08c379a00000000000000000000000000000000000000000000000000000000085528401528201527f53503a20494e53554646494349454e545f414d4f554e545f494e0000000000006044820152fd5b6106108584612dcf565b97610536565b848a167f00000000000000000000000000000000000000000000000000000000000000008b168103610740578d905b7f00000000000000000000000000000000000000000000000000000000000000008c1603610731578d915b8c3b1561072d57899291838f8f937fffffffffffffffffffffffffffffffffffffffffffffffffffffffffffffffe0601f828b938d60a496519c8d9b8c9a8b987f4fc7c217000000000000000000000000000000000000000000000000000000008a5233908a015283890152604488015260806064880152826084880152018686013785858286010152011681010301925af1801561072357610714575b806104e9565b61071d90612ca6565b8c61070e565b8b513d89823e3d90fd5b8980fd5b61073a8a614325565b91610670565b6107498a614325565b90610645565b879995997f00000000000000000000000000000000000000000000000000000000000000009661077e90614325565b9a8b6007549161078c614653565b6107959061447e565b16916fffffffffffffffffffffffffffffffff92837f000000000000000000000000000000000000000000000000000000000000000016937f00000000000000000000000000000000000000000000000000000000000000001692848d029380870291610803848488614e11565b948102620f42409004900302019161081a9261503f565b90037fffffffffffffffffffffffffffffffffffffffffffffffffffffffffffffffff0190610848916144d3565b9e8f6104e3936104dd565b888a969a136000146109435787869e8f9b818910610870906145bb565b7f0000000000000000000000000000000000000000000000000000000000000000986007549161089e614653565b6108a79061447e565b16906fffffffffffffffffffffffffffffffff90817f000000000000000000000000000000000000000000000000000000000000000016917f0000000000000000000000000000000000000000000000000000000000000000169282860284880293610914838684614e11565b93029003916109229261503f565b0360010190610930916144d3565b620f424091820102049b6104e3936104dd565b9894876109526104e392614325565b9e8f61095f8382106145bb565b7f000000000000000000000000000000000000000000000000000000000000000098610a1a60075491610998610993614653565b61447e565b1660016fffffffffffffffffffffffffffffffff91610a13837f000000000000000000000000000000000000000000000000000000000000000016937f0000000000000000000000000000000000000000000000000000000000000000169184890292808b02610a09838287614e11565b918a02900361503f565b03016144d3565b620f424091820102049c6104dd565b8c517f08c379a0000000000000000000000000000000000000000000000000000000008152602081870152600f818801527f53503a20414d4f554e545f5a45524f00000000000000000000000000000000006044820152606490fd5b8580fd5b8480fd5b8280fd5b90915034610a8d57817ffffffffffffffffffffffffffffffffffffffffffffffffffffffffffffffffc360112610a8d576020928291610acf612d84565b610ad7612dac565b9173ffffffffffffffffffffffffffffffffffffffff8092168452865283832091168252845220549051908152f35b83346102be57807ffffffffffffffffffffffffffffffffffffffffffffffffffffffffffffffffc3601126102be576102bb613349565b83823461030d57817ffffffffffffffffffffffffffffffffffffffffffffffffffffffffffffffffc36011261030d5760209051620f42408152f35b83823461030d5760e07ffffffffffffffffffffffffffffffffffffffffffffffffffffffffffffffffc36011261030d57610bb2612d84565b610bba612dac565b604435606435936084359360ff8516809503610e3557428610610dd857610bdf612e0b565b9473ffffffffffffffffffffffffffffffffffffffff8092169586895260209560058752848a209889549960018b01905585519085898301937f6e71edae12b1b97f4d1f60370fef10105fa2faae0126114a169c64845d6126c985528b89850152169a8b606084015288608084015260a083015260c082015260c0815260e081019181831067ffffffffffffffff841117610dac5792828995926101228e966080968b5282519020916101008101947f19010000000000000000000000000000000000000000000000000000000000008652610102820152015260428152610cc681612c5b565b5190209086519182528482015260a4358682015260c435606082015282805260015afa15610da2578651169687151580610d99575b15610d3e5786977f8c5be1e5ebec7d5bd14f71427d1e84f3dd0314c0f7b2291e5b200ac8c7c3b9259596975283528087208688528352818188205551908152a380f35b8360649251917f08c379a0000000000000000000000000000000000000000000000000000000008352820152600e60248201527f494e56414c49445f5349474e45520000000000000000000000000000000000006044820152fd5b50848814610cfb565b81513d88823e3d90fd5b60248c60418f7f4e487b7100000000000000000000000000000000000000000000000000000000835252fd5b60648860208451917f08c379a0000000000000000000000000000000000000000000000000000000008352820152601760248201527f5045524d49545f444541444c494e455f455850495245440000000000000000006044820152fd5b8680fd5b83823461030d57817ffffffffffffffffffffffffffffffffffffffffffffffffffffffffffffffffc36011261030d576020905173ffffffffffffffffffffffffffffffffffffffff7f0000000000000000000000000000000000000000000000000000000000000000168152f35b90915034610a8d5760207ffffffffffffffffffffffffffffffffffffffffffffffffffffffffffffffffc360112610a8d5780359173ffffffffffffffffffffffffffffffffffffffff808416809403610a8957610f29907f000000000000000000000000000000000000000000000000000000000000000016331461312a565b600c546cffffffffffffffffffffffffff808216159182610fd7575b505015610f7a5750507fffffffffffffffffffffffff0000000000000000000000000000000000000000600b541617600b5580f35b90602060649251917f08c379a0000000000000000000000000000000000000000000000000000000008352820152601460248201527f414d503a20414d5f5354494c4c5f4143544956450000000000000000000000006044820152fd5b60681c161590503880610f45565b83823461030d57817ffffffffffffffffffffffffffffffffffffffffffffffffffffffffffffffffc36011261030d576020906008549051908152f35b83823461030d57817ffffffffffffffffffffffffffffffffffffffffffffffffffffffffffffffffc36011261030d577fc2b4a70c4505e53bc276a247d810393c8346d85131cf6a42ee13edf74884037f906110b573ffffffffffffffffffffffffffffffffffffffff7f000000000000000000000000000000000000000000000000000000000000000016331461312a565b6110bd614653565b67ffffffffffffffff80821691826fffffffffffffffff00000000000000007fffffffffffffffff0000000000000000000000000000000000000000000000004260c01b1692861b161777ffffffffffffffff000000000000000000000000000000004260801b1617176201001055825191825242166020820152a180f35b83823461030d57817ffffffffffffffffffffffffffffffffffffffffffffffffffffffffffffffffc36011261030d576020905173ffffffffffffffffffffffffffffffffffffffff7f0000000000000000000000000000000000000000000000000000000000000000168152f35b83346102be5760207ffffffffffffffffffffffffffffffffffffffffffffffffffffffffffffffffc3601126102be576102bb6111e6612d84565b6112786111f161302f565b5093916cffffffffffffffffffffffffff809116911691611245838361121e81611219613de7565b612dcf565b847f00000000000000000000000000000000000000000000000000000000000000006135a3565b61125183611219613eb3565b907f00000000000000000000000000000000000000000000000000000000000000006135a3565b7fffff00000000ffffffffffffffffffffffffffffffffffffffffffffffffffff7dffffffff00000000000000000000000000000000000000000000000000006006549260d01b16911617600655565b83823461030d57817ffffffffffffffffffffffffffffffffffffffffffffffffffffffffffffffffc36011261030d57602090516103e88152f35b83823461030d57817ffffffffffffffffffffffffffffffffffffffffffffffffffffffffffffffffc36011261030d5760209073ffffffffffffffffffffffffffffffffffffffff6201000f54169051908152f35b90915034610a8d5760207ffffffffffffffffffffffffffffffffffffffffffffffffffffffffffffffffc360112610a8d577fe044af8ebdaeeed3e95065fac857c503c7eabb71acfbcdcb7823ec6ca603c26e9035916113ef73ffffffffffffffffffffffffffffffffffffffff7f000000000000000000000000000000000000000000000000000000000000000016331461312a565b600a548151908152836020820152a1600a556102bb613349565b83823461030d57817ffffffffffffffffffffffffffffffffffffffffffffffffffffffffffffffffc36011261030d576020906cffffffffffffffffffffffffff600c5460681c169051908152f35b83823461030d57817ffffffffffffffffffffffffffffffffffffffffffffffffffffffffffffffffc36011261030d5760209051614e208152f35b83823461030d57807ffffffffffffffffffffffffffffffffffffffffffffffffffffffffffffffffc36011261030d576020916114ce612d84565b8273ffffffffffffffffffffffffffffffffffffffff60243592338552600387528285206114fd858254612dcf565b90551692838152600386522081815401905582519081527fddf252ad1be2c89b69c2b068fc378daa952ba7f163c4a11628f55a4df523b3ef843392a35160018152f35b83823461030d57817ffffffffffffffffffffffffffffffffffffffffffffffffffffffffffffffffc36011261030d5760209067ffffffffffffffff611584614653565b915191168152f35b83346102be5760207ffffffffffffffffffffffffffffffffffffffffffffffffffffffffffffffffc3601126102be5781359181606085516115cd81612c5b565b8281528260208201528287820152015273ffffffffffffffffffffffffffffffffffffffff6201000f54163303611699576201000083101561166d5760808363ffffffff8680519261161e84612c5b565b600d01549081600d0b93848152602081018360701c60060b81526060838301928560a81c60060b8452019360e01c845282519586525160060b60208601525160060b9084015251166060820152f35b9060326024927f4e487b7100000000000000000000000000000000000000000000000000000000835252fd5b60649060208551917f08c379a0000000000000000000000000000000000000000000000000000000008352820152601560248201527f4f573a204e4f545f4f5241434c455f43414c4c455200000000000000000000006044820152fd5b915034610a8d57602091827ffffffffffffffffffffffffffffffffffffffffffffffffffffffffffffffffc360112611866576117aa92611735612d84565b90835161174181612cba565b601881527f5368617265643a3a64656661756c745265636f766572657200000000000000008282015273ffffffffffffffffffffffffffffffffffffffff958691827f000000000000000000000000000000000000000000000000000000000000000016614825565b169285831695807f0000000000000000000000000000000000000000000000000000000000000000168714159081611930575b50156118d557831561187a57819060248651809881937f70a0823100000000000000000000000000000000000000000000000000000000835230908301525afa9384156118715750859361183b575b506118379350613496565b5080f35b90925083813d831161186a575b6118528183612cd6565b81010312611866576118379251913861182c565b8380fd5b503d611848565b513d87823e3d90fd5b6064918551917f08c379a0000000000000000000000000000000000000000000000000000000008352820152601960248201527f503a205245434f56455245525f5a45524f5f41444452455353000000000000006044820152fd5b6064918551917f08c379a0000000000000000000000000000000000000000000000000000000008352820152601b60248201527f503a20494e56414c49445f544f4b454e5f544f5f5245434f56455200000000006044820152fd5b90507f000000000000000000000000000000000000000000000000000000000000000016861415386117dd565b915034610a8d57807ffffffffffffffffffffffffffffffffffffffffffffffffffffffffffffffffc360112610a8d5781356024359273ffffffffffffffffffffffffffffffffffffffff9283600b54163303611c2e57505083811315611b98576119ca611a3c916141b7565b600c54906cffffffffffffffffffffffffff917fffffffffffffffffffffffffffffffffffffff0000000000000000000000000083611a0b84828516614371565b16911617600c551633837f0000000000000000000000000000000000000000000000000000000000000000166143da565b82821315611ae357611a506102bb926141b7565b600c54906cffffffffffffffffffffffffff917fffffffffffff00000000000000000000000000ffffffffffffffffffffffffff79ffffffffffffffffffffffffff00000000000000000000000000611aae84868560681c16614371565b60681b16911617600c55169033907f0000000000000000000000000000000000000000000000000000000000000000166143da565b828212611aef57505080f35b611b03611afe6102bb93614325565b6141b7565b600c54906cffffffffffffffffffffffffff917fffffffffffff00000000000000000000000000ffffffffffffffffffffffffff79ffffffffffffffffffffffffff00000000000000000000000000611b6184868560681c16614352565b60681b16911617600c551690309033907f000000000000000000000000000000000000000000000000000000000000000016614392565b838112611ba6575b50611a3c565b611bb5611afe611c2892614325565b600c54906cffffffffffffffffffffffffff917fffffffffffffffffffffffffffffffffffffff0000000000000000000000000083611bf684828516614352565b16911617600c55163033847f000000000000000000000000000000000000000000000000000000000000000016614392565b38611ba0565b90602060649251917f08c379a0000000000000000000000000000000000000000000000000000000008352820152601560248201527f414d503a20415554485f4e4f545f4d414e4147455200000000000000000000006044820152fd5b83823461030d57817ffffffffffffffffffffffffffffffffffffffffffffffffffffffffffffffffc36011261030d57805190826001805491611ccd83612c08565b80865292828116908115611d605750600114611d04575b505050611cf682611d00940383612cd6565b5191829182612d3a565b0390f35b94508085527fb10e2d527612073b26eecdfd717e6a320cf44b4afac2b0732d9fcbe2b7fa0cf65b828610611d4857505050611cf6826020611d009582010194611ce4565b80546020878701810191909152909501948101611d2b565b611d00975086935060209250611cf69491507fffffffffffffffffffffffffffffffffffffffffffffffffffffffffffffff001682840152151560051b82010194611ce4565b90915034610a8d5760207ffffffffffffffffffffffffffffffffffffffffffffffffffffffffffffffffc360112610a8d577f27f958341e42705d80835b6391cbe111df34533c7061beebb873bdb3454cc697903591611e3d73ffffffffffffffffffffffffffffffffffffffff7f000000000000000000000000000000000000000000000000000000000000000016331461312a565b6008548151908152836020820152a16008556102bb61318f565b83823461030d57817ffffffffffffffffffffffffffffffffffffffffffffffffffffffffffffffffc36011261030d5760209073ffffffffffffffffffffffffffffffffffffffff600b54169051908152f35b83346102be5760207ffffffffffffffffffffffffffffffffffffffffffffffffffffffffffffffffc3601126102be57611ee2612d84565b5036818037808036817f00000000000000000000000000000000000000000000000000000000000000005af4611f1a573d81803e3d90fd5b3d81803e3d90f35b83823461030d57817ffffffffffffffffffffffffffffffffffffffffffffffffffffffffffffffffc36011261030d576020906201000d549051908152f35b83823461030d5760207ffffffffffffffffffffffffffffffffffffffffffffffffffffffffffffffffc36011261030d578060209273ffffffffffffffffffffffffffffffffffffffff611fb3612d84565b1681526005845220549051908152f35b83823461030d57817ffffffffffffffffffffffffffffffffffffffffffffffffffffffffffffffffc36011261030d57602090600a549051908152f35b83823461030d5760207ffffffffffffffffffffffffffffffffffffffffffffffffffffffffffffffffc36011261030d578060209273ffffffffffffffffffffffffffffffffffffffff612052612d84565b1681526003845220549051908152f35b5082346102be57807ffffffffffffffffffffffffffffffffffffffffffffffffffffffffffffffffc3601126102be57506201001054815167ffffffffffffffff80831682529282901c83166020820152608082811c909316604082015260c09190911c6060820152f35b83823461030d57817ffffffffffffffffffffffffffffffffffffffffffffffffffffffffffffffffc36011261030d576020906007549051908152f35b915034610a8d5760207ffffffffffffffffffffffffffffffffffffffffffffffffffffffffffffffffc360112610a8d5781359161217f73ffffffffffffffffffffffffffffffffffffffff7f000000000000000000000000000000000000000000000000000000000000000016331461312a565b82151580612222575b156121c657507f807b9f5907da3f00bf587e77bc07247e1c7ff5ae46c93a584b3a075be0b1bac26201000d9182548151908152846020820152a15580f35b602060649251917f08c379a0000000000000000000000000000000000000000000000000000000008352820152601d60248201527f4f573a20494e56414c49445f4348414e47455f5045525f5345434f4e440000006044820152fd5b50662386f26fc10000831115612188565b83823461030d57817ffffffffffffffffffffffffffffffffffffffffffffffffffffffffffffffffc36011261030d576020906201000e549051908152f35b83903461030d57827ffffffffffffffffffffffffffffffffffffffffffffffffffffffffffffffffc36011261030d5780359067ffffffffffffffff90818316809303611866576024359082821693848303610a855761230973ffffffffffffffffffffffffffffffffffffffff7f000000000000000000000000000000000000000000000000000000000000000016331461312a565b60018110158061259b575b1561253e576064028381169481860361251257612332904290612dcf565b6201518081106124b557612344614653565b9260028685169283891160001461249857612374908861236d6123668c614460565b92876144c0565b911661450c565b1161243b575042608081811b77ffffffffffffffff0000000000000000000000000000000016938a1b6fffffffffffffffff0000000000000000169092179290921760c085901b7fffffffffffffffff00000000000000000000000000000000000000000000000016176201001055965167ffffffffffffffff92831681529482166020860152929092168216604084015216606082015290917f91e3c84fe7f917d978f2dacc9d91d4e48b43b66e15e0526bda0a0866bbb7949d9190819081010390a180f35b60649060208a51917f08c379a0000000000000000000000000000000000000000000000000000000008352820152601560248201527f53503a20414d505f524154455f544f4f5f4849474800000000000000000000006044820152fd5b6124b0908861236d6124a989614460565b928c6144c0565b612374565b60648360208a51917f08c379a0000000000000000000000000000000000000000000000000000000008352820152601460248201527f53503a20494e56414c49445f4455524154494f4e0000000000000000000000006044820152fd5b6024876011857f4e487b7100000000000000000000000000000000000000000000000000000000835252fd5b60648260208951917f08c379a0000000000000000000000000000000000000000000000000000000008352820152600d60248201527f53503a20494e56414c49445f41000000000000000000000000000000000000006044820152fd5b50612710811115612314565b83823461030d57817ffffffffffffffffffffffffffffffffffffffffffffffffffffffffffffffffc36011261030d57602090516207a1208152f35b83823461030d57817ffffffffffffffffffffffffffffffffffffffffffffffffffffffffffffffffc36011261030d5760209061261e612e0b565b9051908152f35b83823461030d57817ffffffffffffffffffffffffffffffffffffffffffffffffffffffffffffffffc36011261030d57806126ce915161266481612cba565b601481527f5368617265643a3a6f7261636c6543616c6c6572000000000000000000000000602082015273ffffffffffffffffffffffffffffffffffffffff928391827f000000000000000000000000000000000000000000000000000000000000000016614825565b16906201000f9283549081168084036126e5578580f35b827f262681b3b01b61ff6d02569759105771205cdd274fb3c45535b50632e0a3523f917fffffffffffffffffffffffff00000000000000000000000000000000000000009451908152856020820152a11617905581808080808580f35b83823461030d57817ffffffffffffffffffffffffffffffffffffffffffffffffffffffffffffffffc36011261030d576020905160ff7f0000000000000000000000000000000000000000000000000000000000000000168152f35b83823461030d57817ffffffffffffffffffffffffffffffffffffffffffffffffffffffffffffffffc36011261030d5760209067ffffffffffffffff6064816127e5614653565b1604915191168152f35b83823461030d57817ffffffffffffffffffffffffffffffffffffffffffffffffffffffffffffffffc36011261030d576020906009549051908152f35b9083346102be5760607ffffffffffffffffffffffffffffffffffffffffffffffffffffffffffffffffc3601126102be57612865612d84565b7fddf252ad1be2c89b69c2b068fc378daa952ba7f163c4a11628f55a4df523b3ef61288e612dac565b946044358573ffffffffffffffffffffffffffffffffffffffff80951694858752602098848a958652838920338a52865283892054857fffffffffffffffffffffffffffffffffffffffffffffffffffffffffffffffff8203612923575b50505086885260038552828820612904858254612dcf565b9055169586815260038452208181540190558551908152a35160018152f35b61292c91612dcf565b90888a528652838920338a528652838920558a80856128ec565b83823461030d57817ffffffffffffffffffffffffffffffffffffffffffffffffffffffffffffffffc36011261030d576020906002549051908152f35b83823461030d57817ffffffffffffffffffffffffffffffffffffffffffffffffffffffffffffffffc36011261030d576020905173ffffffffffffffffffffffffffffffffffffffff7f0000000000000000000000000000000000000000000000000000000000000000168152f35b83346102be57807ffffffffffffffffffffffffffffffffffffffffffffffffffffffffffffffffc3601126102be576102bb61318f565b90915034610a8d57817ffffffffffffffffffffffffffffffffffffffffffffffffffffffffffffffffc360112610a8d57602092612a65612d84565b9183602435928392338252875273ffffffffffffffffffffffffffffffffffffffff8282209516948582528752205582519081527f8c5be1e5ebec7d5bd14f71427d1e84f3dd0314c0f7b2291e5b200ac8c7c3b925843392a35160018152f35b83823461030d57817ffffffffffffffffffffffffffffffffffffffffffffffffffffffffffffffffc36011261030d57608090612b00612fe8565b906cffffffffffffffffffffffffff9182815116926020820151169161ffff6060637fffffff83850151169301511692815194855260208501528301526060820152f35b92505034610a8d57827ffffffffffffffffffffffffffffffffffffffffffffffffffffffffffffffffc360112610a8d57828054612b8181612c08565b80855291600191808316908115611d605750600114612bac57505050611cf682611d00940383612cd6565b80809650527f290decd9548b62a8d60345a988386fc84ba6bc95484008f6362f93160ef3e5635b828610612bf057505050611cf6826020611d009582010194611ce4565b80546020878701810191909152909501948101612bd3565b90600182811c92168015612c51575b6020831014612c2257565b7f4e487b7100000000000000000000000000000000000000000000000000000000600052602260045260246000fd5b91607f1691612c17565b6080810190811067ffffffffffffffff821117612c7757604052565b7f4e487b7100000000000000000000000000000000000000000000000000000000600052604160045260246000fd5b67ffffffffffffffff8111612c7757604052565b6040810190811067ffffffffffffffff821117612c7757604052565b90601f7fffffffffffffffffffffffffffffffffffffffffffffffffffffffffffffffe0910116810190811067ffffffffffffffff821117612c7757604052565b60005b838110612d2a5750506000910152565b8181015183820152602001612d1a565b7fffffffffffffffffffffffffffffffffffffffffffffffffffffffffffffffe0601f60409360208452612d7d8151809281602088015260208888019101612d17565b0116010190565b6004359073ffffffffffffffffffffffffffffffffffffffff82168203612da757565b600080fd5b6024359073ffffffffffffffffffffffffffffffffffffffff82168203612da757565b91908203918211612ddc57565b7f4e487b7100000000000000000000000000000000000000000000000000000000600052601160045260246000fd5b6000467f000000000000000000000000000000000000000000000000000000000000000003612e5957507f000000000000000000000000000000000000000000000000000000000000000090565b60405181548291612e6982612c08565b8082528160209485820194600190878282169182600014612fac575050600114612f53575b50612e9b92500382612cd6565b51902091604051918201927f8b73c3c69bb8fe3d512ecc4cf759cc79239f7b179b0ffacaa9a75d522b39400f845260408301527fc89efdaa54c0f20c7adf612882df0950f5a951637e0307cdcb4c672f298b8bc660608301524660808301523060a083015260a0825260c082019082821067ffffffffffffffff831117612f26575060405251902090565b807f4e487b7100000000000000000000000000000000000000000000000000000000602492526041600452fd5b87805286915087907f290decd9548b62a8d60345a988386fc84ba6bc95484008f6362f93160ef3e5635b858310612f94575050612e9b935082010138612e8e565b80548388018501528694508893909201918101612f7d565b7fffffffffffffffffffffffffffffffffffffffffffffffffffffffffffffff00168852612e9b95151560051b8501019250389150612e8e9050565b60405190612ff582612c5b565b8160606006546cffffffffffffffffffffffffff80821684528160681c16602084015263ffffffff8160d01c16604084015260f01c910152565b613037612fe8565b906cffffffffffffffffffffffffff9182815116926020820151169160408201519060018061ffff6060637fffffff86169601511693601f1c16146130cc576006547fffff00000000ffffffffffffffffffffffffffffffffffffffffffffffffffff7dffffffff00000000000000000000000000000000000000000000000000006380000000861760d01b16911617600655565b60646040517f08c379a000000000000000000000000000000000000000000000000000000000815260206004820152600a60248201527f5245454e5452414e4359000000000000000000000000000000000000000000006044820152fd5b1561313157565b60646040517f08c379a000000000000000000000000000000000000000000000000000000000815260206004820152600c60248201527f503a20464f5242494444454e00000000000000000000000000000000000000006044820152fd5b60085460007fffffffffffffffffffffffffffffffffffffffffffffffffffffffffffffffff821461326757505b60075480821461326357614e2082116132055760407fad321f810529281bbb90384fd6fecbdda41509a5ccd7bd5aed986ed827f6a026918151908152836020820152a1600755565b60646040517f08c379a000000000000000000000000000000000000000000000000000000000815260206004820152601360248201527f503a20494e56414c49445f535741505f464545000000000000000000000000006044820152fd5b5050565b90506040517f8eaa6ac00000000000000000000000000000000000000000000000000000000081527f0000000000000000000000000000000000000000000000000000000000000000600482015260208160248173ffffffffffffffffffffffffffffffffffffffff7f0000000000000000000000000000000000000000000000000000000000000000165afa91821561333d578092613309575b50506131bd565b9091506020823d8211613335575b8161332460209383612cd6565b810103126102be5750513880613302565b3d9150613317565b604051903d90823e3d90fd5b600a547fffffffffffffffffffffffffffffffffffffffffffffffffffffffffffffffff811461341b575b600954808214613263576207a12082116133bd5760407fc98a8b10b63c929f7799380bb4a0c444c713ebf74d8732f944c915034121aad1918151908152836020820152a1600955565b60646040517f08c379a000000000000000000000000000000000000000000000000000000000815260206004820152601760248201527f503a20494e56414c49445f504c4154464f524d5f4645450000000000000000006044820152fd5b5061349160405161342b81612cba565b601381527f5368617265643a3a706c6174666f726d46656500000000000000000000000000602082015273ffffffffffffffffffffffffffffffffffffffff7f000000000000000000000000000000000000000000000000000000000000000016614825565b613374565b916040519073ffffffffffffffffffffffffffffffffffffffff60208301937fa9059cbb0000000000000000000000000000000000000000000000000000000085521660248301526044820152604481526134f081612c5b565b600092839283809351925af1903d1561359b573d9067ffffffffffffffff8211612f26576040519161354a60207fffffffffffffffffffffffffffffffffffffffffffffffffffffffffffffffe0601f8401160184612cd6565b82523d81602084013e5b8261355e57505090565b9080925051918215928315613574575b50505090565b81929350906020918101031261030d57602001519081151582036102be575038808061356e565b606090613554565b9390919273ffffffffffffffffffffffffffffffffffffffff809516916135cb858585613496565b156135d9575b505050505050565b7f000000000000000000000000000000000000000000000000000000000000000086168314918215613739576cffffffffffffffffffffffffff80600c54165b169183156137315750955b8561362f8389612dcf565b10156136b75761364d9161364791600b541697612dcf565b85612dcf565b853b15612da75760446000928360405198899485937f1566d96d000000000000000000000000000000000000000000000000000000008552600485015260248401525af1938415613725576136a794613716575b50613496565b156136b7573880808080806135d1565b6040517f08c379a000000000000000000000000000000000000000000000000000000000815260206004820152601360248201527f52503a205452414e534645525f4641494c4544000000000000000000000000006044820152606490fd5b61371f90612ca6565b386136a1565b6040513d6000823e3d90fd5b905095613624565b6cffffffffffffffffffffffffff80600c5460681c16613619565b1561375b57565b60646040517f08c379a000000000000000000000000000000000000000000000000000000000815260206004820152600c60248201527f52503a204f564552464c4f5700000000000000000000000000000000000000006044820152fd5b93929190926cffffffffffffffffffffffffff85111580613dc3575b6137de90613754565b6cffffffffffffffffffffffffff82111580613dac575b6137fe90613754565b63ffffffff81637fffffff42160316151580613da3575b80613d9a575b6138dd575b5050600680547fffff000000000000000000000000000000000000000000000000000000000000166cffffffffffffffffffffffffff948516908117606885901b79ffffffffffffffffffffffffff0000000000000000000000000016177d7fffffff00000000000000000000000000000000000000000000000000004260d01b16179091557fff388a12130349259b5ae24af90448f511c2340be808f2c371230fc2da175c4493604093919250908351928352166020820152a1565b90929193600654906138f18260f01c61441d565b50916138fb614653565b906fffffffffffffffffffffffffffffffff61396561393c827f0000000000000000000000000000000000000000000000000000000000000000168a6144c0565b917f0000000000000000000000000000000000000000000000000000000000000000168a6144c0565b906801fffffffffffffffe67ffffffffffffffff85169460011b169361398c858484614e11565b9080860460021490151715612ddc576139ac9061121960648704826144c0565b906064850460011b9060648604820460021460648704151715612ddc57613a2b86613a25836139ff816064613a1e8b613a18613a11613a0b613a319f6139ff613a189f88613a04846139ff8d82956144c0565b6151a4565b9e046144c0565b8a613dda565b918d6151a4565b90612dcf565b9c046144c0565b90613dda565b926151a4565b670de0b6b3a76400007812725dd1d243aba0e75fe645cc4873f9e65afe688c928e1f218411810215820215613d8c57613c84930290808204910615150193613b6b613ad8613ad0613a8188614908565b977fffffffffffffffffffffffffffffffffffff800000000000000000000000000089121580613d74575b613ab5906146ed565b63ffffffff8a637fffffff42160316906201000e5490614723565b9b909a6144c0565b8070ffffffffffffffffffffffffffffffffff1060071b81811c68ffffffffffffffffff1060061b1781811c64ffffffffff1060051b1781811c62ffffff1060041b1760b56201000083831c019160011c1b0260121c8082040160011c8082040160011c8082040160011c8082040160011c8082040160011c8082040160011c8082040160011c80809204109003614908565b977fffffffffffffffffffffffffffffffffffff800000000000000000000000000089121580613d5c575b613b9f906146ed565b6201000e555463ffffffff86637fffffff4216031660060b917dffffffffffffffffffffffffffffffffffffffffffffffffffffffffffff7fffff00000000000000000000000000000000000000000000000000000000000060018360f01c0160f01b16911617918260065560405195613c1887612c5b565b63ffffffff88637fffffff42160316600d0b90600d0b02600d0b82600d0b01600d0b865280602087019a60060b0260060b8260701c60060b0160060b8a52604086019860060b0260060b9060a81c60060b0160060b875263ffffffff606085019516855260f01c61441d565b613d2d5791519551945192517fffffffff0000000000000000000000000000000000000000000000000000000060e09190911b1660a89390931b7bffffffffffffff000000000000000000000000000000000000000000166dffffffffffffffffffffffffffff90961660709590951b74ffffffffffffff00000000000000000000000000001694909417949094171790925590806cffffffffffffffffffffffffff80613820565b7f4e487b7100000000000000000000000000000000000000000000000000000000600052600060045260246000fd5b506d7fffffffffffffffffffffffffff891315613b96565b506d7fffffffffffffffffffffffffff891315613aac565b637c5f487d6000526004601cfd5b5082151561381b565b50811515613815565b506cffffffffffffffffffffffffff8311156137f5565b506cffffffffffffffffffffffffff8411156137d5565b91908201809211612ddc57565b6040517f70a0823100000000000000000000000000000000000000000000000000000000815230600482015260208160248173ffffffffffffffffffffffffffffffffffffffff7f0000000000000000000000000000000000000000000000000000000000000000165afa801561372557600090613e80575b613e7d91506cffffffffffffffffffffffffff600c541690613dda565b90565b6020823d8211613eab575b81613e9860209383612cd6565b810103126102be5750613e7d9051613e60565b3d9150613e8b565b6040517f70a0823100000000000000000000000000000000000000000000000000000000815230600482015260208160248173ffffffffffffffffffffffffffffffffffffffff7f0000000000000000000000000000000000000000000000000000000000000000165afa801561372557600090613f4c575b613e7d91506cffffffffffffffffffffffffff600c5460681c1690613dda565b6020823d8211613f77575b81613f6460209383612cd6565b810103126102be5750613e7d9051613f2c565b3d9150613f57565b909173ffffffffffffffffffffffffffffffffffffffff9182600b54169283156141b1576040517fd4fac45d000000000000000000000000000000000000000000000000000000008082523060048301527f000000000000000000000000000000000000000000000000000000000000000073ffffffffffffffffffffffffffffffffffffffff8116602484015291959193602093909290848880604481010381600080965af19788156141a6578298614177575b50600b546040519384523060048501527f000000000000000000000000000000000000000000000000000000000000000073ffffffffffffffffffffffffffffffffffffffff811660248601529392918691849160449183918691165af194851561416a578195614133575b5050506141267fffffffffffff00000000000000000000000000000000000000000000000000009261411f6141198679ffffffffffffffffffffffffff000000000000000000000000009561410c8c600c549b8c976cffffffffffffffffffffffffff80991691614255565b9c858b60681c1691614255565b986141b7565b16936141b7565b60681b1692161717600c55565b909180939550813d8311614163575b61414c8183612cd6565b810103126102be575051916141268261411f6140a0565b503d614142565b50604051903d90823e3d90fd5b9097508481813d831161419f575b61418f8183612cd6565b8101031261030d57519638614034565b503d614185565b6040513d84823e3d90fd5b50929150565b6cffffffffffffffffffffffffff908181116141d1571690565b60846040517f08c379a000000000000000000000000000000000000000000000000000000000815260206004820152602760248201527f53616665436173743a2076616c756520646f65736e27742066697420696e203160448201527f30342062697473000000000000000000000000000000000000000000000000006064820152fd5b9190928181116000146142bf57614291613e7d94927fd85f20827037d49bc45762fefff2ddfe9a1a5412ad3dfc1cdca78d2e52f4ba2392612dcf565b6040805173ffffffffffffffffffffffffffffffffffffffff959095168552602085018290529093a1613dda565b908082101561356e576142f7613e7d94927f3ffa9beb41b46c88b16758ef6c236ebd4d07cdfd4d22471030eb6b2d662482d992612dcf565b6040805173ffffffffffffffffffffffffffffffffffffffff959095168552602085018290529093a1612dcf565b7f80000000000000000000000000000000000000000000000000000000000000008114612ddc5760000390565b6cffffffffffffffffffffffffff9182169082160391908211612ddc57565b9190916cffffffffffffffffffffffffff80809416911601918211612ddc57565b92916064601c60209360405196600096879586936323b872dd855288526040526060525af13d1560018351141716156143cd57606052604052565b637939f42490526004601cfd5b601692602092601a52603a52604460009384809369a9059cbb00000000000082525af13d15600183511417161561441057603a52565b6390b8ec1890526004601cfd5b6201000081101561443157600d0190600090565b7f4e487b7100000000000000000000000000000000000000000000000000000000600052603260045260246000fd5b906201518067ffffffffffffffff80931602918216918203612ddc57565b60011b906801fffffffffffffffe67fffffffffffffffe831692168203612ddc57565b91909167ffffffffffffffff80809416911602918216918203612ddc57565b81810292918115918404141715612ddc57565b81156144dd570490565b7f4e487b7100000000000000000000000000000000000000000000000000000000600052601260045260246000fd5b600091908061451d57505050600090565b7fffffffffffffffffffffffffffffffffffffffffffffffffffffffffffffffff810190811161458e5790614551916144d3565b9060018201809211614561575090565b807f4e487b7100000000000000000000000000000000000000000000000000000000602492526011600452fd5b6024837f4e487b710000000000000000000000000000000000000000000000000000000081526011600452fd5b156145c257565b60646040517f08c379a000000000000000000000000000000000000000000000000000000000815260206004820152601260248201527f53503a204e4f545f454e4f5547485f4c495100000000000000000000000000006044820152fd5b67ffffffffffffffff9182169082160391908211612ddc57565b9067ffffffffffffffff8091169182156144dd57160490565b620100105467ffffffffffffffff90818160401c168160c01c908142106000146146e65761469661468d858086169560801c168094614620565b92854216614620565b90838111156146c957916146b86146bd926146b2868896614620565b906144a1565b61463a565b1601908111612ddc5790565b613e7d94506146e092916146b26146b89286614620565b90614620565b9250505090565b156146f457565b7f4e487b7100000000000000000000000000000000000000000000000000000000600052600160045260246000fd5b909182156147d15761473583836147de565b6201000d549061474583836144c0565b10156147c3578383111561478c5761475d92506144c0565b90670de0b6b3a7640000918201808311612ddc5761477a916144c0565b04905b61478682614908565b600d0b90565b61479a61479f9385116146ed565b6144c0565b90670de0b6b3a7640000918203828111612ddc576147bc916144c0565b049061477d565b505091905061478682614908565b5091905061478682614908565b8180821115614815576147f091612dcf565b905b670de0b6b3a764000091828102928184041490151715612ddc57613e7d916144d3565b9061481f91612dcf565b906147f2565b9073ffffffffffffffffffffffffffffffffffffffff916040519060246020938361486d86828161486081809a019687815193849201612d17565b8101038084520182612cd6565b51902060405195869384927f8eaa6ac00000000000000000000000000000000000000000000000000000000084526004840152165afa908115613725576000916148b8575b50905090565b82813d83116148dd575b6148cc8183612cd6565b810103126102be57505180386148b2565b503d6148c2565b80156144dd576ec097ce7bc90715b34b9f10000000000590565b81156144dd570590565b614918655af3107a400091614953565b600081131561492d57652d79883d2000010590565b7fffffffffffffffffffffffffffffffffffffffffffffffffffffd28677c2e000010590565b6000811315614a365780670c7d713b49da00001280614a25575b15614a1c57670de0b6b3a7640000906ec097ce7bc90715b34b9f1000000000906149c0908302828101907fffffffffffffffffffffffffffffffffff3f68318436f8ea4cb460f0000000000183026148fe565b9080828002059181838202058284820205838582020591848684020593858786020595808888020597880205600f900596600d900595600b900594600990059360079005926005900591600390050101010101010160011b0590565b613e7d90614a94565b50670f43fc2c04ee0000811261496d565b60646040517f08c379a000000000000000000000000000000000000000000000000000000000815260206004820152601160248201527f454d3a204f55545f4f465f424f554e44530000000000000000000000000000006044820152fd5b670de0b6b3a76400008112614dcd5760649060007e1600ef3172e58d2e933ec884fde10064c63b5372d805e203c0000000000000821215614da2575b73011798004d755d3c8bc8e03204cf44619e000000821215614d81575b8202908202816e01855144814a7ff805980ff00840008281811215614d5a575b5050506b02df0ab5a80a22c61ab5a70080821215614d3a575b50693f1fce3da636ea5cf85080821215614d1a575b50690127fa27722cc06cc5e280821215614cfa575b5068280e60114edb805d0380821215614cda575b50680ebc5fb4174612111080821215614cc3575b506808f00f760a4b2db55d80821215614ca3575b506806f5f177578893793780821215614c83575b506806248f33704b28660380821215614c64575b506805c548670b9510e7ac80821215614c45575b50614c0468056bc75e2d6310000091827ffffffffffffffffffffffffffffffffffffffffffffffffa9438a1d29cf000008183019201026148fe565b9080828002059181838202058284820205916003600560076009600b888a89020598808b8b02059a8b0205059805960594059205010101010160011b010590565b68056bc75e2d631000006756bc75e2d631000092020591019038614bc8565b68056bc75e2d6310000067ad78ebc5ac62000092020591019038614bb4565b68056bc75e2d6310000068015af1d78b58c4000092020591019038614ba0565b68056bc75e2d631000006802b5e3af16b188000092020591019038614b8c565b68056bc75e2d631000008092020591019038614b78565b68056bc75e2d63100000680ad78ebc5ac620000092020591019038614b64565b68056bc75e2d631000006815af1d78b58c40000092020591019038614b50565b68056bc75e2d63100000682b5e3af16b1880000092020591019038614b3b565b68056bc75e2d631000006856bc75e2d63100000092020591019038614b26565b68056bc75e2d631000009192945068ad78ebc5ac6200000093500205910190388080614b0d565b6b1425982cf597cd205cef7380909105906803782dace9d900000001614aed565b50770195e54c5dd42177f53a27172fa9ec63026282700000000090056806f05b59d3b2000000614ad0565b614dd9614dde916148e4565b614a94565b60000390565b7fffffffffffffffffffffffffffffffffffffffffffffffffffffffffffffffff8114612ddc5760010190565b9190600091614e208285613dda565b90811561502057838295848110600014615017579291905b80945b6101008610614ecb5750505050505062061a80614e5882846147de565b1115614ebc5760646040517f08c379a000000000000000000000000000000000000000000000000000000000815260206004820152601c60248201527f534d3a20434f4d505554455f4449445f4e4f545f434f4e5645524745000000006044820152fd5b614ec591613dda565b60011c90565b90919293949550614eed81614ee88961479a89614ee883806144c0565b6144d3565b958660021c97809886614f3a8361479a819c7f7ffffffffffffffffffffffffffffffffffffffffffffffffffffffffffffffe8b614f2e60649788926144c0565b049160011c1690613dda565b927fffffffffffffffffffffffffffffffffffffffffffffffffffffffffffffff9c8801888111614fea5790614f6f916144c0565b0460039180830292830403614fbd5791614f8f614f9592614f9c94613dda565b906144d3565b9889615028565b614fb357614fa990614de4565b9493929190614e3b565b5050505050505090565b6024867f4e487b710000000000000000000000000000000000000000000000000000000081526011600452fd5b6024887f4e487b710000000000000000000000000000000000000000000000000000000081526011600452fd5b93929190614e38565b505050905090565b6001918082116150385703111590565b9003111590565b909161504b83806144c0565b9260019183831b94600295858104871486151715612ddc5761479a8491615071936144d3565b606481029080820460641490151715612ddc5781841b828104871483151715612ddc5761509d916144d3565b936064830283810460641484151715612ddc576150bd92613a25916144d3565b81946000805b610100811061512a5760646040517f08c379a000000000000000000000000000000000000000000000000000000000815260206004820152601960248201527f534d3a20474554595f4449445f4e4f545f434f4e5645524745000000000000006044820152fd5b8761513e8861513983806144c0565b613dda565b9080881b908082048614901517156151775761516591614f8f8861121989614f9595613dda565b614fb35761517290614de4565b6150c3565b6024847f4e487b710000000000000000000000000000000000000000000000000000000081526011600452fd5b90807fffffffffffffffffffffffffffffffffffffffffffffffffffffffffffffffff04821181026151df57670de0b6b3a764000091020490565b63bac65e5b6000526004601cfdfea164736f6c6343000811000a290decd9548b62a8d60345a988386fc84ba6bc95484008f6362f93160ef3e563",
    "linkReferences": {}
  },
  "methodIdentifiers": {
    "DOMAIN_SEPARATOR()": "3644e515",
    "FEE_ACCURACY()": "db6488dc",
    "MAX_PLATFORM_FEE()": "3998a681",
    "MAX_SWAP_FEE()": "ab3d8544",
    "MINIMUM_LIQUIDITY()": "ba9a7a56",
    "adjustManagement(int256,int256)": "97e37764",
    "allowance(address,address)": "dd62ed3e",
    "ampData()": "598362f0",
    "approve(address,uint256)": "095ea7b3",
    "assetManager()": "94217ad1",
    "balanceOf(address)": "70a08231",
    "burn(address)": "89afcb44",
    "customPlatformFee()": "7c3cbc7c",
    "customSwapFee()": "c58771ef",
    "decimals()": "313ce567",
    "factory()": "c45a0155",
    "getCurrentA()": "28d98c95",
    "getCurrentAPrecise()": "9f2b37fb",
    "getReserves()": "0902f1ac",
    "maxChangeRate()": "85faf624",
    "mint(address)": "6a627842",
    "name()": "06fdde03",
    "nonces(address)": "7ecebe00",
    "observation(uint256)": "9d62a694",
    "oracleCaller()": "b62221e0",
    "permit(address,address,uint256,uint256,uint8,bytes32,bytes32)": "d505accf",
    "platformFee()": "26232a2e",
    "prevClampedPrice()": "495bc0fb",
    "rampA(uint64,uint64)": "44915136",
    "recoverToken(address)": "9be65a60",
    "setCustomPlatformFee(uint256)": "afb4a43b",
    "setCustomSwapFee(uint256)": "9568e73b",
    "setManager(address)": "d0ebdbe7",
    "setMaxChangeRate(uint256)": "4dfa1ff9",
    "skim(address)": "bc25cf77",
    "stopRampA()": "c4db7fa0",
    "swap(int256,bool,address,bytes)": "e12bd9d8",
    "swapFee()": "54cf2aeb",
    "symbol()": "95d89b41",
    "sync()": "fff6cae9",
    "token0()": "0dfe1681",
    "token0Managed()": "e9bdf7b8",
    "token1()": "d21220a7",
    "token1Managed()": "ad7853e9",
    "totalSupply()": "18160ddd",
    "transfer(address,uint256)": "a9059cbb",
    "transferFrom(address,address,uint256)": "23b872dd",
    "updateOracleCaller()": "31c49074",
    "updatePlatformFee()": "dbc781bc",
    "updateSwapFee()": "0c472afd"
  },
  "id": 29
}